:020000040800F2
:1000000000500020711800086F1800086F180008D1
:100010006F1800086F1800086F1800080000000033
:100020000000000000000000000000006F18000841
:100030006F180008000000006F180008150A00087B
:100040006F1800086F1800086F1800086F18000874
:100050006F1800086F1800086F1800086F18000864
:100060006F1800086F1800086F1800086F18000854
:100070006F1800086F1800086F1800086F18000844
:100080006F1800086F1800086F1800086F18000834
:100090006F1800086F1800086F1800086F18000824
:1000A0006F1800086F1800086F1800086F18000814
:1000B0006F1800086F1800086F1800086F18000804
:1000C0006F1800086F1800086F1800086F180008F4
:1000D0006F1800086F1800086F1800086F180008E4
:0C00E0006F1800086F1800086F18000867
:1000EC00034B1A68024B1B689B1A8342FAD3704766
:1000FC0010000020034B1B6813F0800FFAD0014B4B
:10010C00586070470038014010B5044602E00134D5
:10011C00FFF7F0FF20780028F9D110BD38B5044660
:10012C000309054DE85CFFF7E5FF04F00F04285DBB
:10013C00FFF7E0FF38BD00BFF01D000810B5044606
:10014C00000AFFF7EBFFE0B2FFF7E8FF10BD10B5B8
:10015C000446000CFFF7F2FFA0B2FFF7EFFF10BD53
:10016C0010B584B010B10246002414E03020FFF723
:10017C00C1FF1DE00F4BA3FB0213DB08194603EB79
:10018C008303A2EB4303303304F110026A4402F8F8
:10019C000C3C0A460134002AECD107E0013C04F186
:1001AC0010036B4413F80C0CFFF7A4FF002CF5D1D3
:1001BC0004B010BDCDCCCCCC10B50446A0F12003BE
:1001CC00DBB25E2B0AD90A280BD00D280DD00948BA
:1001DC00FFF79AFF2046FFF7A1FF10BDFFF78AFF3C
:1001EC00FBE70548FFF790FFF7E70448FFF78CFFA4
:1001FC00F3E700BF6C1B0008641B0008681B0008B9
:10020C00124A936943F4804343F005039361A2F5CA
:10021C008832536823F0040353600D4B5A6822F460
:10022C007F625A605A6842F496625A60094A002307
:10023C00D360094B1B6803F5E1430849A1FB031389
:10024C00DB0B936042F20C03D3607047001002404A
:10025C00000801400038014004000020C5B3A29101
:10026C00084A936943F010039361074B5A6822F4D0
:10027C0070025A605A6842F400125A604FF40052ED
:10028C001A617047001002400010014020B1054B6C
:10029C004FF400525A617047024B4FF400521A61EE
:1002AC00704700BF00100140074B1A6822F0400253
:1002BC001A601A6822F0380202431A601A6842F077
:1002CC0040021A60704700BF00300140124A936927
:1002DC0043F4805343F005039361A2F588325368CD
:1002EC0023F0010353600D4B1A6892B21A601A681E
:1002FC0042F0344242F431021A6010221A6103F5C2
:10030C0020534FF44D721A6000225A601A6842F062
:10031C0040021A60704700BF001002400008014004
:10032C00074B9B6813F0020FFAD0054B1873044B64
:10033C009B6813F0010FFAD0014B187B704700BF7C
:10034C000030014008B5034B10221A61FF20FFF763
:10035C00E7FF08BD0008014038B50546002400E061
:10036C000134AC4206D2FF20FFF7DAFFFF28F7D1A9
:10037C00012000E0002038BD08B5044B10225A6162
:10038C004CF25030FFF7E8FF08BD00BF00080140F9
:10039C0010B5FFF7D7FF002403E0FF20FFF7C0FFE5
:1003AC000134092CF9D910BD38B50C46154640F06E
:1003BC004000FFF7B5FF200EFFF7B2FFC4F3074074
:1003CC00FFF7AEFFC4F30720FFF7AAFFE0B2FFF779
:1003DC00A7FF2846FFF7A4FF0024FF20092C07D80D
:1003EC00FF20FFF79DFF10F0800F01D00134F5E7DF
:1003FC0038BD70B504460D461646FFF7A3FFFFF750
:10040C00BBFF48B1324629462046FFF7CDFF0446D4
:10041C00FFF798FF204670BDFFF794FFFF24F9E724
:10042C0038B504460D46FF2200213720FFF7E1FFC7
:10043C00012800D938BDFF2229462046FFF7D9FFF5
:10044C00F8E7000070B506460D46FF2000240F4B60
:10045C009C4206D8FF20FFF763FFFF2801D101342F
:10046C00F5E7FE2810D1002404E0FF20FFF758FF29
:10047C0030550134AC42F8D3FF20FFF751FFFF2079
:10048C00FFF74EFF012070BD0020FCE79F860100A6
:10049C0070B504460D46FFF755FFFFF76DFF78B1B9
:1004AC00FF2200212046FFF77FFF01280DD81021E5
:1004BC002846FFF7C7FF064658B1FFF743FF02E097
:1004CC000646FFF73FFF304670BDFFF73BFF0026A7
:1004DC00F9E7FFF737FFF6E72DE9F04383B0054660
:1004EC00FFF730FFFFF748FF064658B3FF22002105
:1004FC003A20FFF759FF012827D8FF20FFF710FFFC
:10050C0081468DF80400FF20FFF70AFF04468DF8A2
:10051C000500FF20FFF704FF80468DF80600FF2042
:10052C00FFF7FEFE07468DF80700FFF70BFF2404CC
:10053C0044EA096444EA08243C432C60304603B086
:10054C00BDE8F083FFF7FEFEF8E7FFF7FBFE0026A1
:10055C00F4E7000070B504460D46124B1B7803B946
:10056C004402FFF7EFFEFFF707FF064678B1FF22C4
:10057C0021461120FFF718FF68B94FF40071284687
:10058C00FFF760FF064650B1FFF7DCFE01E0FFF716
:10059C00D9FE304670BDFFF7D5FE0026F9E7FFF710
:1005AC00D1FEF6E70C00002000B58646002001E0E5
:1005BC000139C9B291420FD3CB08C3F10F03DBB29F
:1005CC0001F0070C1EF8033043FA0CF303F001039F
:1005DC0043EA40009142EBD15DF804FB70B505464F
:1005EC007E227F21FFF7E0FF012802D048B10020D6
:1005FC0070BD302245212846FFF7D6FF013080021E
:10060C00F6E7502253212846FFF7CEFF06463E223E
:10061C0049212846FFF7C8FF04462F2231212846DE
:10062C00FFF7C2FF01340230844004FA06F0400A9E
:10063C00DEE700002DE9F0418AB0002400948A4BDB
:10064C001C708A4B1C60FFF7A3FE8948FFF75CFD0A
:10065C002546132D09D8952200210846FFF7C9FE1F
:10066C000446012801D00135F3E78248FFF74CFD21
:10067C002046FFF753FD8048FFF746FD012C04D0C0
:10068C00002420460AB0BDE8F081FFF75BFEFFF7BF
:10069C0073FE0446002852D087224FF4D5710820EF
:1006AC00FFF782FE0546FF20FFF73AFE80468DF8E5
:1006BC002400FF20FFF734FE07468DF82500FF20AD
:1006CC00FFF72EFE06468DF82600FF20FFF728FECA
:1006DC0004468DF82700FFF735FE6848FFF714FD38
:1006EC002846FFF71BFD6648FFF70EFD4046FFF757
:1006FC0015FD2020FFF7FEFC3846FFF70FFD2020EC
:10070C00FFF7F8FC3046FFF709FD2020FFF7F2FC5D
:10071C002046FFF703FD5848FFF7F6FC15F0040FD1
:10072C0010D00024B4F57A7F80F087800021292036
:10073C00FFF776FE054600287FD00134F2E7FFF77D
:10074C0001FE9EE70024B4F57A7F08D24FF0804179
:10075C002920FFF765FE054608B10134F3E7494847
:10076C00FFF7D2FC601CFFF7FBFC4748FFF7CCFC03
:10077C002846FFF7D3FC4048FFF7C6FC002D71D18B
:10078C006846FFF7A9FE044600283FF47AAF009BA9
:10079C00C3F38073344C23703C48FFF7B5FC0098CE
:1007AC00FFF7D5FC3A48FFF7AFFC2378002B57D066
:1007BC003848FFF7A9FC3048FFF7A6FC2A4B1C78F9
:1007CC0094B9FF224FF400711020FFF712FE05467A
:1007DC003148FFF799FC2846FFF7A0FC2648FFF7A5
:1007EC0093FC002D7FF44DAF05A90A20FFF750FEB6
:1007FC00044600283FF445AF01A90920FFF748FE45
:10080C00044600283FF43DAF01A8FFF7E7FE174D63
:10081C0028602248FFF778FC2868FFF7A1FC2048E5
:10082C00FFF772FC2868C00AFFF79AFC1248FFF722
:10083C006BFC1020FFF738FD23E71A48FFF764FC28
:10084C00601CFFF78DFC1048FFF75EFC2846FFF795
:10085C0065FC0948FFF758FC002D91D0002410E7E7
:10086C001148A6E700240CE70C000020080000202B
:10087C00841B0008941B0008A41B0008A81B00087C
:10088C00B81B0008C01B00089C1B0008F01B0008CC
:10089C00FC1B0008701B0008041C0008141C00083A
:1008AC00241C0008D81B00087C1B000830B593B032
:1008BC00234907A800F065FF04462248FFF724FCF3
:1008CC002046FFF74DFC2048FFF71EFCDCB135E05D
:1008DC001E48FFF719FC2846FFF742FC1A48FFF7A1
:1008EC0013FC2BE01A48FFF70FFC0DF10D00FFF77E
:1008FC000BFC1848FFF708FC0198FFF731FC124875
:10090C00FFF702FC01343F2C15D801A907A800F011
:10091C007CFF05460028DBD19DF80D305BB10E48FD
:10092C00FFF7F2FB9DF80C3013F0100FDAD00B48E8
:10093C00FFF7EAFBD9E707A800F05DFF13B030BD65
:10094C00341C0008381C0008A41B0008501C0008AC
:10095C00781C0008801C0008681C0008701C00082B
:10096C0070B59AB004460D4600231193012201463E
:10097C0012A800F01BFE06461E48FFF7C5FB2046DA
:10098C00FFF7C2FB1C48FFF7BFFB3046FFF7E8FB45
:10099C001A48FFF7B9FB0EB11AB070BD1848FFF733
:1009AC00B3FB2046FFF7B0FB1648FFF7ADFB0BE09F
:1009BC0004F168036B4413F8640CFFF7FDFB01347E
:1009CC00119BA342F4D8ED1A6DB111AB2A46402D00
:1009DC0028BF402201A912A800F02DFE18B9119BC6
:1009EC000BB10024ECE70548FFF78EFB12A800F0D2
:1009FC00BEFED1E7881C0008601C0008A41B000880
:100A0C00681C0008981C0008024A13680133136024
:100A1C00704700BF1000002098B908B50A4B187831
:100A2C0010F0010F00D108BDFFF704FE28B1064BF2
:100A3C0000221A70044B1878F5E7034B01221A7048
:100A4C00F8E70120704700BF0000002010B9024BEE
:100A5C001878704701207047000000202DE9F04104
:100A6C00A0B90E4617461D469BB10F4B93F800805C
:100A7C0018F0010810D10024AC4212D206EB44212C
:100A8C00E019FFF767FD50B10134F5E74FF00408AA
:100A9C0007E04FF0040804E04FF0030801E04FF0CA
:100AAC0001084046BDE8F0810000002010B5ADF50E
:100ABC000A7D00F0FBFE3F4B1B683F4AA2FB032361
:100ACC009B09013BB3F1807F0AD24FF0E0225361C6
:100ADC003A4BF02183F82310002393610723136111
:100AEC00FFF7BEFBFFF78CFBFFF7F0FB3448FFF77B
:100AFC000BFB3448FFF708FB3348FFF705FB334883
:100B0C00FFF702FB4FF47A70FFF7EAFA0120FFF7C8
:100B1C00BDFB01222E49684600F01CFD04462D4801
:100B2C00FFF7F2FA2046FFF71BFB2B48FFF7ECFA16
:100B3C003CB10020FFF7AAFB4FF47A70FFF7D0FA14
:100B4C00FAE72648FFF7E0FA9DF80000FFF708FBEC
:100B5C002348FFF7D9FABDF80A00FFF701FB21483B
:100B6C00FFF7D2FA0798FFF7FBFA1F48FFF7CCFA0A
:100B7C000898FFF7F5FA1D48FFF7C6FA0998FFF732
:100B8C00EFFA1548FFF7C0FAFFF790FEA0211848BE
:100B9C00FFF7E6FEA0211748FFF7E2FE1648FFF725
:100BAC00B3FA0020FFF772FB4FF47A70FFF798FA54
:100BBC00FAE700BF04000020D34D621000ED00E006
:100BCC00A41C0008CC1C0008F81C0008281D0008F8
:100BDC00481D00084C1D0008A41B0008601D0008DF
:100BEC00701D0008781D0008841D0008901D000869
:100BFC009C1D0008AC1D0008BC1D00084278007844
:100C0C0040EA02207047C378827842EA0322437894
:100C1C0043EA0223007840EA032070470020704723
:100C2C00002070470239C368023B8B4204D9436AE7
:100C3C00428901FB023070470020704770B50646B0
:100C4C000D4601F11A00FFF7D9FF3378032B00D0C2
:100C5C0070BD044605F11400FFF7D0FF44EA0040D4
:100C6C00F6E738B500234B7283699BB305460C46F7
:100C7C000022134606E0BCF1090F0FD0A1184B72ED
:100C8C00013263460A2B0ED803F1010CE969CB5CE7
:100C9C00202BF6D0052BEED1E523ECE7A1182E2066
:100CAC0048720132EAE7224400235372EB69DB7A83
:100CBC0003F03F032372E8691C30FFF7A4FF2060A8
:100CCC00E8691630FFF79AFFE080E8691830FFF703
:100CDC0095FFA08038BD84460168C9B10A461378D7
:100CEC000132202B01D93A2BF9D13A2B01D000201B
:100CFC0070470878A0F13003DBB2092B0BD8023116
:100D0C0091420BD1303800280BDCCCF80020704716
:100D1C004FF0FF3070474FF0FF3070474FF0FF300F
:100D2C0070474FF0FF30704738B50D46044698B108
:100D3C0003689BB11A78A2B18188DA88914203D0FA
:100D4C00092000242C6038BD5878FFF77FFE10F086
:100D5C00010009D12468F5E70920F3E71C460920B6
:100D6C00F0E709200024EDE709200024EAE738B574
:100D7C0043698B4201D1002038BD04460D46012346
:100D8C000A4600F128014078FFF768FE10B10120F7
:100D9C004FF0FF356561EFE738B50446002303716A
:100DAC004FF0FF334361FFF7E2FF00285AD104F202
:100DBC002620FFF723FF054694F82830EB2B09D0AB
:100DCC00E92B07D0E82B05D04AF655239D4247D096
:100DDC00032038BD4AF655239D4237D004F1330029
:100DEC00FFF70CFF94F83520431E1842ECD1B0F5F8
:100DFC00007FE9D3E8D8002AE6D0531E1A42E3D18B
:100E0C0004F13600FFF7FAFE0028DDD094F83830F4
:100E1C00013B012BD8D804F13900FFF7EFFE002875
:100E2C00D2D004F13B00FFF7E9FE7F2806D804F18D
:100E3C004800FFF7E8FEB0F5803FC5D304F13E0053
:100E4C00FFF7DCFE0028BFD00020C2E708220649CD
:100E5C0004F17A0000F0DCFD0028BFD10020B8E7D7
:100E6C000220B6E70420B4E7D41D000870B584B0A6
:100E7C0006460D460021FFF78FFF022816D02BD80F
:100E8C0055B300240DE006F12800230103F5E373AC
:100E9C001844FFF7B8FE04AB03EB840343F8100CC3
:100EAC000134032CEFD91DB16C1E0CE00024F8E7C3
:100EBC002C4608E03046FFF76FFF6DB901280BD9BF
:100ECC000134032C08D804AB03EB840353F8101C37
:100EDC000029EFD10320F0E704B070BD2DE9F84FE5
:100EEC000D4600230B60FFF7F6FE0028C0F2CC8005
:100EFC00784B53F82040002C00F0C8802C602378ED
:100F0C0033B16078FFF7A2FD10F0010500F0C1804D
:100F1C00002323706078FFF77FFD10F0010540F08F
:100F2C00B78000212046FFF7A1FF042800F0B48011
:100F3C00012800F2B380666904F13300FFF75EFE0E
:100F4C00B0F5007F40F0AC8004F13E00FFF756FE98
:100F5C00074620B904F14C00FFF755FE0746276100
:100F6C0094F83820E270531EDBB2012B00F29A8009
:100F7C0007FB02F894F83590A4F80A90B9F1000F29
:100F8C0000F0928009F1FF3319EA030F40F08E80D4
:100F9C0004F13900FFF732FE8246208110F00F0F6A
:100FAC0040F0868004F13B00FFF728FE834620B911
:100FBC0004F14800FFF727FE834604F13600FFF7E3
:100FCC001DFE0246002875D000EB080303EB1A1334
:100FDC009B4571D3ABEB030BBBFBF9F1CB456DD34D
:100FEC003D48814206D84FF6F570814233D84FF018
:100FFC00020B01E04FF0000B40F6F57081422DD949
:10100C00BBF1000F5CD001F10209C4F80C90A66191
:10101C003244E2611E446662BBF1030F21D0BAF187
:10102C00000F53D042442262BBF1020F29D009EBCE
:10103C00490309F0010909EB530909F2FF13B7EB56
:10104C00532F45D384F800B0244A138801339BB244
:10105C001380E3801DE04FF0030BD1E74FF0010B41
:10106C00D1E704F15200FFF7C9FD58BBBAF1000FEC
:10107C002AD104F15400FFF7C6FD20624FEA89091A
:10108C00DBE74FEA4909D8E70B2502E00C2500E025
:10109C0003252846BDE8F88F0125FAE70D25F8E76A
:1010AC000D25F6E70D25F4E70D25F2E70D25F0E704
:1010BC000D25EEE70D25ECE70D25EAE70D25E8E714
:1010CC000D25E6E70D25E4E70D25E2E70D25E0E724
:1010DC000D25DEE718000020F5FFFF0F140000209F
:1010EC00F8B50568012954D90C46EB688B4252D9E6
:1010FC002B78022B2BD0032B39D0012B4DD101EBAC
:10110C005106E96901EB56212846FFF730FE10B174
:10111C004FF0FF303EE0771CC6F308062E4496F8DD
:10112C002860E96901EB57212846FFF720FEB0BB88
:10113C00C7F308072F4497F8283046EA032014F029
:10114C00010F01D0000925E0C0F30B0022E0E96992
:10115C0001EB14212846FFF70AFE18BB05F1280005
:10116C00640004F4FF742044FFF748FD12E0E969C1
:10117C0001EBD4112846FFF7FAFDB0B905F12800B0
:10118C00A40004F4FE742044FFF73DFD20F07040F1
:10119C0000E00120F8BD0120FCE70120FAE74FF048
:1011AC00FF30F7E74FF0FF30F4E74FF0FF30F1E797
:1011BC002DE9F041D0F80080B1F5001F3FD2074671
:1011CC000E4611F01F0F3DD101618468E4B998F807
:1011DC000030022B01D9D8F82040ACB9B8F808304F
:1011EC00B3EB561F30D9D8F82030BB617C61BB699A
:1011FC0093B303EB5623BB6108F12808C6F308012F
:10120C004144F96100201BE0B8F80A506D02AE426F
:10121C000FD321463846FFF763FF0446B0F1FF3F7A
:10122C0014D0012814D9D8F80C30834212D9761B6B
:10123C00EDE721464046FFF7F5FCB861D6E7022002
:10124C00BDE8F0810220FBE70220F9E70120F7E777
:10125C000220F5E70220F3E70220F1E72DE9F04147
:10126C0004468846076805692035B5F5001F01D38B
:10127C0000238361A369002B36D0C5F308063EB961
:10128C000133A361616979B93B89B3EB551F07D968
:10129C00256107F128033344E3610020BDE8F081A8
:1012AC000023A3610420F9E77B89013B13EA552352
:1012BC00EED12046FFF714FF0146012816D9B0F1F4
:1012CC00FF3F15D0FB68834205D960613846FFF7B4
:1012DC00A9FCA061DCE7B8F1000F01D10023A361E8
:1012EC000023A3610420D9E70420D7E70220D5E727
:1012FC000120D3E770B5044606680021FFF758FFBC
:10130C00054640B1284670BD00212046FFF7A6FFD8
:10131C0005460028F6D1A1693046FFF728FD0546A1
:10132C000028EFD1E06903787BB1C37A03F03F0367
:10133C00A371C37A13F0080FE6D10B2204F120013C
:10134C0000F066FB0028DFD1DCE70425DAE7F8B50E
:10135C0004460E460568042705E000212046FFF7E9
:10136C007DFF0746E8B9A169D9B12846FFF7FFFC14
:10137C000746B0B9E3691A7892B1DB7A03F03F0300
:10138C00A371E52AE9D02E2AE7D00F2BE5D023F064
:10139C002003082B14BF00230123B342DDD100E04E
:1013AC0004270FB10023A3613846F8BD2DE9F04F97
:1013BC0083B080460191D1F8009000F1200B4FF0E2
:1013CC00203303624362C0F8273000273E464FF0BB
:1013DC00080A1AE0013519F805302F2BFAD05C2BCE
:1013EC00F8D04D44019B1D60002F66D098F820204A
:1013FC00E52A4FD0202C51D92B78202B53D80423FD
:10140C004DE008274FF00B0A2E46751C19F80640C4
:10141C00202CE6D92F2CDED05C2CDCD02E2C01D04D
:10142C00BA4508D8BAF10B0F3FD02E2CE9D00620C4
:10143C0003B0BDE8F08F14F0800F16D12046FFF7F3
:10144C00EDFBB8B1023619F805502846FFF7E8FB5A
:10145C0068B30AF1FF33BB422BD97B1C0BF8074056
:10146C000BF8035002373546CEE704F07F04144BDB
:10147C001C5DE3E72146134800F062FAD8B9A4F1E9
:10148C006103DBB2192B01D8203CE4B20BF8074006
:10149C000137B9E7052288F82020ABE7042388F848
:1014AC002B300020C4E70023F9E70620C0E7062014
:1014BC00BEE70620BCE70620BAE70620B8E700BF67
:1014CC00041E0008E01D000870B582B004460191AE
:1014DC00056801E001330193019B1A782F2AF9D09A
:1014EC005C2AF7D00022A2601B781F2B1ED901A901
:1014FC002046FFF75BFF034600BB94F82B602046A9
:10150C00FFF7F8FE0346E0B916F0040F16D1A379E5
:10151C0013F0100F1CD005F128012369C3F3080345
:10152C0019442846FFF78AFBA060E0E7802384F883
:10153C002B3011462046FFF73BFE0346184602B0FF
:10154C0070BD0428FAD116F0040FF7D10523F5E786
:10155C000523F3E710B584B0019000911446039174
:10156C0003A8FFF7B8FB00281CDB0F4B53F8203007
:10157C0023B100220C4941F820201A70019B3BB189
:10158C005870019B00221A70074B019A43F82020D7
:10159C0014B9204604B010BD002201A96846FFF71B
:1015AC009DFCF7E70B20F5E7180000202DE9F04132
:1015BC008EB0019100283CD0064602F00104224670
:1015CC0002A901A8FFF78AFC054628B10023336065
:1015DC0028460EB0BDE8F081029B3360039301995D
:1015EC0003A8FFF771FF0546E0B99DF93730002BD2
:1015FC001BDB9DF8123013F0100F18D1029FDDF891
:10160C00288041463846FFF719FBB06008F11C00F2
:10161C00FFF7F9FAF060FB88B3803474002373741D
:10162C00F3617361002DD3D0D0E70625CEE70425F6
:10163C00CCE70925CCE72DE9F04F83B005460F46E2
:10164C00144698460023C8F8003001A9FFF76CFB3C
:10165C00814600287FD195F81190B9F1000F7AD10D
:10166C002B7C13F0010F7FD0EE686B69F61AA64243
:10167C003BD3264639E0A9692846FFF731FD44E003
:10168C004FF0020985F8119065E04FF0010985F8DB
:10169C00119060E04FF0020985F811905BE04FEA81
:1016AC004B2418E0EA616C69C4F30804C4F50074B7
:1016BC00A64200D23446E9690198FFF758FB00288E
:1016CC004DD1019928316B69C3F3080322461944A3
:1016DC00384600F0CBF9361BD8F800302344C8F854
:1016EC00003027446B6923446B61002E33D06B6947
:1016FC00C3F30802002AD6D1019A5289013A12EAA0
:10170C00532A08D1002BB6D1A8680128B8D9B0F15A
:10171C00FF3FBAD0A861019CA9692046FFF782FA65
:10172C0002460028B6D052444FEA562BB6F5007F3D
:10173C00B8D30AEB0B0361898B4201D9A1EB0A0BDD
:10174C005B4639466078FFF789F90028A7D04FF03F
:10175C00010985F81190484603B0BDE8F08F4FF0B1
:10176C00010985F81190F6E74FF00709F3E710B57A
:10177C0082B0044601A9FFF7D7FA00B9206002B085
:10178C0010BD10B584B00191002832D0044600225F
:10179C0003A901A8FFF7A2FB034620B10022226097
:1017AC00184604B010BD039B236001992046FFF737
:1017BC008BFE0346A0B994F92B30002B08DBA379E0
:1017CC0013F0100F11D0E1690398FFF737FAA060FE
:1017DC00039BDB88A38000212046FFF7E9FC03462E
:1017EC00042B04D0002BDBD0D8E70523F8E7052326
:1017FC00D4E70923D4E710B582B0044601A9FFF75A
:10180C0093FA00B9206002B010BD70B582B00546E5
:10181C000C4601A9FFF788FA0646C8B99CB100210D
:10182C0061722846FFF793FD042800D0B8B9214611
:10183C002846FFF716FA00212846FFF70FFD04286B
:10184C0006D0064604E000212846FFF7B1FC064608
:10185C0014B10EB100236372304602B070BD06465F
:10186C00F6E7FEE708B500F01FF80A4B0A4A03E05A
:10187C0052F8041B43F8041B08498B42F8D3084B5D
:10188C0002E0002243F8042B064A9342F9D3FFF7F7
:10189C000DF9FEE7000000209C1E00080800002047
:1018AC00080000201C000020704700001F4B5B68E4
:1018BC0003F00C03042B11D0082B13D0002B31D1C7
:1018CC001B4B1C4A1A60194B5B68C3F303131A4A6F
:1018DC00D15C174A1368CB4013607047144B154A00
:1018EC001A60F0E7114A53685268C3F3834302331A
:1018FC0012F4803F05D1114A02FB03F30C4A13602A
:10190C00E1E70A4A526812F4003F05D00B4A02FB89
:10191C0003F3074A1360D6E7064A02FB03F3044AB3
:10192C001360D0E7024B034A1A60CCE70010024068
:10193C000400002000127A00841E000800093D00FB
:10194C0011F0FF01034600F0030239D08ABB026894
:10195C0010B501EB012E0EEB0E4E8EEA0204A2F135
:10196C00013323EA0203A4F1013222EA04021343F5
:10197C0013F0803F0FD150F8044F84EA0E0CA4F101
:10198C000133ACF1013223EA040322EA0C021343C3
:10199C0013F0803FEFD0037823B936E010F8013F05
:1019AC00002B32D09942F9D110BD8A4228D09A0727
:1019BC0029D01A7818460133002AF6D11046704700
:1019CC00CAB90268A2F1013323EA020313F0803F83
:1019DC0008D150F8042FA2F1013323EA020313F0CB
:1019EC00803FF6D003785BB110F8013F002BFBD1A0
:1019FC007047990705D0184613F8012B002AF8D127
:101A0C0070471846DDE71846A1E7184610BD00BF21
:101A1C00032A30B415D941EA0004A40784460B46C6
:101A2C0004D0541E0FE0043A032A08D91946604624
:101A3C0053F8044B5CF8045BA542F4D0F1E7604624
:101A4C001946541E7AB1431E0139021901E09A421B
:101A5C0009D013F8010F11F801CF6045F7D0A0EBB6
:101A6C000C0030BC7047002030BC7047844641EA03
:101A7C00000313F0030349D1403A23D30B680360EE
:101A8C004B6843608B688360CB68C3600B690361F0
:101A9C004B6943618B698361CB69C3610B6A0362D8
:101AAC004B6A43628B6A8362CB6AC3620B6B0363C0
:101ABC004B6B43638B6B8363CB6BC36340304031A5
:101ACC00403ADBD230320BD30B6803604B68436077
:101ADC008B688360CB68C36010301031103AF3D23E
:101AEC000C3205D351F8043B40F8043B043AF9D2CC
:101AFC00043208D0D2071CBF11F8013B00F8013B9F
:101B0C0001D30B8803806046704700BF082A13D3AB
:101B1C008B07B1D010F00303AED0C3F10403D21A7B
:101B2C00DB071CBF11F8013B00F8013BA4D331F8D3
:101B3C00023B20F8023B9FE7043AD9D3013A11F853
:101B4C00013B00F8013BF9D20B7803704B784370E2
:101B5C008B788370604670475C6E00005C7200008E
:101B6C005C780000534448432F5344584300000012
:101B7C00534453430000000073643A20434D4430F7
:101B8C002E2E2E0D0A00000073643A20434D443073
:101B9C002052313D307800000D0A000073643A2069
:101BAC00434D44382052313D307800002052373DAF
:101BBC000000000073643A2041434D4434312876D0
:101BCC00322920706F6C6C733D00000073643A20F6
:101BDC0041434D4434312876312920706F6C6C733D
:101BEC003D00000073643A204F43523D30780000B2
:101BFC0020747970653D000073643A20434D443184
:101C0C00362052313D30780073643A20736563742A
:101C1C006F72733D00000000206361706163697432
:101C2C00795F6D69623D0000303A2F006661746621
:101C3C00733A20665F6F70656E646972202D3E206A
:101C4C000000000066617466733A20665F7265611D
:101C5C0064646972202D3E20000000006661746689
:101C6C00733A2000444952202000000046494C455C
:101C7C00200000002073697A653D0000666174667F
:101C8C00733A20665F6F70656E200000207072657D
:101C9C006669783A200000000D0A73645F6661740F
:101CAC0066733A2053544D33324631303343382027
:101CBC0053504931202F205553415254310D0A00B5
:101CCC0073645F66617466733A2063757272656ED5
:101CDC007420757073747265616D204661744673FF
:101CEC002052302E31360D0A0000000073645F66FE
:101CFC00617466733A205041343D43532050413552
:101D0C003D53434B205041363D4D49534F2050419C
:101D1C00373D4D4F53490D0A0000000073645F6658
:101D2C00617466733A207374617274696E672069AA
:101D3C006E2031303030206D730D0A00303A0000C7
:101D4C0066617466733A20665F6D6F756E74202DD4
:101D5C003E20000066617466733A2066735F747986
:101D6C0070653D00206373697A653D00206661747F
:101D7C00626173653D000000206469726261736585
:101D8C003D0000002064617461626173653D000078
:101D9C00303A2F434D444C494E452E545854000074
:101DAC00303A2F434F4E4649472E545854000000AA
:101DBC0073645F66617466733A20636F6D706C65F3
:101DCC0074650D0A00000000464154333220202077
:101DDC00000000002A2B2C3A3B3C3D3E5B5D7C22F4
:101DEC003F7F000030313233343536373839414299
:101DFC004344454600000000809A45418E418F8047
:101E0C004545454949498E8F9092924F994F55556A
:101E1C0059999A9B9C9D9E9F41494F55A5A5A6A754
:101E2C00A8A9AAABACADAEAFB0B1B2B3B4B5B6B7AE
:101E3C00B8B9BABBBCBDBEBFC0C1C2C3C4C5C6C79E
:101E4C00C8C9CACBCCCDCECFD0D1D2D3D4D5D6D78E
:101E5C00D8D9DADBDCDDDEDFE0E1E2E3E4E5E6E77E
:101E6C00E8E9EAEBECEDEEEFF0F1F2F3F4F5F6F76E
:101E7C00F8F9FAFBFCFDFEFF00000000000000007A
:081E8C00010203040607080926
:081E9400E4FBFF7F01000000E8
:081E9C000100000000127A00B1
:040000050800187166
:00000001FF
