:10000000E01F001001030000510300005503000031
:1000100000000000000000000000000079D6FFEFA3
:100020000000000000000000000000005903000074
:1000300000000000000000005D03000061030000FC
:1000400065030000690300006D03000071030000F8
:1000500075030000790300007D03000081030000A8
:1000600085030000CD0D00008D030000910300000A
:1000700095030000990300009D030000A103000008
:10008000A5030000A9030000AD030000B1030000B8
:10009000AD0D0000B9030000BD030000C103000066
:1000A000C5030000C9030000CD030000D103000018
:1000B000D5030000D9030000DD030000E1030000C8
:0402FC00FFFFFFFF02
:1003000072B60B4880470B490B4A0C4B9B1A03DD16
:10031000043BC858D050FBDC09490A4A521A03DD95
:100320000020043A8850FCDC62B607488047000091
:100330008110000080110000000000100400001077
:1003400000020010201D0010F10D0000254800479C
:1003500025480047254800472548004725480047CD
:1003600025480047254800472548004725480047BD
:1003700025480047254800472548004725480047AD
:10038000254800472548004725480047254800479D
:10039000254800472548004725480047254800478D
:1003A000254800472548004725480047254800477D
:1003B000254800472548004725480047254800476D
:1003C000254800472548004725480047254800475D
:1003D000254800472548004725480047254800474D
:1003E000254800474D03000051030000550300005D
:1003F000590300005D030000610300004D0300008D
:100400004D0300004D0300004D0300004D030000AC
:100410004D0300004D0300004D0300004D0300009C
:100420004D0300004D0300004D0300004D0300008C
:100430004D0300004D0300004D0300004D0300007C
:100440004D0300004D0300004D0300004D0300006C
:100450004D0300004D0300004D0300004D0300005C
:100460004D0300004D0300004D0300004D0300004C
:100470004D0300004D0300004D030000002243081F
:100480008B4274D303098B425FD3030A8B4244D35C
:10049000030B8B4228D3030C8B420DD3FF2209029E
:1004A00012BA030C8B4202D31212090265D0030B5D
:1004B0008B4219D300E0090AC30B8B4201D3CB0353
:1004C000C01A5241830B8B4201D38B03C01A524195
:1004D000430B8B4201D34B03C01A5241030B8B4297
:1004E00001D30B03C01A5241C30A8B4201D3CB0282
:1004F000C01A5241830A8B4201D38B02C01A524167
:10050000430A8B4201D34B02C01A5241030A8B4269
:1005100001D30B02C01A5241CDD2C3098B4201D381
:10052000CB01C01A524183098B4201D38B01C01AFF
:10053000524143098B4201D34B01C01A5241030976
:100540008B4201D30B01C01A5241C3088B4201D325
:10055000CB00C01A524183088B4201D38B00C01AD2
:10056000524143088B4201D34B00C01A5241411AF9
:1005700000D20146524110467047FFE701B5002006
:1005800000F006F802BDC0460029F7D076E77047B4
:100590007047C046002B11D1002A0FD1002900D18D
:1005A000002802D00021C943080007B4024802A174
:1005B0004018029003BDC046D9FFFFFF03B4684650
:1005C00001B5029800F034F8019B9E4602B00CBCC5
:1005D0007047C046F0B5CE469946030C9C461304BE
:1005E00047461B0C1D000E0061460404240C80B518
:1005F0000700100C4B436543414360432C0CC0186B
:1006000024188C46A34203D980235B029846C44435
:10061000494679435643230C2D042D0C8919634414
:1006200024046019C918C0BCB946B046F0BDC04624
:10063000F0B557464E464546DE46E0B504000D008F
:100640009246994683B08B4230D82DD049465046C9
:1006500000F0BAF829000600200000F0B5F8331ABF
:100660009846203B34D49B4653465A4693404246D4
:100670001F00534693401E00AF423BD8AF4200D10B
:1006800079E05B46A41BBD41002B00DA76E0002236
:1006900000230092019301235A46934001930123C2
:1006A00042469340009329E08242CFD900220023A2
:1006B000009201930C9B002B01D01C605D600098A0
:1006C000019903B0F0BCBB46B246A946A046F0BDB6
:1006D00042469B4620239B1A5246DA40414613006D
:1006E0004A468A40170042461F43534693401E0025
:1006F000AF42C3D900220023009201934346002B4E
:10070000D8D0FB0772081A4346467B080EE0AB427E
:1007100001D1A2420CD8A41A9D41012024196D4197
:100720000021013E24184D41002E06D0AB42EED9E7
:10073000013E24196D41002EF8D1009801995B46C5
:1007400000196941002B24DB2B005A464646D34052
:100750002A001C00F2405B461500002B2ADB260015
:100760009E40330026004746BE403200801A994121
:10077000009001919EE7A342BCD882E74246202325
:1007800000219B1A0022009101920122DA4001927D
:1007900085E7424620239B1A2A0046469A402300BA
:1007A000F340464613432A001C00F2405B46150006
:1007B000002BD4DA202342462F009B1B97402600B3
:1007C000DE403B003343CDE710B5002903D100F0F4
:1007D00007F8203002E0080000F002F810BDC04623
:1007E0001C2101231B04984201D3000C10391B0A61
:1007F000984201D3000A08391B09984201D3000925
:10080000043902A2105C40187047C046040302027B
:1008100001010101000000000000000010B50023EC
:1008200009E0A02212068021C9018824A4011151E7
:100830008034115101338342F3D310BD034A13684E
:100840001B0C1B0404210B431360704700C00040C5
:100850000749CA690B6A1202120AF0200005024316
:10086000CA61FF229343F63A13430B627047C046B6
:1008700000C000400349E02252008B580248034068
:100880008B50704700C00040FFFFFEFFF0B5DE4612
:1008900057464E464546E0B591B00B90574B9422D3
:1008A000012199505C32FE319950002399460F93F3
:1008B0000E93013B0D930C9339E001230693002323
:1008C000069A58460021FFF785FE020F0B011343DD
:1008D0000201D90750080290084302905908039179
:1008E0000298039980197941FFF754FE049005910D
:1008F000049A059BAB4202D863D1A24261D9049A03
:10090000059B121BAB410C99994203D80CD10D9950
:10091000914209D9069901390E911100194359D014
:1009200049460F910D920C9301239C46E1444B469E
:10093000FF2B4DD8324B1B681F0E1E0280235B001D
:100940004B449B460B9C002522002B00584600215F
:10095000FFF740FE030F0A011A43904603019A462F
:10096000130052461343DFD04346DB075208009280
:100970001A43009243465B080193009A019B921927
:100980007B41100019005246434608900991FFF739
:1009900001FE0B0006900899099A90458DD801D167
:1009A0008A458AD8002B07D100D089E780225202DD
:1009B0000699914200D883E780235B0206930023C7
:1009C0007EE722002B0004980599121A8B419AE7C2
:1009D0000F9B99460B4A0F239362F03349460B4015
:1009E0000648F42143500E9B1B041B0C136211B0EC
:1009F000F0BCBB46B246A946A046F0BD008004400C
:100A0000000000100040064010B50F4B80215858E0
:100A10008122D20102435A505A6874398A435A607B
:100A20005A680A435A60FFF709FF084C0423236001
:100A300000236360E1208002FFF728FF2368012282
:100A40001343236010BDC0460080044000400640B0
:100A5000034B9B685B07FBD5014BD8617047C046D1
:100A60000040064010B5040002E00134FFF7F0FF3B
:100A700020780028F9D110BD024A536804210B43A5
:100A80005360704700400050024A536804218B4372
:100A9000536070470040005010B5134B8020195828
:100AA0008022520011431950596810480140596082
:100AB00059680A435A60FFF7DFFF0D4B5A68082157
:100AC0000A435A605A688A435A600A4A1A600022E6
:100AD000DA645A6507399965F3310120404258506C
:100AE00004395A5010BDC04600800440FFFEFFFF8D
:100AF00000400050010002000F230B4080214901FB
:100B000019436030C000034BC3185960014B0122E8
:100B1000C250704700400050044A030040339B001D
:100B200099508030800081507047C046004000508E
:100B300010B5194B18681949FFF7A0FC0400FFF71E
:100B4000ABFFFFF785FE00210020FFF7D5FF022154
:100B50000220FFF7D1FF21000220FFF7DDFF610037
:100B60000020FFF7D9FF0E4B0122A021C9005A50E7
:100B700004210C481950043019500B495A50F421E3
:100B800001204042585004395A50084B80229200AC
:100B900090315A501A6010BD0000001080380100DA
:100BA00000400050040500000C05000000E100E0DA
:100BB00010B5154B18681549FFF760FC0400FFF7E6
:100BC0006BFF00210020FFF797FF02210220FFF7B3
:100BD00093FF21000220FFF79FFF61000020FFF735
:100BE0009BFF0B4BA322D20001219950094A0331EC
:100BF0009950094A8023FD31FF31D150BFF34F8F07
:100C0000BFF36F8F10BDC0460000001040420F00C0
:100C1000004000501C05000000E100E00138030422
:100C20000648034006481843002901D005481843E8
:100C3000002A01D0102318437047C0460000FF036C
:100C40000141000003410000F0B5C64600B52A4B43
:100C5000802019588022920511431950596827485D
:100C60000140596059680A435A608025ED0001220D
:100C700000212800FFF7D2FF214F3860214B984612
:100C80007B60214CBC600026FE600122012128000F
:100C9000FFF7C4FF1D4B186042465A601C4AA21859
:100CA0009A60DF601B49086042464A601A4A9446CF
:100CB00064448C60CB60194B01221A60480A4002E0
:100CC00098609A629A679A651A661A649A645220C2
:100CD000585108688121C900585011490E609A6620
:100CE0001A62104B80225203C02149005A501A60E8
:100CF00080BCB846F0BDC04600800440FFFFFFDF67
:100D0000101A00102CC00140061A0010201A001002
:100D100000F8FFFF001C001000F0FFFF00800050F3
:100D20000080024000E100E010B51A4B80215858C5
:100D3000194A02435A505A6818490A405A60596879
:100D4000802252040A435A608D2189005A5810208B
:100D500082435A5004315A5882435A50104A536EB3
:100D600018218B435366FFF785FD0E4B00221A6056
:100D700019688022D2050A431A600A4B1B685B007F
:100D8000FBD4084B084A9A6001225A66023A9A66D6
:100D900010BDC0460080044080000401FFFFFFFE3C
:100DA0000040044000C00140083000C010B50820D9
:100DB000FFF734FD034B01229A65034A13680133A0
:100DC000136010BD008000500402001010B5064AE8
:100DD0001368013313600120FFF720FD034AF42359
:100DE0000121D15010BDC04600020010004000504B
:100DF000F8B500F0A5F83E4980228B584020034307
:100E00008B50A0231B068E2292018021C90199508C
:100E1000802109029950C130FF309850013AFF3AC1
:100E20009950FFF7F1FD3348FFF71CFEFFF77CFFF9
:100E30003148FFF717FE4DE030BF304B1B68002BE9
:100E4000FAD0FFF719FE2E48FFF70CFE2D48FFF7EA
:100E500009FEFFF7F9FEFFF7ABFE2B4B00221A60ED
:100E6000FFF712FE00E030BF274B1B68022BFAD9B8
:100E7000FFF702FE2548FFF7F5FD002205E0244BB1
:100E80005000C15A0909C1520132C0231B019A42C4
:100E9000F5D35720FFF7DCFD2020FFF7D9FD002513
:100EA0000EE01B4E6F00B85B80093F2420403F30AE
:100EB000FFF7CEFDB85B20403F30FFF7C9FD01359D
:100EC000C0231B019D42ECD30D20FFF7C1FD0A207A
:100ED000FFF7BEFD0F48FFF7C5FDFFF729FE074BE3
:100EE00000221A600220FFF799FCFFF7CDFDA4E76E
:100EF00000800440A4100000B810000000020010A0
:100F0000EC10000008110000040200102011000085
:100F100008020010D4100000044B1A6C0323134085
:100F2000032B01D0024870470020FCE700800440FA
:100F3000001BB7001F2303400133594308007047CB
:100F400010B53B4B5A6A52090F2313400F2B03D89D
:100F50009B00384AD3589F46002000E03648344C66
:100F6000636A1F21194001314900FFF787FA226F98
:100F700003231340022B4CD02DD8002B39D0012B4A
:100F800051D12B4B1A6C03231340012B35D0032B6B
:100F900037D0002B39D1294B294A1A603BE0294828
:100FA000DDE72948DBE72948D9E72948D7E7294879
:100FB000D5E72948D3E72948D1E72948CFE7294889
:100FC000CDE72948CBE72948C9E72948C7E7294899
:100FD000C5E72948C3E7032B25D1154B9C68FFF7CC
:100FE0009BFF01001F202040FFF7A4FF134B186058
:100FF00011E0124B124A1A600DE0104B104A1A60B1
:1010000009E00E4B00221A6005E00C4B0C4A1A60F6
:1010100001E00A4B1860064B996F084C2068FFF7F7
:101020002DFA206010BD054B00221A60F3E7C04680
:1010300000800440381100009005100000000010EE
:10104000001BB700C05C1500F0B31A00200B200095
:10105000009F2400E0322900C0C62D0050973100C7
:10106000E06735007038390000093D004016400047
:1010700080234300C0304600C027090070470000AD
:1010800010B5044B044A9360044B054A1A60FFF7FD
:10109000F5FF10BD0000000000ED00E000000010B2
:1010A000001BB700756C747261736F6E69633A20D0
:1010B000626F6F740D0A0000756C747261736F6EED
:1010C00069633A206164632D696E69742D646F6E83
:1010D000650D0A00756C747261736F6E69633A20F6
:1010E00074782D62757273740D0A0000756C7472D9
:1010F00061736F6E69633A2074782D6275727374D0
:101100002D646F6E650D0A00756C747261736F6E7D
:1011100069633A20646D612D73746172740D0A0005
:10112000756C747261736F6E69633A20646D612DC2
:10113000646F6E650D0A0000580F0000D20F0000AA
:101140005C0F00009E0F0000A20F0000A60F000021
:10115000AA0F0000AE0F0000B20F0000B60F000093
:10116000BA0F0000BE0F0000C20F0000C60F000043
:08117000CA0F0000CE0F0000C1
:08117800B8F4FF7F0100000044
:04118000001BB70099
:0400000300000301F5
:00000001FF
