:10000000E01F001001030000510300005503000031
:1000100000000000000000000000000079D6FFEFA3
:100020000000000000000000000000005903000074
:1000300000000000000000005D03000061030000FC
:1000400065030000690300006D03000071030000F8
:1000500075030000790300007D03000081030000A8
:1000600085030000B51A00008D0300009103000015
:1000700095030000990300009D030000A103000008
:10008000A5030000A9030000AD030000B1030000B8
:10009000951A0000B9030000BD030000C103000071
:1000A000C5030000C9030000CD030000D103000018
:1000B000D5030000D9030000DD030000E1030000C8
:0402FC00FFFFFFFF02
:1003000072B60B4880470B490B4A0C4B9B1A03DD16
:10031000043BC858D050FBDC09490A4A521A03DD95
:100320000020043A8850FCDC62B607488047000091
:10033000DD1C0000601F0000000000102000001005
:1003400000020010201D0010D91A000025480047A7
:1003500025480047254800472548004725480047CD
:1003600025480047254800472548004725480047BD
:1003700025480047254800472548004725480047AD
:10038000254800472548004725480047254800479D
:10039000254800472548004725480047254800478D
:1003A000254800472548004725480047254800477D
:1003B000254800472548004725480047254800476D
:1003C000254800472548004725480047254800475D
:1003D000254800472548004725480047254800474D
:1003E000254800474D03000051030000550300005D
:1003F000590300005D030000610300004D0300008D
:100400004D0300004D0300004D0300004D030000AC
:100410004D0300004D0300004D0300004D0300009C
:100420004D0300004D0300004D0300004D0300008C
:100430004D0300004D0300004D0300004D0300007C
:100440004D0300004D0300004D0300004D0300006C
:100450004D0300004D0300004D0300004D0300005C
:100460004D0300004D0300004D0300004D0300004C
:100470004D0300004D0300004D030000002243081F
:100480008B4274D303098B425FD3030A8B4244D35C
:10049000030B8B4228D3030C8B420DD3FF2209029E
:1004A00012BA030C8B4202D31212090265D0030B5D
:1004B0008B4219D300E0090AC30B8B4201D3CB0353
:1004C000C01A5241830B8B4201D38B03C01A524195
:1004D000430B8B4201D34B03C01A5241030B8B4297
:1004E00001D30B03C01A5241C30A8B4201D3CB0282
:1004F000C01A5241830A8B4201D38B02C01A524167
:10050000430A8B4201D34B02C01A5241030A8B4269
:1005100001D30B02C01A5241CDD2C3098B4201D381
:10052000CB01C01A524183098B4201D38B01C01AFF
:10053000524143098B4201D34B01C01A5241030976
:100540008B4201D30B01C01A5241C3088B4201D325
:10055000CB00C01A524183088B4201D38B00C01AD2
:10056000524143088B4201D34B00C01A5241411AF9
:1005700000D20146524110467047FFE701B5002006
:1005800000F006F802BDC0460029F7D076E77047B4
:100590007047C046002B11D1002A0FD1002900D18D
:1005A000002802D00021C943080007B4024802A174
:1005B0004018029003BDC046D9FFFFFF03B4684650
:1005C00001B5029800F034F8019B9E4602B00CBCC5
:1005D0007047C046F0B5CE469946030C9C461304BE
:1005E00047461B0C1D000E0061460404240C80B518
:1005F0000700100C4B436543414360432C0CC0186B
:1006000024188C46A34203D980235B029846C44435
:10061000494679435643230C2D042D0C8919634414
:1006200024046019C918C0BCB946B046F0BDC04624
:10063000F0B557464E464546DE46E0B504000D008F
:100640009246994683B08B4230D82DD049465046C9
:1006500000F0BAF829000600200000F0B5F8331ABF
:100660009846203B34D49B4653465A4693404246D4
:100670001F00534693401E00AF423BD8AF4200D10B
:1006800079E05B46A41BBD41002B00DA76E0002236
:1006900000230092019301235A46934001930123C2
:1006A00042469340009329E08242CFD900220023A2
:1006B000009201930C9B002B01D01C605D600098A0
:1006C000019903B0F0BCBB46B246A946A046F0BDB6
:1006D00042469B4620239B1A5246DA40414613006D
:1006E0004A468A40170042461F43534693401E0025
:1006F000AF42C3D900220023009201934346002B4E
:10070000D8D0FB0772081A4346467B080EE0AB427E
:1007100001D1A2420CD8A41A9D41012024196D4197
:100720000021013E24184D41002E06D0AB42EED9E7
:10073000013E24196D41002EF8D1009801995B46C5
:1007400000196941002B24DB2B005A464646D34052
:100750002A001C00F2405B461500002B2ADB260015
:100760009E40330026004746BE403200801A994121
:10077000009001919EE7A342BCD882E74246202325
:1007800000219B1A0022009101920122DA4001927D
:1007900085E7424620239B1A2A0046469A402300BA
:1007A000F340464613432A001C00F2405B46150006
:1007B000002BD4DA202342462F009B1B97402600B3
:1007C000DE403B003343CDE710B5002903D100F0F4
:1007D00007F8203002E0080000F002F810BDC04623
:1007E0001C2101231B04984201D3000C10391B0A61
:1007F000984201D3000A08391B09984201D3000925
:10080000043902A2105C40187047C046040302027B
:1008100001010101000000000000000010B5830785
:100820000AD00300032102E001330B4205D01A78FD
:10083000002AF9D1181A10BD030019680C4A0D4C92
:100840008A188A4322420FD15968094A04338A1808
:100850008A43224208D15968054A04338A188A43D8
:100860002242F1D000E001331A78002AFBD1E1E7FF
:10087000FFFEFEFE8080808030B5002A26D0030077
:100880000B439B0724D1032A22D9164D0BE0043ACF
:10089000002A1BD0144C1C199C432C4216D1043046
:1008A0000431032A14D903680C68A342EFD00478FA
:1008B0000D78A54213D1012306E0C45CCD5CAC42A7
:1008C0000DD101339A4201D0002CF6D1002030BD69
:1008D00004780D78AC4202D1012AECD1F6E7601B16
:1008E000F5E7C04680808080FFFEFEFEF0B5050083
:1008F0000F2A31D903273E000D430C0003002E4080
:100900002F4234D11500103D2D09AC462F013F1860
:1009100065685D60A5689D60E568DD6025681034E8
:100920001D601D001033BD42F2D165460F230C241B
:1009300001352D0149191340451914421AD0043BC1
:100940009B0801339B008C59AC5104369E42FAD16E
:100950000323AD1989191A40561E002A06D0002318
:10096000CC5C1A00EC5401339642F9D1F0BD05007D
:10097000561EF4E71A00EFE7024670B50A439207E5
:100980002AD11E4DEE0104C808C9541B94433440BB
:1009900017D0D0B2D9B2401A2106014310D190B27B
:1009A00099B2401A210401430AD110021902000A27
:1009B000090A401A2102014302D1100E190E401AF1
:1009C00070BD9A42DFD010BA19BA884201D901200D
:1009D00070BD0020C04370BD02780B78013001313A
:1009E000002A09D09A4207D102780B7801300131F0
:1009F000002A01D09A42EFD0D01A70BD0101010146
:100A000010B5002309E0A02212068021C901882424
:100A1000A40111518034115101338342F3D310BD2D
:100A2000012805D0022805D0002805D1034802E09E
:100A3000034800E0034870470348FCE7001D00003E
:100A4000081D0000101D00001C1D0000012805D01D
:100A5000022805D0002805D1034802E0034800E041
:100A6000034870470348FCE7241D00002C1D0000CC
:100A7000341D00001C1D000010B50378002B12D09F
:100A800000220478002C0BD001302300303BDBB275
:100A9000092B0AD893009B185B00E218303AF0E764
:100AA0000A60012000E0002010BD0020FCE70000EB
:100AB000034A13681B0C1B0404210B43136070478B
:100AC00000C000400749CA690B6A1202120AF020EE
:100AD00000050243CA61FF229343F63A13430B62B7
:100AE0007047C04600C000400349E02252008B58C6
:100AF000024803408B50704700C00040FFFFFEFFDC
:100B0000F0B5DE4657464E464546E0B591B00B90EF
:100B1000574B9422012199505C32FE3199500023A9
:100B200099460F930E93013B0D930C9339E00123EB
:100B300006930023069A58460021FFF74BFD020F4B
:100B40000B0113430201D907500802900843029099
:100B5000590803910298039980197941FFF71AFD0A
:100B600004900591049A059BAB4202D863D1A2423E
:100B700061D9049A059B121BAB410C99994203D889
:100B80000CD10D99914209D9069901390E911100A4
:100B9000194359D049460F910D920C9301239C465D
:100BA000E1444B46FF2B4DD8324B1B681F0E1E02F3
:100BB00080235B004B449B460B9C002522002B00AE
:100BC00058460021FFF706FD030F0A011A4390461D
:100BD00003019A46130052461343DFD04346DB0716
:100BE000520800921A43009243465B080193009A10
:100BF000019B92197B411000190052464346089010
:100C00000991FFF7C7FC0B0006900899099A9045D7
:100C10008DD801D18A458AD8002B07D100D089E729
:100C2000802252020699914200D883E780235B021A
:100C3000069300237EE722002B0004980599121AE0
:100C40008B419AE70F9B99460B4A0F239362F0332F
:100C500049460B400648F42143500E9B1B041B0CD5
:100C6000136211B0F0BCBB46B246A946A046F0BD27
:100C7000008004401C0000100040064010B50F4BDF
:100C8000802158588122D20102435A505A6874393F
:100C90008A435A605A680A435A60FFF709FF084CB2
:100CA0000423236000236360E1208002FFF728FF14
:100CB000236801221343236010BDC0460080044016
:100CC00000400640024B9B68012018407047C04618
:100CD00000400640014B5869C0B2704700400640D2
:100CE000064B1B78002B05D1054B1B68002B03D04E
:100CF000012000E0012070470020FCE70000001008
:100D0000CC020010024A536804210B435360704721
:100D100000400050024A536804218B4353607047DF
:100D20000040005010B5134B80201958802252000B
:100D300011431950596810480140596059680A43D5
:100D40005A60FFF7DFFF0D4B5A6808210A435A60CB
:100D50005A688A435A600A4A1A600022DA645A655D
:100D600007399965F33101204042585004395A50EF
:100D700010BDC04600800440FFFEFFFF0040005051
:100D8000010002000F230B4080214901194360300C
:100D9000C000034BC3185960014B0122C250704779
:100DA00000400050044A030040339B0099508030BB
:100DB000800081507047C0460040005010B51A4B6B
:100DC00018681A4B99684900FFF758FB0400FFF7B1
:100DD000A9FFFFF777FE00210020FFF7D3FF0221D4
:100DE0000220FFF7CFFF21000220FFF7DBFF6100A9
:100DF0000020FFF7D7FF0E4B0122A021C9005A5057
:100E000004210C481950043019500B495A50F42150
:100E100001204042585004395A50084B8022920019
:100E200090315A501A6010BD1C00001004000010D0
:100E300000400050040500000C05000000E100E047
:100E400010B5164B1868164B19694900FFF716FBC9
:100E50000400FFF767FF00210020FFF793FF022146
:100E60000220FFF78FFF21000220FFF79BFF6100A8
:100E70000020FFF797FF0B4BA322D20001219950CE
:100E8000094A03319950094A8023FD31FF31D1507D
:100E9000BFF34F8FBFF36F8F10BDC0461C00001013
:100EA00004000010004000501C05000000E100E0BC
:100EB000013803040648034006481843002901D0BE
:100EC00005481843002A01D0102318437047C04634
:100ED0000000FF030141000003410000F0B5C646D9
:100EE00000B52A4B802019588022920511431950D1
:100EF000596827480140596059680A435A6080255B
:100F0000ED00012200212800FFF7D2FF214F3860B9
:100F1000214B98467B60214CBC600026FE6001227C
:100F200001212800FFF7C4FF1D4B186042465A609C
:100F30001C4AA2189A60DF601B49086042464A605A
:100F40001A4A944664448C60CB60194B01221A60A3
:100F5000480A400298609A629A679A651A661A640B
:100F60009A645220585108688121C900585011498B
:100F70000E609A661A62104B80225203C02149000B
:100F80005A501A6080BCB846F0BDC046008004408C
:100F9000FFFFFFDFE01A00102CC00140D61A00103E
:100FA000F01A001000F8FFFF001C001000F0FFFF17
:100FB000008000500080024000E100E010B51A4BB4
:100FC00080215858194A02435A505A6818490A4011
:100FD0005A605968802252040A435A608D21890060
:100FE0005A58102082435A5004315A5882435A505A
:100FF000104A536E18218B435366FFF775FD0E4B55
:1010000000221A6019688022D2050A431A600A4B2E
:101010001B685B00FBD4084B084A9A6001225A66A1
:10102000023A9A6610BDC046008004408000040168
:10103000FFFFFFFE0040044000C00140083000C038
:1010400009024840002304E0400082B205485040B5
:101050000133072B05D802B2002AF5DB400080B22D
:10106000F6E770472110000030B5074B074A100023
:1010700034C834C319001CC81CC1054B00221A70A7
:10108000044B1A6030BDC04604000010001F000071
:1010900000000010CC02001010B5144B1B78002B80
:1010A00011D1134B1A68002A0CD0124B002199540D
:1010B000114B1B78002B0FD0104B01221A700C4BD8
:1010C00000221A6010BD0E4B01221A70074B00223D
:1010D0001A70074B1A60F5E701320A480549FFF715
:1010E00005FC054B01221A70E9E7C0460302001017
:1010F000040200106802001002020010000200103A
:10110000010200100802001010B506E0FFF7C4FF4E
:1011100003E00C490A600C4AD054FFF7D3FD0028C5
:101120000ED0FFF7D7FD0D28F7D00A28EED0054BDB
:101130001B685A1C5F2AECD9044B01221A70ECE799
:1011400010BDC04604020010680200100302001027
:1011500010B5040001E0FFF7D7FF044B9B685B0765
:10116000F9D5024BDC61FFF7CFFF10BD0040064010
:1011700070B584B0051E01D0002411E03020FFF7C7
:10118000E7FF17E00A212800FFF7FEF9661C30315F
:1011900001AB19550A212800FFF770F9050034004A
:1011A000002DEFD104E0013C01AB185DFFF7D0FF4B
:1011B000002CF8D104B070BD10B5040002E0013479
:1011C000FFF7C6FF20780028F9D110BD10B50D201B
:1011D000FFF7BEFF0A20FFF7BBFF10BD10B50648A2
:1011E000FFF7EAFF0120FFF7C3FF0448FFF7E4FF22
:1011F000FFF7ECFF10BDC046381D0000481D000081
:1012000010B51948FFF7D8FF184C2078FFF708FCF5
:10121000FFF7D2FF1648FFF7CFFF6068FFF7A8FF80
:101220001448FFF7C9FF6078FFF710FCFFF7C4FF11
:101230001148FFF7C1FFA068FFF79AFF0F48FFF7BB
:10124000BBFFE068FFF794FF0D48FFF7B5FF20698B
:10125000FFF78EFF0B48FFF7AFFF6069FFF788FFCE
:10126000FFF7B4FF10BDC0466C1D00000400001065
:10127000781D0000801D0000881D0000941D0000E6
:10128000A01D0000A81D000010B50348FFF794FF43
:10129000FFF79CFF10BDC046B41D000010B5034809
:1012A000FFF78AFFFFF792FF10BDC046C41D000084
:1012B00010B504000448FFF77FFF2000FFF758FF38
:1012C000FFF784FF10BDC046C81D000070B50600C2
:1012D0000D00002403E0305DFFF73AFF0134AC421B
:1012E000F9D370BD10B504000848FFF765FF002C66
:1012F00002D02378002B02D1FFF768FF10BD3A20FF
:10130000FFF726FF2000FFF757FFF5E7D81D000085
:1013100070B505000C002B20FFF71AFF2800FFF71F
:101320004BFF0448FFF748FF2000FFF745FFFFF79A
:101330004DFF70BDE01D000070B505000C002B20B6
:10134000FFF706FF2800FFF737FF0448FFF734FFD9
:101350002000FFF70DFFFFF739FF70BDE01D000013
:1013600010B5FFF72BFD1A4B00221A600220FFF781
:1013700047FBFFF7CFFC02E0FFF7C6FE30BF154B7F
:10138000DA68134B1B689A42F6D8FFF7BBFCFFF7ED
:10139000A5FDFFF755FD104B00221A60FFF7BAFCC0
:1013A00002E0FFF7B1FE30BF0B4B1B68022BF8D9F0
:1013B000FFF7A8FC002205E0084B5000C15A0909BC
:1013C000C1520132C0231B019A42F5D310BDC04661
:1013D000D002001004000010D4020010D802001047
:1013E000F8B55720FFF7B4FE2020FFF7B1FE002527
:1013F0000EE00D4E6F00B85B80093F2420403F3067
:10140000FFF7A6FEB85B20403F30FFF7A1FE013595
:10141000C0231B019D4204D2EB06EAD1FFF774FE04
:10142000E7E7FFF7D3FEF8BDD802001010B5164865
:10143000FFF7C2FE154B1868FFF79AFE1448FFF736
:10144000BBFEC0200001FFF793FE2020FFF780FEC7
:1014500000240CE00F4B6200D05AFFF789FE0134E4
:10146000C0231B019C4202D22C20FFF771FEC02337
:101470001B019C4204D2E306ECD1FFF745FEE9E7ED
:10148000FFF7A4FE10BDC046E41D0000C802001016
:10149000EC1D0000D802001070B584B001A85523DF
:1014A000037002334370563B8370C3702A4B1B6832
:1014B00003711A0A42711A0C82711B0EC371002348
:1014C00003720C22427283721233C3720C21FFF733
:1014D000FDFE0024214E06E001AB195D3000FFF750
:1014E000AFFD060001340B2CF6D9002521E01C4A83
:1014F0006B009B5A1B051B0D691C49008A5A12057B
:101500006C4623701B0A110CC9B20B436370120E98
:10151000A27003216846FFF7D9FE21783000FFF75B
:101520008FFD6178FFF78CFDA178FFF789FD06003C
:101530000235C0231B019D4204D2AB06D7D1FFF771
:10154000E3FDD4E7F0B2FFF703FE300AC0B2FFF7C5
:10155000FFFD04B070BDC046C8020010FFFF0000D0
:10156000D802001010B50C4A1368013313600B4BFE
:101570005B78012B06D0022B07D0002B08D1FFF798
:101580002FFF10BDFFF752FFFBE7FFF785FFF8E7DE
:101590000348FFF7A7FEF4E7C8020010040000109C
:1015A000F41D000070B505000C000800FFF736F9C7
:1015B000020021002800FFF75FF943425841C0B202
:1015C00070BD10B5FFF7D8F943425841C0B210BD05
:1015D00010B582B00400BC49FFF7F3FF002832D1F8
:1015E000BA492000FFF7EDFF002830D1B8492000AC
:1015F000FFF7E7FF00282FD1B6492000FFF7E1FFF2
:1016000000282ED1B4492000FFF7CCFF002846D097
:10161000FFF766FB002830D10734B0492000FFF700
:10162000D0FF00282DD1AE492000FFF7CAFF0028C7
:101630002DD1AC492000FFF7C4FF00282BD0AA4BC6
:1016400002221A7020E0FFF729FE02B010BDFFF75A
:10165000C5FDFFF723FEF8E7FFF7D2FDFFF71EFEFB
:10166000F3E7A14B1878FFF7DBF901009F4B180057
:10167000FFF74EFEFFF712FEE7E79D48FFF732FE49
:10168000E3E7994B00221A70FFF708FEDDE7964B5F
:1016900001221A70F8E79748FFF724FED5E796492C
:1016A0002000FFF78EFF002817D194492000FFF794
:1016B00079FF002822D0FFF713FB002815D1200066
:1016C000083001A9FFF7D8F9002802D0019B002BB0
:1016D0000FD18848FFF706FEB7E7834B596880486B
:1016E000FFF72AFEFFF7DAFDAFE78148FFF7FAFDC3
:1016F000ABE77D4A5360FFF7D1FDA6E780492000A4
:10170000FFF75FFF002820D17E492000FFF74AFF46
:10171000002838D0FFF7E4FA002822D106347A49AD
:101720002000FFF74EFF00281FD178492000FFF767
:1017300048FF00281FD176492000FFF742FF00280C
:101740001DD0694B02225A7012E0674B5878FFF7A0
:101750007DF901006F4B1800FFF7DAFDFFF79EFDE2
:1017600073E76348FFF7BEFD6FE75F4B00225A70D7
:10177000FFF794FD69E75C4B01225A70F8E75D487A
:10178000FFF7B0FD61E764492000FFF71AFF00286A
:101790001AD162492000FFF705FF002829D0FFF782
:1017A0009FFA002818D12000093001A9FFF764F939
:1017B000002815D0019B5A4A99185A4A914213D9C8
:1017C0005948FFF78FFD40E7474B99685748FFF7A7
:1017D000B3FDFFF763FD38E74548FFF783FD34E7C6
:1017E0004448FFF77FFD30E73F4A9360FFF756FD1F
:1017F0002BE74F492000FFF7E4FE002818D14D49A0
:101800002000FFF7CFFE002827D0FFF769FA002855
:1018100016D120000B3001A9FFF72EF9002813D0B4
:10182000019B5A1EFE2A13D93F48FFF75BFD0CE7C8
:101830002D4BD9684048FFF77FFDFFF72FFD04E7E8
:101840002B48FFF74FFD00E72A48FFF74BFDFCE66A
:10185000254AD360FFF722FDF7E638492000FFF75D
:10186000B0FE00281AD136492000FFF79BFE002861
:101870006ED0FFF735FA002818D12000083001A9F2
:10188000FFF7FAF8002815D0019B2E4A99182E4A26
:10189000914213D92448FFF725FDD6E6124B19696A
:1018A0002A48FFF749FDFFF7F9FCCEE61048FFF79D
:1018B00019FDCAE60F48FFF715FDC6E60A4A13618F
:1018C000FFF7ECFCC1E6C046F81D0000FC1D00005F
:1018D000001E0000081E0000181E0000001D000071
:1018E000081D0000101D000004000010101E000064
:1018F000201E0000281E0000301E00003C1E0000BC
:10190000481E0000541E0000241D00002C1D000075
:10191000341D0000501E00005C1E0000701E000000
:1019200018FCFFFFB88201007C1E0000681E00004A
:10193000841E00009C1E0000901E0000A81E0000D7
:10194000BC1E0000F0D8FFFF301B0F00B41E0000CB
:101950002D492000FFF735FE002817D12B49200024
:10196000FFF72FFE00282AD0FFF7BAF9002815D17B
:10197000274B1B78012B15D0022B18D0002B1AD126
:10198000244B01221A60FFF789FC5EE6204B2248B7
:101990005969FFF7D1FCFFF781FC56E61F48FFF7B6
:1019A000A1FC52E61A4B5A681A4B1A60EBE71C4B23
:1019B00001221A70E7E71B48FFF794FC45E61A4935
:1019C0002000FFF7FEFD00280DD118492000FFF789
:1019D000F8FD002814D0FFF783F900280BD00F483A
:1019E000FFF780FC31E60E4B00221A70094B1A609B
:1019F000FFF74AFC29E6FFF737FBFFF74FFC24E629
:101A00000B48FFF76FFC20E6C81E0000DC1E00003C
:101A100004000010CC020010D41E0000201E0000A4
:101A200000000010101E0000E41E0000EC1E00006C
:101A30001C1D000010B5114B1B78002B08D1104B5A
:101A40001B78002B0BD10F4B1B78002B0ED110BD38
:101A50000A4B00221A700C48FFF744FCEFE7084BD2
:101A600000221A700948FFF73DFCECE7054B002205
:101A70001A700748FFF7ACFDE9E7C0460102001005
:101A80000002001002020010F81E0000201E0000DC
:101A90000802001010B50820FEF7B2FF034B012228
:101AA0009A65034A13680133136010BD008000502B
:101AB000D402001010B5064A1368013313600120E8
:101AC000FEF79EFF034AF4230121D15010BDC0460A
:101AD000D00200100040005010B500F05FF822491D
:101AE00080228B58402003438B50A0231B068E225C
:101AF00092018021C9019950802109029950C13079
:101B0000FF309850013AFF3A9950FFF7B7F8FFF7C6
:101B100055FAFFF763FBFFF773FB02E00120FFF7C5
:101B2000C7FBFFF7F1FAFFF785FFFFF7D9F80028A9
:101B3000F7D0FFF715FCFFF715FDFFF7E5FAFFF704
:101B400079FF0A4B1B68002BEBD0013B074A13605F
:101B5000002BE6D1064B1B78022BE2D0002BDDD008
:101B6000034B5868DBE7C04600800440CC020010FD
:101B700004000010044B1A6C03231340032B01D004
:101B8000024870470020FCE700800440001BB700BB
:101B90001F230340013359430800704710B53B4BE6
:101BA0005A6A52090F2313400F2B03D89B00384A5F
:101BB000D3589F46002000E03648344C636A1F210A
:101BC000194001314900FEF759FC226F03231340ED
:101BD000022B4CD02DD8002B39D0012B51D12B4BBF
:101BE0001A6C03231340012B35D0032B37D0002B65
:101BF00039D1294B294A1A603BE02948DDE72948B9
:101C0000DBE72948D9E72948D7E72948D5E7294814
:101C1000D3E72948D1E72948CFE72948CDE7294824
:101C2000CBE72948C9E72948C7E72948C5E7294834
:101C3000C3E7032B25D1154B9C68FFF79BFF0100E1
:101C40001F202040FFF7A4FF134B186011E0124B38
:101C5000124A1A600DE0104B104A1A6009E00E4B50
:101C600000221A6005E00C4B0C4A1A6001E00A4B96
:101C70001860064B996F084C2068FEF7FFFB206048
:101C800010BD054B00221A60F3E7C04600800440F7
:101C9000181F0000900510001C000010001BB7006A
:101CA000C05C1500F0B31A00200B2000009F240038
:101CB000E0322900C0C62D0050973100E0673500A2
:101CC0007038390000093D00401640008023430071
:101CD000C0304600C02709007047000010B5044B13
:101CE000044A9360044B054A1A60FFF7F5FF10BDE4
:101CF0000000000000ED00E01C000010001BB70019
:101D000053494E474C4500004E53484F5400000085
:101D1000434F4E54494E554F55530000554E4B4E70
:101D20004F574E00434F4D50414354005445585473
:101D30000000000042494E002B494E464F3A2070A9
:101D4000726F746F3D0000002C7461726765743DA2
:101D50004C50433832342C66773D756C7472617325
:101D60006F6E69635F72616E676572002B434647F1
:101D70003A206D6F64653D002C6E73686F743D0092
:101D80002C666D743D0000002C7478667265713DA0
:101D9000000000002C74786379636C65733D00006B
:101DA0002C73726174653D002C73616D706C65738A
:101DB0003D0000002B444F4E453A2073746F707005
:101DC000656400004F4B00002B444F4E453A20669F
:101DD00072616D65733D00004552524F5200000024
:101DE0003A20000054207365713D000020636F7538
:101DF0006E743D00464F524D41540000415449001D
:101E000041544346473F000041544D4F44453F0035
:101E10004D4F44450000000041544D4F44453D00A6
:101E200042555359000000004241444152470000CE
:101E300041544E53484F543F0000000041544E530C
:101E4000484F543D000000004154464D543F0000AF
:101E5000464D54004154464D543D000041545458A1
:101E6000465245513F00000054584652455100002B
:101E700041545458465245513D00000052414E478E
:101E800045000000415454584359434C45533F00CA
:101E900054584359434C4553000000004154545892
:101EA0004359434C45533D00415453524154453FDF
:101EB0000000000053524154450000004154535269
:101EC0004154453D00000000415453414D504C45A4
:101ED000533F000053414D504C4553004154474F30
:101EE00000000000415453544F50000041544445F9
:101EF0004641554C54000000544F4F4C4F4E470044
:101F00000200000001000000409C000001000000F1
:101F100020A10700000C0000B41B00002E1C0000D4
:101F2000B81B0000FA1B0000FE1B0000021C000092
:101F3000061C00000A1C00000E1C0000121C000001
:101F4000161C00001A1C00001E1C0000221C0000B1
:081F5000261C00002A1C000001
:081F5800D8E6FF7F0100000044
:101F6000010000000200000001000000409C000091
:101F70000100000020A10700000C0000001BB700BA
:0400000300000301F5
:00000001FF
