:10000000E01F001001030000510300005503000031
:1000100000000000000000000000000079D6FFEFA3
:100020000000000000000000000000005903000074
:1000300000000000000000005D03000061030000FC
:1000400065030000690300006D03000071030000F8
:1000500075030000790300007D03000081030000A8
:10006000850300004D1C00008D030000910300007B
:1000700095030000990300009D030000A103000008
:10008000A5030000A9030000AD030000B1030000B8
:100090002D1C0000B9030000BD030000C1030000D7
:1000A000C5030000C9030000CD030000D103000018
:1000B000D5030000D9030000DD030000E1030000C8
:0402FC00FFFFFFFF02
:1003000072B60B4880470B490B4A0C4B9B1A03DD16
:10031000043BC858D050FBDC09490A4A521A03DD95
:100320000020043A8850FCDC62B607488047000091
:10033000751E00000C2100000000001024000010B9
:1003400000020010201D0010711C0000254800470D
:1003500025480047254800472548004725480047CD
:1003600025480047254800472548004725480047BD
:1003700025480047254800472548004725480047AD
:10038000254800472548004725480047254800479D
:10039000254800472548004725480047254800478D
:1003A000254800472548004725480047254800477D
:1003B000254800472548004725480047254800476D
:1003C000254800472548004725480047254800475D
:1003D000254800472548004725480047254800474D
:1003E000254800474D03000051030000550300005D
:1003F000590300005D030000610300004D0300008D
:100400004D0300004D0300004D0300004D030000AC
:100410004D0300004D0300004D0300004D0300009C
:100420004D0300004D0300004D0300004D0300008C
:100430004D0300004D0300004D0300004D0300007C
:100440004D0300004D0300004D0300004D0300006C
:100450004D0300004D0300004D0300004D0300005C
:100460004D0300004D0300004D0300004D0300004C
:100470004D0300004D0300004D030000002243081F
:100480008B4274D303098B425FD3030A8B4244D35C
:10049000030B8B4228D3030C8B420DD3FF2209029E
:1004A00012BA030C8B4202D31212090265D0030B5D
:1004B0008B4219D300E0090AC30B8B4201D3CB0353
:1004C000C01A5241830B8B4201D38B03C01A524195
:1004D000430B8B4201D34B03C01A5241030B8B4297
:1004E00001D30B03C01A5241C30A8B4201D3CB0282
:1004F000C01A5241830A8B4201D38B02C01A524167
:10050000430A8B4201D34B02C01A5241030A8B4269
:1005100001D30B02C01A5241CDD2C3098B4201D381
:10052000CB01C01A524183098B4201D38B01C01AFF
:10053000524143098B4201D34B01C01A5241030976
:100540008B4201D30B01C01A5241C3088B4201D325
:10055000CB00C01A524183088B4201D38B00C01AD2
:10056000524143088B4201D34B00C01A5241411AF9
:1005700000D20146524110467047FFE701B5002006
:1005800000F006F802BDC0460029F7D076E77047B4
:100590007047C046002B11D1002A0FD1002900D18D
:1005A000002802D00021C943080007B4024802A174
:1005B0004018029003BDC046D9FFFFFF03B4684650
:1005C00001B5029800F034F8019B9E4602B00CBCC5
:1005D0007047C046F0B5CE469946030C9C461304BE
:1005E00047461B0C1D000E0061460404240C80B518
:1005F0000700100C4B436543414360432C0CC0186B
:1006000024188C46A34203D980235B029846C44435
:10061000494679435643230C2D042D0C8919634414
:1006200024046019C918C0BCB946B046F0BDC04624
:10063000F0B557464E464546DE46E0B504000D008F
:100640009246994683B08B4230D82DD049465046C9
:1006500000F0BAF829000600200000F0B5F8331ABF
:100660009846203B34D49B4653465A4693404246D4
:100670001F00534693401E00AF423BD8AF4200D10B
:1006800079E05B46A41BBD41002B00DA76E0002236
:1006900000230092019301235A46934001930123C2
:1006A00042469340009329E08242CFD900220023A2
:1006B000009201930C9B002B01D01C605D600098A0
:1006C000019903B0F0BCBB46B246A946A046F0BDB6
:1006D00042469B4620239B1A5246DA40414613006D
:1006E0004A468A40170042461F43534693401E0025
:1006F000AF42C3D900220023009201934346002B4E
:10070000D8D0FB0772081A4346467B080EE0AB427E
:1007100001D1A2420CD8A41A9D41012024196D4197
:100720000021013E24184D41002E06D0AB42EED9E7
:10073000013E24196D41002EF8D1009801995B46C5
:1007400000196941002B24DB2B005A464646D34052
:100750002A001C00F2405B461500002B2ADB260015
:100760009E40330026004746BE403200801A994121
:10077000009001919EE7A342BCD882E74246202325
:1007800000219B1A0022009101920122DA4001927D
:1007900085E7424620239B1A2A0046469A402300BA
:1007A000F340464613432A001C00F2405B46150006
:1007B000002BD4DA202342462F009B1B97402600B3
:1007C000DE403B003343CDE710B5002903D100F0F4
:1007D00007F8203002E0080000F002F810BDC04623
:1007E0001C2101231B04984201D3000C10391B0A61
:1007F000984201D3000A08391B09984201D3000925
:10080000043902A2105C40187047C046040302027B
:1008100001010101000000000000000010B5830785
:100820000AD00300032102E001330B4205D01A78FD
:10083000002AF9D1181A10BD030019680C4A0D4C92
:100840008A188A4322420FD15968094A04338A1808
:100850008A43224208D15968054A04338A188A43D8
:100860002242F1D000E001331A78002AFBD1E1E7FF
:10087000FFFEFEFE8080808030B5002A26D0030077
:100880000B439B0724D1032A22D9164D0BE0043ACF
:10089000002A1BD0144C1C199C432C4216D1043046
:1008A0000431032A14D903680C68A342EFD00478FA
:1008B0000D78A54213D1012306E0C45CCD5CAC42A7
:1008C0000DD101339A4201D0002CF6D1002030BD69
:1008D00004780D78AC4202D1012AECD1F6E7601B16
:1008E000F5E7C04680808080FFFEFEFEF0B5050083
:1008F0000F2A31D903273E000D430C0003002E4080
:100900002F4234D11500103D2D09AC462F013F1860
:1009100065685D60A5689D60E568DD6025681034E8
:100920001D601D001033BD42F2D165460F230C241B
:1009300001352D0149191340451914421AD0043BC1
:100940009B0801339B008C59AC5104369E42FAD16E
:100950000323AD1989191A40561E002A06D0002318
:10096000CC5C1A00EC5401339642F9D1F0BD05007D
:10097000561EF4E71A00EFE7024670B50A439207E5
:100980002AD11E4DEE0104C808C9541B94433440BB
:1009900017D0D0B2D9B2401A2106014310D190B27B
:1009A00099B2401A210401430AD110021902000A27
:1009B000090A401A2102014302D1100E190E401AF1
:1009C00070BD9A42DFD010BA19BA884201D901200D
:1009D00070BD0020C04370BD02780B78013001313A
:1009E000002A09D09A4207D102780B7801300131F0
:1009F000002A01D09A42EFD0D01A70BD0101010146
:100A000010B5002309E0A02212068021C901882424
:100A1000A40111518034115101338342F3D310BD2D
:100A2000012805D0022805D0002805D1034802E09E
:100A3000034800E0034870470348FCE7981E0000A5
:100A4000A01E0000A81E0000B41E000002280AD04C
:100A500005D8002809D0012809D1074804E0032857
:100A600007D1064800E0064870470648FCE70648FC
:100A7000FAE70548F8E7C046C41E0000D01E000093
:100A8000CC1E0000BC1E0000B41E000010B5037890
:100A9000002B12D000220478002C0BD00130230050
:100AA000303BDBB2092B0AD893009B185B00E2189D
:100AB000303AF0E70A60012000E0002010BD00207D
:100AC000FCE70000034A13681B0C1B0404210B43C2
:100AD0001360704700C000400749CA690B6A1202E0
:100AE000120AF02000050243CA61FF229343F63A3E
:100AF00013430B627047C04600C000400349E02228
:100B000052008B58024803408B50704700C0004091
:100B1000FFFFFEFFF0B5DE4657464E464546E0B5C0
:100B200091B00B90574B9422012199505C32FE31C9
:100B30009950002399460F930E93013B0D930C930C
:100B400039E0012306930023069A58460021FFF757
:100B500041FD020F0B0113430201D9075008029017
:100B6000084302905908039102980399801979412A
:100B7000FFF710FD04900591049A059BAB4202D843
:100B800063D1A24261D9049A059B121BAB410C9917
:100B9000994203D80CD10D99914209D9069901398E
:100BA0000E911100194359D049460F910D920C93A3
:100BB00001239C46E1444B46FF2B4DD8324B1B682A
:100BC0001F0E1E0280235B004B449B460B9C00259E
:100BD00022002B0058460021FFF7FCFC030F0A01FE
:100BE0001A43904603019A46130052461343DFD03E
:100BF0004346DB07520800921A43009243465B08C3
:100C00000193009A019B92197B41100019005246F2
:100C1000434608900991FFF7BDFC0B000690089928
:100C2000099A90458DD801D18A458AD8002B07D1E1
:100C300000D089E7802252020699914200D883E7CA
:100C400080235B02069300237EE722002B0004989A
:100C50000599121A8B419AE70F9B99460B4A0F236D
:100C60009362F03349460B400648F42143500E9BF3
:100C70001B041B0C136211B0F0BCBB46B246A94664
:100C8000A046F0BD00800440200000100040064057
:100C900010B50F4B802158588122D20102435A507F
:100CA0005A6874398A435A605A680A435A60FFF78F
:100CB00009FF084C0423236000236360E1208002C5
:100CC000FFF728FF236801221343236010BDC046AD
:100CD0000080044000400640024B9B680120184001
:100CE0007047C04600400640014B5869C0B270478B
:100CF0000040064070B5094C6069A26800230021DD
:100D0000FFF768FC226900238018594101246442DE
:100D1000E51700196941FFF73DFC70BD04000010A4
:100D2000064B1B78002B05D1054B1B68002B03D00D
:100D3000012000E0012070470020FCE700000010C7
:100D4000CC020010024A536804210B4353607047E1
:100D500000400050024A536804218B43536070479F
:100D60000040005010B5134B8020195880225200CB
:100D700011431950596810480140596059680A4395
:100D80005A60FFF7DFFF0D4B5A6808210A435A608B
:100D90005A688A435A600A4A1A600022DA645A651D
:100DA00007399965F33101204042585004395A50AF
:100DB00010BDC04600800440FFFEFFFF0040005011
:100DC000010002000F230B408021490119436030CC
:100DD000C000034BC3185960014B0122C250704739
:100DE00000400050044A030040339B00995080307B
:100DF000800081507047C0460040005010B51A4B2B
:100E000018681A4B99684900FFF738FB0400FFF790
:100E1000A9FFFFF761FE00210020FFF7D3FF0221A9
:100E20000220FFF7CFFF21000220FFF7DBFF610068
:100E30000020FFF7D7FF0E4B0122A021C9005A5016
:100E400004210C481950043019500B495A50F42110
:100E500001204042585004395A50084B80229200D9
:100E600090315A501A6010BD20000010040000108C
:100E700000400050040500000C05000000E100E007
:100E800010B5164B1868164B19694900FFF7F6FAAA
:100E90000400FFF767FF00210020FFF793FF022106
:100EA0000220FFF78FFF21000220FFF79BFF610068
:100EB0000020FFF797FF0B4BA322D200012199508E
:100EC000094A03319950094A8023FD31FF31D1503D
:100ED000BFF34F8FBFF36F8F10BDC04620000010CF
:100EE00004000010004000501C05000000E100E07C
:100EF000013803040648034006481843002901D07E
:100F000005481843002A01D0102318437047C046F3
:100F10000000FF030141000003410000F0B5C64698
:100F200000B52A4B80201958802292051143195090
:100F3000596827480140596059680A435A6080251A
:100F4000ED00012200212800FFF7D2FF214F386079
:100F5000214B98467B60214CBC600026FE6001223C
:100F600001212800FFF7C4FF1D4B186042465A605C
:100F70001C4AA2189A60DF601B49086042464A601A
:100F80001A4A944664448C60CB60194B01221A6063
:100F9000480A400298609A629A679A651A661A64CB
:100FA0009A645220585108688121C900585011494B
:100FB0000E609A661A62104B80225203C0214900CB
:100FC0005A501A6080BCB846F0BDC046008004404C
:100FD000FFFFFFDFE01A00102CC00140D61A0010FE
:100FE000F01A001000F8FFFF001C001000F0FFFFD7
:100FF000008000500080024000E100E010B51A4B74
:1010000080215858194A02435A505A6818490A40D0
:101010005A605968802252040A435A608D2189001F
:101020005A58102082435A5004315A5882435A5019
:10103000104A536E18218B435366FFF75FFD0E4B2A
:1010400000221A6019688022D2050A431A600A4BEE
:101050001B685B00FBD4084B084A9A6001225A6661
:10106000023A9A6610BDC046008004408000040128
:10107000FFFFFFFE0040044000C00140083000C0F8
:1010800070B5002000260024002500230DE08021FB
:101090000901891A89B217E0194A94681B19126963
:1010A0009A4215D9012601300C00C022120190424B
:1010B0001AD2144A41008A5A802109018A42E6D391
:1010C00011498C46624491B28C42E5D32100E3E79A
:1010D0006E1C0C4C6D00295300E09B1A9A42FCD9FF
:1010E000350000260021DEE7002E05D0954203D210
:1010F000044B6A00D4520135044B1D6070BDC046DC
:1011000004000010D802001000F8FFFF1C000010BF
:1011100009024840002304E0400082B205485040E4
:101120000133072B05D802B2002AF5DB400080B25C
:10113000F6E770472110000030B5074B074A100052
:1011400034C834C319001CC81CC1054B00221A70D6
:10115000044B1A6030BDC04604000010AC200000F3
:1011600000000010CC02001010B5144B1B78002BAF
:1011700011D1134B1A68002A0CD0124B002199543C
:10118000114B1B78002B0FD0104B01221A700C4B07
:1011900000221A6010BD0E4B01221A70074B00226C
:1011A0001A70074B1A60F5E701320A480549FFF744
:1011B0009DFB054B01221A70E9E7C04603020010AF
:1011C0000402001068020010020200100002001069
:1011D000010200100802001010B506E0FFF7C4FF7E
:1011E00003E00C490A600C4AD054FFF775FD002853
:1011F0000ED0FFF779FD0D28F7D00A28EED0054B69
:101200001B685A1C5F2AECD9044B01221A70ECE7C8
:1012100010BDC04604020010680200100302001056
:1012200010B5040001E0FFF7D7FF044B9B685B0794
:10123000F9D5024BDC61FFF7CFFF10BD004006403F
:1012400070B584B0051E01D0002411E03020FFF7F6
:10125000E7FF17E00A212800FFF796F9661C3031F6
:1012600001AB19550A212800FFF708F905003400E1
:10127000002DEFD104E0013C01AB185DFFF7D0FF7A
:10128000002CF8D104B070BD10B5040002E00134A8
:10129000FFF7C6FF20780028F9D110BD10B50D204A
:1012A000FFF7BEFF0A20FFF7BBFF10BD10B50648D1
:1012B000FFF7EAFF0120FFF7C3FF0448FFF7E4FF51
:1012C000FFF7ECFF10BDC046D41E0000E41E000076
:1012D00010B51C48FFF7D8FF1B4C2078FFF7A0FB88
:1012E000FFF7D2FF1948FFF7CFFF6068FFF7A8FFAD
:1012F0001748FFF7C9FF6078FFF7A8FBFFF7C4FFA7
:101300001448FFF7C1FFA068FFF79AFF1248FFF7E4
:10131000BBFFE068FFF794FF1048FFF7B5FF2069B7
:10132000FFF78EFF0E48FFF7AFFF6069FFF788FFFA
:101330000C48FFF7A9FFFFF7DDFCFFF781FFFFF780
:10134000ADFF10BD081F000004000010141F0000B6
:101350001C1F0000241F0000301F00003C1F000065
:10136000441F0000501F000010B50348FFF78CFF1A
:10137000FFF794FF10BDC046601F000010B5034882
:10138000FFF782FFFFF78AFF10BDC046701F000005
:1013900010B504000448FFF777FF2000FFF750FF67
:1013A000FFF77CFF10BDC046741F000070B506003B
:1013B0000D00002403E0305DFFF732FF0134AC4242
:1013C000F9D370BD10B504000848FFF75DFF002C8D
:1013D00002D02378002B02D1FFF760FF10BD3A2026
:1013E000FFF71EFF2000FFF74FFFF5E7841F000007
:1013F00070B505000C002B20FFF712FF2800FFF747
:1014000043FF0448FFF740FF2000FFF73DFFFFF7D1
:1014100045FF70BD8C1F000070B505000C002B202F
:10142000FFF7FEFE2800FFF72FFF0448FFF72CFF11
:101430002000FFF705FFFFF731FF70BD8C1F000094
:1014400010B5FFF7DBFC1C4B00221A600220FFF7EF
:10145000D7FAFFF77FFC02E0FFF7BEFE30BF174B65
:10146000DA68154B1B689A42F6D8FFF76BFCFFF75A
:1014700055FDFFF705FD124B00221A60FFF76AFCCD
:1014800002E0FFF7A9FE30BF0D4B1B68022BF8D915
:10149000FFF758FC002205E00A4B5000C15A090929
:1014A000C1520132C0231B019A42F5D3064BC02220
:1014B00012011A6010BDC046D002001004000010D6
:1014C000D4020010D80200101C000010F8B55720FC
:1014D000FFF7A6FE2020FFF7A3FE00250EE00D4E2D
:1014E0006F00B85B80093F2420403F30FFF798FE33
:1014F000B85B20403F30FFF793FE0135064B1B6879
:10150000AB4204D9EB06EAD1FFF766FEE7E7FFF747
:10151000C5FEF8BDD80200101C00001010B516481A
:10152000FFF7B2FE154B1868FFF78AFE1448FFF765
:10153000ABFE144B1868FFF783FE2020FFF770FE08
:101540000024104B1B68A34212D9E3060DD00E4BAA
:101550006200D05AFFF774FE01340A4B1B689C42AC
:10156000EFD22C20FFF75CFEEBE7FFF735FEEEE74E
:10157000FFF794FE10BDC046901F0000C802001087
:10158000981F00001C000010D802001070B584B035
:10159000354B19684B1C5B089BB25A009B189CB2D8
:1015A00001A85522027002324270563A8270C2700F
:1015B0002E4A12680271150A4571150C8571120EBA
:1015C000C2710172090A41728372240AC4720C2129
:1015D000FFF7ECFE0025264C06E001AB595D20002C
:1015E000FFF796FD040001350B2DF6D900261CE00F
:1015F000FFF7F2FD1FE000226D462B701B0A110160
:10160000C9B20B436B701209AA7003216846FFF739
:10161000CDFE29782000FFF77BFD6978FFF778FD84
:10162000A978FFF775FD040002360F4B1B68B34223
:1016300011D9B306DCD00F4B7200D35A1B051B0D1A
:10164000721C094909688A42D5D20A495200525A85
:101650001205120DD0E7E0B2FFF7E2FD200AC0B29A
:10166000FFF7DEFD04B070BD1C000010C8020010C2
:10167000FFFF0000D8020010F8B54520FFF7D0FDAD
:101680002020FFF7CDFD00250EE00D4E6F00B85B6A
:1016900080093F2420403F30FFF7C2FDB85B204067
:1016A0003F30FFF7BDFD0135064B1B68AB4204D947
:1016B000EB06EAD1FFF790FDE7E7FFF7EFFDF8BD96
:1016C000D80200101C00001010B5134A1368013333
:1016D0001360124B5B78032B0BD0104B5B78022B03
:1016E00012D009D8002B0CD0012B10D1FFF716FF18
:1016F00009E0FFF7C5FCF0E7032B08D1FFF7BCFFBB
:1017000001E0FFF7E3FE10BDFFF740FFFBE70448F1
:10171000FFF758FEF7E7C046C802001004000010AB
:10172000A01F000070B505000C000800FFF776F858
:10173000020021002800FFF79FF843425841C0B241
:1017400070BD10B5FFF718F943425841C0B210BD43
:1017500010B582B00400BE49FFF7F3FF002832D174
:10176000BC492000FFF7EDFF002830D1BA49200026
:10177000FFF7E7FF00282FD1B8492000FFF7E1FF6E
:1017800000282ED1B6492000FFF7CCFF002846D014
:10179000FFF7C6FA002830D10734B2492000FFF71E
:1017A000D0FF00282DD1B0492000FFF7CAFF002844
:1017B0002DD1AE492000FFF7C4FF00282BD0AC4B41
:1017C00002221A7020E0FFF7D9FD02B010BDFFF72A
:1017D0006DFDFFF7D3FDF8E7FFF77AFDFFF7CEFDCC
:1017E000F3E7A34B1878FFF71BF90100A14B180092
:1017F000FFF7FEFDFFF7C2FDE7E79F48FFF7E2FDB9
:10180000E3E79B4B00221A70FFF7B8FDDDE7984B2A
:1018100001221A70F8E79948FFF7D4FDD5E79849F7
:101820002000FFF78EFF002817D196492000FFF710
:1018300079FF002822D0FFF773FA002815D1200085
:10184000083001A9FFF722F9002802D0019B002BE4
:101850000FD18A48FFF7B6FDB7E7854B5968824834
:10186000FFF7DAFDFFF78AFDAFE78348FFF7AAFD30
:10187000ABE77F4A5360FFF781FDA6E7824920006E
:10188000FFF75FFF002826D180492000FFF74AFFBD
:10189000002842D0FFF744FA002828D106347C49BA
:1018A0002000FFF74EFF002825D17A492000FFF7DE
:1018B00048FF002825D178492000FFF742FF002883
:1018C00023D176492000FFF73CFF002821D0684B48
:1018D00003225A7012E0664B5878FFF7B7F8010000
:1018E0006F4B1800FFF784FDFFF748FD6DE7624876
:1018F000FFF768FD69E75E4B00225A70FFF73EFD77
:1019000063E75B4B01225A70F8E7594B02225A7089
:10191000F4E75A48FFF756FD57E762492000FFF702
:1019200010FF00281AD160492000FFF7FBFE0028B5
:1019300029D0FFF7F5F9002818D12000093001A9B6
:10194000FFF7A4F8002815D0019B584A9918584A67
:10195000914213D95748FFF735FD36E7444B996854
:101960005548FFF759FDFFF709FD2EE74248FFF7FD
:1019700029FD2AE74148FFF725FD26E73C4A936009
:10198000FFF7FCFC21E74D492000FFF7DAFE0028B5
:1019900018D14B492000FFF7C5FE002827D0FFF7DC
:1019A000BFF9002816D120000B3001A9FFF76EF80F
:1019B000002813D0019B5A1EFE2A13D93D48FFF779
:1019C00001FD02E72A4BD9683E48FFF725FDFFF7E6
:1019D000D5FCFAE62848FFF7F5FCF6E62748FFF7BE
:1019E000F1FCF2E6224AD360FFF7C8FCEDE6364987
:1019F0002000FFF7A6FE00281AD134492000FFF787
:101A000091FE00286FD0FFF78BF9002818D1200035
:101A1000083001A9FFF73AF8002815D0019B2C4A9D
:101A200099182C4A914259D92248FFF7CBFCCCE6B1
:101A30000F4B19692848FFF7EFFCFFF79FFCC4E63E
:101A40000D48FFF7BFFCC0E60C48FFF7BBFCBCE647
:101A5000A41F0000A81F0000AC1F0000B41F00005E
:101A6000C41F0000981E0000A01E0000A81E000059
:101A700004000010BC1F0000CC1F0000D41F000099
:101A8000DC1F0000E81F0000F41F00000020000021
:101A9000BC1E0000C41E0000CC1E0000D01E0000B2
:101AA000FC1F0000082000001C20000018FCFFFFA5
:101AB000B88201002820000014200000302000001F
:101AC000482000003C200000542000006820000056
:101AD000F0D8FFFF301B0F0060200000304A136178
:101AE000FFF74CFC71E62F492000FFF72AFE002883
:101AF00017D12D492000FFF724FE00282AD0FFF738
:101B00000FF9002815D1264B1B78012B15D0022B7D
:101B100018D0002B1AD1254B01221A60FFF72EFC9A
:101B200053E61F4B22485969FFF776FCFFF726FC66
:101B30004BE62048FFF746FC47E6194B5A681B4B1B
:101B40001A60EBE71C4B01221A70E7E71B48FFF70E
:101B500039FC3AE61A492000FFF7F3FD00280DD1C1
:101B600018492000FFF7EDFD002814D0FFF7D8F842
:101B700000280BD00F48FFF725FC26E60E4B00226D
:101B80001A700A4B1A60FFF7EFFB1EE6FFF7D4FA54
:101B9000FFF7F4FB19E60C48FFF714FC15E6C04606
:101BA000040000107420000088200000CC02001007
:101BB00080200000CC1F000000000010BC1F0000AF
:101BC0009020000098200000B41E000010B5114BBA
:101BD0001B78002B08D1104B1B78002B0BD10F4B1F
:101BE0001B78002B0ED110BD0A4B00221A700C4836
:101BF000FFF7E8FBEFE7084B00221A700948FFF7F0
:101C0000E1FBECE7054B00221A700748FFF7A0FD47
:101C1000E9E7C046010200100002001002020010B5
:101C2000A4200000CC1F00000802001010B50820FE
:101C3000FEF7E6FE034B01229A65034A136801335F
:101C4000136010BD00800050D402001010B5064A89
:101C50001368013313600120FEF7D2FE034AF42318
:101C60000121D15010BDC046D002001000400050EC
:101C700010B500F05FF8224980228B5840200343C2
:101C80008B50A0231B068E2292018021C9019950FE
:101C9000802109029950C130FF309850013AFF3A33
:101CA0009950FEF7F5FFFFF7A9F9FFF7FFFAFFF7E5
:101CB0000FFB02E00120FFF76BFBFFF78DFAFFF748
:101CC00085FFFFF72DF80028F7D0FFF7B9FBFFF7E6
:101CD000FBFCFFF781FAFFF779FF0A4B1B68002B2B
:101CE000EBD0013B074A1360002BE6D1064B1B7873
:101CF000022BE2D0002BDDD0034B5868DBE7C04657
:101D000000800440CC02001004000010044B1A6C48
:101D100003231340032B01D0024870470020FCE747
:101D200000800440001BB7001F23034001335943C8
:101D30000800704710B53B4B5A6A52090F231340F5
:101D40000F2B03D89B00384AD3589F46002000E051
:101D50003648344C636A1F21194001314900FEF7AF
:101D60008DFB226F03231340022B4CD02DD8002B68
:101D700039D0012B51D12B4B1A6C03231340012B6B
:101D800035D0032B37D0002B39D1294B294A1A6083
:101D90003BE02948DDE72948DBE72948D9E729481E
:101DA000D7E72948D5E72948D3E72948D1E7294883
:101DB000CFE72948CDE72948CBE72948C9E7294893
:101DC000C7E72948C5E72948C3E7032B25D1154BA9
:101DD0009C68FFF79BFF01001F202040FFF7A4FF36
:101DE000134B186011E0124B124A1A600DE0104BB1
:101DF000104A1A6009E00E4B00221A6005E00C4BF5
:101E00000C4A1A6001E00A4B1860064B996F084CA7
:101E10002068FEF733FB206010BD054B00221A60DE
:101E2000F3E7C04600800440C42000009005100085
:101E300020000010001BB700C05C1500F0B31A00B2
:101E4000200B2000009F2400E0322900C0C62D0096
:101E500050973100E06735007038390000093D00C7
:101E60004016400080234300C0304600C0270900D0
:101E70007047000010B5044B044A9360044B054AB8
:101E80001A60FFF7F5FF10BD0000000000ED00E054
:101E900020000010001BB70053494E474C4500007E
:101EA0004E53484F54000000434F4E54494E554F37
:101EB00055530000554E4B4E4F574E00434F4D501B
:101EC00041435400544558540000000042494E001C
:101ED000454E56002B494E464F3A2070726F746F34
:101EE0003D0000002C7461726765743D4C504338AE
:101EF00032342C66773D756C747261736F6E6963F2
:101F00005F72616E676572002B4346473A206D6FC2
:101F100064653D002C6E73686F743D002C666D74B3
:101F20003D0000002C7478667265713D0000000071
:101F30002C74786379636C65733D00002C73726157
:101F400074653D002C73616D706C65733D0000001D
:101F50002C656E7673616D706C65733D00000000DA
:101F60002B444F4E453A2073746F707065640000C7
:101F70004F4B00002B444F4E453A206672616D6511
:101F8000733D00004552524F520000003A200000BD
:101F900054207365713D000020636F756E743D00C1
:101FA000464F524D4154000041544900415443466C
:101FB000473F000041544D4F44453F004D4F44457D
:101FC0000000000041544D4F44453D0042555359D7
:101FD00000000000424144415247000041544E532A
:101FE000484F543F0000000041544E53484F543D69
:101FF000000000004154464D543F0000464D54003F
:102000004154464D543D00004154545846524551A8
:102010003F00000054584652455100004154545866
:10202000465245513D00000052414E4745000000D8
:10203000415454584359434C45533F005458435915
:10204000434C455300000000415454584359434CFD
:1020500045533D00415453524154453F0000000058
:102060005352415445000000415453524154453DA0
:1020700000000000415453414D504C45533F000077
:1020800053414D504C4553004154474F0000000010
:10209000415453544F500000415444454641554C1F
:1020A00054000000544F4F4C4F4E470002000000B8
:1020B00001000000409C00000100000020A107007A
:1020C000000C00004C1D0000C61D0000501D00004B
:1020D000921D0000961D00009A1D00009E1D00002C
:1020E000A21D0000A61D0000AA1D0000AE1D0000DC
:1020F000B21D0000B61D0000BA1D0000BE1D00008C
:04210000C21D0000FC
:082104002CE5FF7F0100000043
:10210C00010000000200000001000000409C0000E3
:10211C000100000020A10700000C0000000C0000D2
:04212C00001BB700DD
:0400000300000301F5
:00000001FF
