:10000000E01F001001030000510300005503000031
:1000100000000000000000000000000079D6FFEFA3
:100020000000000000000000000000005903000074
:1000300000000000000000005D030000AD0A0000A9
:1000400065030000690300006D03000071030000F8
:1000500075030000790300007D03000081030000A8
:1000600085030000890300008D0300009103000058
:1000700095030000990300009D030000A103000008
:10008000A5030000A9030000AD030000B1030000B8
:10009000B5030000B9030000BD030000C103000068
:1000A000C5030000C9030000CD030000D103000018
:1000B000D5030000D9030000DD030000E1030000C8
:0402FC00FFFFFFFF02
:1003000072B60B4880470B490B4A0C4B9B1A03DD16
:10031000043BC858D050FBDC09490A4A521A03DD95
:100320000020043A8850FCDC62B607488047000091
:10033000710C0000F00C0000000000100400001020
:100340000400001008000010BD0A00002548004706
:1003500025480047254800472548004725480047CD
:1003600025480047254800472548004725480047BD
:1003700025480047254800472548004725480047AD
:10038000254800472548004725480047254800479D
:10039000254800472548004725480047254800478D
:1003A000254800472548004725480047254800477D
:1003B000254800472548004725480047254800476D
:1003C000254800472548004725480047254800475D
:1003D000254800472548004725480047254800474D
:1003E000254800474D03000051030000550300005D
:1003F000590300005D030000AD0A00004D0300003A
:100400004D0300004D0300004D0300004D030000AC
:100410004D0300004D0300004D0300004D0300009C
:100420004D0300004D0300004D0300004D0300008C
:100430004D0300004D0300004D0300004D0300007C
:100440004D0300004D0300004D0300004D0300006C
:100450004D0300004D0300004D0300004D0300005C
:100460004D0300004D0300004D0300004D0300004C
:100470004D0300004D0300004D030000002243081F
:100480008B4274D303098B425FD3030A8B4244D35C
:10049000030B8B4228D3030C8B420DD3FF2209029E
:1004A00012BA030C8B4202D31212090265D0030B5D
:1004B0008B4219D300E0090AC30B8B4201D3CB0353
:1004C000C01A5241830B8B4201D38B03C01A524195
:1004D000430B8B4201D34B03C01A5241030B8B4297
:1004E00001D30B03C01A5241C30A8B4201D3CB0282
:1004F000C01A5241830A8B4201D38B02C01A524167
:10050000430A8B4201D34B02C01A5241030A8B4269
:1005100001D30B02C01A5241CDD2C3098B4201D381
:10052000CB01C01A524183098B4201D38B01C01AFF
:10053000524143098B4201D34B01C01A5241030976
:100540008B4201D30B01C01A5241C3088B4201D325
:10055000CB00C01A524183088B4201D38B00C01AD2
:10056000524143088B4201D34B00C01A5241411AF9
:1005700000D20146524110467047FFE701B5002006
:1005800000F006F802BDC0460029F7D076E77047B4
:100590007047C046002B11D1002A0FD1002900D18D
:1005A000002802D00021C943080007B4024802A174
:1005B0004018029003BDC046D9FFFFFF03B4684650
:1005C00001B5029800F034F8019B9E4602B00CBCC5
:1005D0007047C046F0B5CE469946030C9C461304BE
:1005E00047461B0C1D000E0061460404240C80B518
:1005F0000700100C4B436543414360432C0CC0186B
:1006000024188C46A34203D980235B029846C44435
:10061000494679435643230C2D042D0C8919634414
:1006200024046019C918C0BCB946B046F0BDC04624
:10063000F0B557464E464546DE46E0B504000D008F
:100640009246994683B08B4230D82DD049465046C9
:1006500000F0BAF829000600200000F0B5F8331ABF
:100660009846203B34D49B4653465A4693404246D4
:100670001F00534693401E00AF423BD8AF4200D10B
:1006800079E05B46A41BBD41002B00DA76E0002236
:1006900000230092019301235A46934001930123C2
:1006A00042469340009329E08242CFD900220023A2
:1006B000009201930C9B002B01D01C605D600098A0
:1006C000019903B0F0BCBB46B246A946A046F0BDB6
:1006D00042469B4620239B1A5246DA40414613006D
:1006E0004A468A40170042461F43534693401E0025
:1006F000AF42C3D900220023009201934346002B4E
:10070000D8D0FB0772081A4346467B080EE0AB427E
:1007100001D1A2420CD8A41A9D41012024196D4197
:100720000021013E24184D41002E06D0AB42EED9E7
:10073000013E24196D41002EF8D1009801995B46C5
:1007400000196941002B24DB2B005A464646D34052
:100750002A001C00F2405B461500002B2ADB260015
:100760009E40330026004746BE403200801A994121
:10077000009001919EE7A342BCD882E74246202325
:1007800000219B1A0022009101920122DA4001927D
:1007900085E7424620239B1A2A0046469A402300BA
:1007A000F340464613432A001C00F2405B46150006
:1007B000002BD4DA202342462F009B1B97402600B3
:1007C000DE403B003343CDE710B5002903D100F0F4
:1007D00007F8203002E0080000F002F810BDC04623
:1007E0001C2101231B04984201D3000C10391B0A61
:1007F000984201D3000A08391B09984201D3000925
:10080000043902A2105C40187047C046040302027B
:1008100001010101000000000000000001388023F8
:100820005B0498420ED2084A50600848036A1B02D3
:100830001B0AC02109060B430362002090600723B6
:10084000136070470120FCE710E000E000ED00E0DD
:10085000034B1B681818024B1B681B1AFBD470470C
:1008600004000010034A13681B0C1B0404210B43F3
:100870001360704700C00040F0B5DE4657464E4654
:100880004546E0B591B00B90574B94220121995009
:100890005C32FE319950002399460F930E93013B31
:1008A0000D930C9339E0012306930023069A5846D2
:1008B0000021FFF78FFE020F0B0113430201D9073E
:1008C0005008029008430290590803910298039936
:1008D00080197941FFF75EFE04900591049A059B0B
:1008E000AB4202D863D1A24261D9049A059B121B84
:1008F000AB410C99994203D80CD10D99914209D979
:10090000069901390E911100194359D049460F91AA
:100910000D920C9301239C46E1444B46FF2B4DD88E
:10092000324B1B681F0E1E0280235B004B449B460C
:100930000B9C002522002B0058460021FFF74AFEA1
:10094000030F0A011A43904603019A4613005246C8
:100950001343DFD04346DB07520800921A4300924C
:1009600043465B080193009A019B92197B4110005A
:1009700019005246434608900991FFF70BFE0B0001
:1009800006900899099A90458DD801D18A458AD850
:10099000002B07D100D089E78022520206999142AC
:1009A00000D883E780235B02069300237EE72200C2
:1009B0002B0004980599121A8B419AE70F9B9946D0
:1009C0000B4A0F239362F03349460B400648F4214B
:1009D00043500E9B1B041B0C136211B0F0BCBB46B2
:1009E000B246A946A046F0BD0080044000000010B9
:1009F0000040064010B50F4B802158588122D2018B
:100A000002435A505A6874398A435A605A680A43F2
:100A10005A60FFF727FF084C04232360002363601C
:100A2000E1208002FFF728FF23680122134323609F
:100A300010BDC0460080044000400640034B9B6848
:100A40005B07FBD5014BD8617047C04600400640AC
:100A500010B5040002E00134FFF7F0FF2078002811
:100A6000F9D110BD70B584B0051E01D0002411E08D
:100A70003020FFF7E3FF17E00A212800FFF784FD8D
:100A8000661C303101AB19550A212800FFF7F6FC2E
:100A900005003400002DEFD104E0013C01AB185DEE
:100AA000FFF7CCFF002CF8D104B070BD024A1368E8
:100AB000013313607047C0460400001010B500F009
:100AC00037F8FFF797FF0D4B1868FA218900FFF7F9
:100AD000D5FCFFF7A3FE041E00D0FEE70848FFF791
:100AE000B7FF2000FFF7BEFF0648FFF7B1FFFA206F
:100AF0004000FFF7ADFE0134F0E7C04600000010F3
:100B0000940C0000A40C0000044B1A6C0323134047
:100B1000032B01D0024870470020FCE7008004400E
:100B2000001BB7001F2303400133594308007047DF
:100B300010B53B4B5A6A52090F2313400F2B03D8B1
:100B40009B00384AD3589F46002000E03648344C7A
:100B5000636A1F21194001314900FFF78FFC226FA2
:100B600003231340022B4CD02DD8002B39D0012B5E
:100B700051D12B4B1A6C03231340012B35D0032B7F
:100B800037D0002B39D1294B294A1A603BE029483C
:100B9000DDE72948DBE72948D9E72948D7E729488D
:100BA000D5E72948D3E72948D1E72948CFE729489D
:100BB000CDE72948CBE72948C9E72948C7E72948AD
:100BC000C5E72948C3E7032B25D1154B9C68FFF7E0
:100BD0009BFF01001F202040FFF7A4FF134B18606C
:100BE00011E0124B124A1A600DE0104B104A1A60C5
:100BF00009E00E4B00221A6005E00C4B0C4A1A600B
:100C000001E00A4B1860064B996F084C2068FFF70B
:100C100035FC206010BD054B00221A60F3E7C0468A
:100C200000800440A80C0000900510000000001097
:100C3000001BB700C05C1500F0B31A00200B2000A9
:100C4000009F2400E0322900C0C62D0050973100DB
:100C5000E06735007038390000093D00401640005B
:100C600080234300C0304600C027090070470000C1
:100C700010B5044B044A9360044B054A1A60FFF711
:100C8000F5FF10BD0000000000ED00E000000010C6
:100C9000001BB7004C504338323420554152542089
:100CA000000000000D0A0000480B0000C20B00000D
:100CB0004C0B00008E0B0000920B0000960B000006
:100CC0009A0B00009E0B0000A20B0000A60B000078
:100CD000AA0B0000AE0B0000B20B0000B60B000028
:080CE000BA0B0000BE0B00007E
:080CE80048F9FF7F0100000044
:040CF000001BB7002E
:0400000300000301F5
:00000001FF
