:020000040800F2
:1000000000500020E5180008E1180008E118000879
:10001000E1180008E1180008E118000800000000DD
:10002000000000000000000000000000E1180008CF
:10003000E118000800000000E11800081D16000883
:10004000E1180008E1180008E1180008E1180008AC
:10005000E1180008E1180008E1180008E11800089C
:10006000E1180008E1180008E1180008E11800088C
:10007000E1180008E1180008E1180008E11800087C
:10008000E1180008E1180008E1180008E11800086C
:10009000E1180008E1180008E1180008E11800085C
:1000A000E1180008E1180008E1180008E11800084C
:1000B000E1180008E1180008E1180008E11800083C
:1000C000E1180008E1180008E1180008E11800082C
:1000D000E1180008E1180008E1180008E11800081C
:0C00E000E1180008E1180008E118000811
:1000EC00034B1A68024B1B689B1A8342FAD3704766
:1000FC0008020020034B1B6813F0800FFAD0014B51
:10010C00586070470038014010B5044602E00134D5
:10011C00FFF7F0FF20780028F9D110BD38B5044660
:10012C000309054DE85CFFF7E5FF04F00F04285DBB
:10013C00FFF7E0FF38BD00BFA421000810B504464E
:10014C00000AFFF7EBFFE0B2FFF7E8FF10BD10B5B8
:10015C000446000CFFF7F2FFA0B2FFF7EFFF10BD53
:10016C0010B584B010B10246002414E03020FFF723
:10017C00C1FF1DE00F4BA3FB0213DB08194603EB79
:10018C008303A2EB4303303304F110026A4402F8F8
:10019C000C3C0A460134002AECD107E0013C04F186
:1001AC0010036B4413F80C0CFFF7A4FF002CF5D1D3
:1001BC0004B010BDCDCCCCCC124A936943F480432F
:1001CC0043F005039361A2F58832536823F00403CE
:1001DC0053600D4B5A6822F47F625A605A6842F49D
:1001EC0096625A60094A0023D360094B1B6803F5D9
:1001FC00E1430849A1FB0313DB0B936042F20C03B0
:10020C00D3607047001002400008014000380140E4
:10021C0000000020C5B3A291084A936943F0100373
:10022C009361074B5A6822F470025A605A6842F480
:10023C0000125A604FF400521A61704700100240CD
:10024C000010014020B1054B4FF400525A61704729
:10025C00024B4FF400521A61704700BF001001406E
:10026C00074B1A6822F040021A601A6822F0380212
:10027C0002431A601A6842F040021A60704700BFCD
:10028C0000300140124A936943F4805343F0050354
:10029C009361A2F58832536823F0010353600D4B30
:1002AC001A6892B21A601A6842F0344242F431026F
:1002BC001A6010221A6103F520534FF44D721A6024
:1002CC0000225A601A6842F040021A60704700BF60
:1002DC000010024000080140074B9B6813F0020F0E
:1002EC00FAD0054B1873044B9B6813F0010FFAD02E
:1002FC00014B187B704700BF0030014008B5034B21
:10030C0010221A61FF20FFF7E7FF08BD000801402B
:10031C0038B50546002400E00134AC4206D2FF207B
:10032C00FFF7DAFFFF28F7D1012000E0002038BDED
:10033C0008B5044B10225A614CF25030FFF7E8FF1D
:10034C0008BD00BF0008014010B5FFF7D7FF00241F
:10035C0003E0FF20FFF7C0FF0134092CF9D910BDD1
:10036C0038B50C46154640F04000FFF7B5FF200E9F
:10037C00FFF7B2FFC4F30740FFF7AEFFC4F307204B
:10038C00FFF7AAFFE0B2FFF7A7FF2846FFF7A4FF8D
:10039C000024FF20092C07D8FF20FFF79DFF10F049
:1003AC00800F01D00134F5E738BD70B504460D4619
:1003BC001646FFF7A3FFFFF7BBFF48B132462946AD
:1003CC002046FFF7CDFF0446FFF798FF204670BD8F
:1003DC00FFF794FFFF24F9E738B504460D46FF22DA
:1003EC0000213720FFF7E1FF012800D938BDFF229B
:1003FC0029462046FFF7D9FFF8E7000070B50646FE
:10040C000D46FF2000240F4B9C4206D8FF20FFF71F
:10041C0063FFFF2801D10134F5E7FE2810D1002439
:10042C0004E0FF20FFF758FF30550134AC42F8D3FD
:10043C00FF20FFF751FFFF20FFF74EFF012070BD9B
:10044C000020FCE79F86010070B504460D46FFF7BF
:10045C0055FFFFF76DFF78B1FF2200212046FFF713
:10046C007FFF01280DD810212846FFF7C7FF06464D
:10047C0058B1FFF743FF02E00646FFF73FFF304657
:10048C0070BDFFF73BFF0026F9E7FFF737FFF6E7F4
:10049C002DE9F04383B00546FFF730FFFFF748FF27
:1004AC00064658B3FF2200213A20FFF759FF0128D6
:1004BC0027D8FF20FFF710FF81468DF80400FF209E
:1004CC00FFF70AFF04468DF80500FF20FFF704FF35
:1004DC0080468DF80600FF20FFF7FEFE07468DF8DC
:1004EC000700FFF70BFF240444EA096444EA0824DC
:1004FC003C432C60304603B0BDE8F083FFF7FEFEB2
:10050C00F8E7FFF7FBFE0026F4E7000070B50446A1
:10051C000D46124B1B7803B94402FFF7EFFEFFF7B1
:10052C0007FF064678B1FF2221461120FFF718FF7E
:10053C0068B94FF400712846FFF760FF064650B1CA
:10054C00FFF7DCFE01E0FFF7D9FE304670BDFFF788
:10055C00D5FE0026F9E7FFF7D1FEF6E704020020EE
:10056C0000B58646002001E00139C9B291420FD393
:10057C00CB08C3F10F03DBB201F0070C1EF80330FC
:10058C0043FA0CF303F0010343EA40009142EBD130
:10059C005DF804FB70B506460D46002403E0305DA3
:1005AC00FFF7BCFD0134AC4205D2002CF7D0202063
:1005BC00FFF7A0FDF3E70248FFF7A6FD70BD00BFF3
:1005CC00C01900084FF0000C9C450FD210B50CEB75
:1005DC000104045D12F80CE0744505D10CF1010C1A
:1005EC009C45F4D3012010BD0020FCE7012070478E
:1005FC000378407843EA002070470378427843EA56
:10060C000223827843EA0243C07843EA00607047D1
:10061C0038B50546FFF7F1FF0446281DFFF7EDFF3F
:10062C000146204638BD000008B50823024A0321C4
:10063C00FFF7C8FF08BD00BFC419000808B50823A0
:10064C00024A5221FFF7BEFF08BD00BFD0190008B7
:10065C0010B504460823084A3621FFF7B3FF40B90A
:10066C000823064A36212046FFF7ACFF10B10120C3
:10067C0000E0012010BD00BFDC190008E8190008DB
:10068C0030B587B050EA010302D0024600241FE0C7
:10069C003020FFF72FFD55E001201FE018442A4CB5
:1006AC00A4FB003525F0030303EB9503C01A101AC5
:1006BC0061F100014FF0CC3300FB03F304FB013379
:1006CC00A0FB04042344400840EAC3725908644662
:1006DC0052EA010334D000205318DDD203441A4DE2
:1006EC00A5FB030C2CF0030000EB9C001B1AD31A87
:1006FC0061F1000C4FF0CC3003FB00F005FB0C005B
:10070C00A3FB053528445B0843EAC07303EB830362
:10071C00A2EB430304F1010C303304F118000DEB90
:10072C00000404F8143C00235018B7D30123B5E798
:10073C00013C04F118036B4413F8140CFFF7DAFCBA
:10074C00002CF5D107B030BDCDCCCCCC10B50446C7
:10075C00A0F12003DBB25E2B0AD90A280BD00D289E
:10076C000DD00948FFF7D0FC2046FFF7D7FC10BD91
:10077C00FFF7C0FCFBE70548FFF7C6FCF7E70448AA
:10078C00FFF7C2FCF3E700BFFC190008F4190008DE
:10079C00F819000870B50646002510E02020FFF778
:1007AC00A9FC2B19F05CFFF7B9FC01340F2C02D813
:1007BC00002CF6D0F2E70948FFF7A6FC10351F2DE8
:1007CC000AD80748FFF7A0FCA8B2FFF7B7FC05480A
:1007DC00FFF79AFC0024E9E770BD00BFC0190008C0
:1007EC00001A0008101A00080E2806D845F6D20385
:1007FC0023FA00F000F0010070470020704738B574
:10080C0005460C4603780B7003794B700830FFF7E4
:10081C00F4FE606005F10C00FFF7EFFEA06038BD40
:10082C0038B505460C461148FFF76EFC2846FFF715
:10083C0097FC0F48FFF768FC2078FFF76FFC0D481A
:10084C00FFF762FC6078FFF769FC0B48FFF75CFC74
:10085C006068FFF785FC0948FFF756FCA068FFF7B6
:10086C007FFC0748FFF750FC38BD00BF141A000886
:10087C00201A00082C1A0008381A0008441A00081C
:10088C00C01900082DE9F04F89B093460026039655
:10089C0002960196B246B14634460091804600E07D
:1008AC000134032C28D8200100F5DF7005AD294652
:1008BC004044FFF7A4FF29462046FFF7B1FF9DF8FF
:1008CC001550002DECD0069F002FE9D0079B002B74
:1008DC00E6D0B9F1000F03D1029501974FF0010951
:1008EC00BAF1000FDCD12846FFF77EFF0028D7D0E5
:1008FC002E4603978246D3E7DDF80080BAF1000F4D
:10090C0006D1B9F1000F0AD1484609B0BDE8F08F05
:10091C00039BC8F800308BF80060D146F4E7019BCC
:10092C00C8F80030029B8BF80030EDE72DE9F04F52
:10093C0085B004460B30FFF75BFE074694F80DB00C
:10094C0004F10E00FFF754FE019094F810A004F18E
:10095C001100FFF74DFE029004F11300FFF748FE63
:10096C000646814604F11600FFF742FE0546804616
:10097C0004F11C00FFF741FE039026B904F120009E
:10098C00FFF73BFE814625B904F12400FFF735FE45
:10099C0080461D48FFF7B8FB3846FFF7E1FB1B48C4
:1009AC00FFF7B2FB5846FFF7DBFB1948FFF7ACFB30
:1009BC000198FFF7D5FB1748FFF7A6FB5046FFF74A
:1009CC00CFFB154C2046FFF79FFB1448FFF79CFB11
:1009DC000298FFF7C5FB1248FFF796FB0398FFF749
:1009EC00BFFB1048FFF790FB4846FFF7B9FB0E48DA
:1009FC00FFF78AFB4046FFF7B3FB2046FFF784FB6B
:100A0C0005B0BDE8F08F00BF501A00086C1A000842
:100A1C00841A0008901A0008C0190008981A0008D7
:100A2C00B01A0008C41A0008D41A00082DE9F04FB7
:100A3C0085B004460D466F48FFF766FB2846FFF766
:100A4C008FFB6D48FFF760FB94F8FF01FFF766FB27
:100A5C0094F8FE01FFF762FB6848FFF755FB204650
:100A6C00FFF7E2FD88B92046FFF7E8FD002840F0CB
:100A7C0086802046FFF7ECFD002840F0A5806048FA
:100A8C00FFF742FB05B0BDE8F08F04F14000FFF723
:100A9C00BFFD8146884604F14800FFF7B9FD0746C3
:100AAC000E4604F15000FFF7A8FD009004F154002D
:100ABC00FFF7A3FD019004F15800FFF79EFD029093
:100ACC0004F15C00FFF799FD039004F16000FFF75F
:100ADC0094FD824694F86CB094F86D30012505FABB
:100AEC000BFB9D404748FFF70FFB4748FFF70CFBFC
:100AFC005846FFF735FB4548FFF706FB2846FFF73E
:100B0C002FFB4348FFF700FB94F86E00FFF728FB20
:100B1C004048FFF7F9FA5046FFF722FB374C2046C6
:100B2C00FFF7F2FA3C48FFF7EFFA48464146FFF769
:100B3C00A7FD3A48FFF7E8FA38463146FFF7A0FD23
:100B4C002046FFF7E1FA3648FFF7DEFA0098FFF788
:100B5C0007FB3448FFF7D8FA0198FFF701FB32483E
:100B6C00FFF7D2FA0298FFF7FBFA3048FFF7CCFAFE
:100B7C000398FFF7F5FA2046FFF7C6FA82E72C48F0
:100B8C00FFF7C2FA2046FFF7D1FE2A48FFF7BCFA5E
:100B9C0004F12C00FFF731FDFFF7E2FA2648FFF7CE
:100BAC00B3FA04F13000FFF723FDFFF7D9FA23481D
:100BBC00FFF7AAFA04F13200FFF71AFDFFF7D0FA9B
:100BCC000E48FFF7A1FA5DE71D48FFF79DFA0823D1
:100BDC001C4A36212046FFF7F5FC30B11A48FFF7C6
:100BEC0093FA2046FFF7A2FE4CE71848FFF78CFA61
:100BFC00F7E700BFE41A0008FC1A0008C019000847
:100C0C00301C00080C1B0008241B00086C1A000880
:100C1C00901A0008401B0008501B00086C1B0008B1
:100C2C007C1B0008941B0008A41B0008B41B0008C4
:100C3C00C41B0008DC1B0008F41B0008001C000887
:100C4C00101C0008DC190008201C0008281C0008D7
:100C5C0070B50E461546FFF757FA002403E0305DD9
:100C6C00FFF75CFA0134AC4205D2002CF7D02020FF
:100C7C00FFF740FAF3E70248FFF746FA70BD00BFF2
:100C8C00C01900082DE9F84306460D4601F1300065
:100C9C00FFF7AEFC044605F10E00FFF7A9FC851921
:100CAC00631E9BB24FF6FD72934253D834443948BD
:100CBC00FFF72AFA2046FFF753FA3748FFF724FAD2
:100CCC0036492046FFF722FC0446002851D0334C0D
:100CDC002046FFF792FC814604F5F270FFF78DFC7D
:100CEC00804604F5F470FFF788FC074604F5F670AF
:100CFC00FFF783FC064604F5FE70FFF77EFC044606
:100D0C002748FFF701FA4846FFF721FA2548FFF775
:100D1C00FBF94046FFF71BFA2348FFF7F5F920468D
:100D2C00FFF715FA1C48FFF7EFF92048FFF7ECF92D
:100D3C00B7F1FF3F20D03846FFF712FA1C48FFF7F7
:100D4C00E3F9B6F1FF3F1BD03046FFF709FA124822
:100D5C00FFF7DAF91748FFF7D7F92846FFF700FA3B
:100D6C000D48FFF7D1F90D492846FFF7CFFB044694
:100D7C0050B92046BDE8F8830F48FFF7C5F9DDE709
:100D8C000D48FFF7C1F9E2E7102204490B48FFF7C1
:100D9C005FFFEEE7681C0008C01900080400002083
:100DAC008C1C0008A01C0008AC1C0008B81C000817
:100DBC00DC1C0008E81C0008D41C0008081D0008F6
:100DCC002DE9F04F83B00446019115460B30FFF727
:100DDC000FFC0646A88094F80DA085F806A004F137
:100DEC000E00FFF705FC8046288194F810B085F8BA
:100DFC000AB004F12400FFF700FC0746E86004F198
:100E0C002C00FFF7FAFB8146286104F12000FFF764
:100E1C00F4FB034620B904F11300FFF7E9FB03468A
:100E2C00B6F5007F1AD1BAF1000F1BD0BBF1000F41
:100E3C001AD0DFB1B9F1010F1AD9019A2A60EB610E
:100E4C0042446A610BFB07F73A44AA61B844A3EB2E
:100E5C000803B3FBFAF32B62012000E0002003B07F
:100E6C00BDE8F08F0020FAE70020F8E70020F6E755
:100E7C000020F4E783690239807900FB0130704768
:100E8C0070B514468B004269C1F3D610C3F3080544
:100E9C0007491044FFF73AFB064630B10448284492
:100EAC00FFF7ABFB20F070402060304670BD00BFF8
:100EBC0004000020024B984294BF00200120704790
:100ECC00F7FFFF0F70B5082300E02346EBB15C1E63
:100EDC00055D202DF9D0032500E0013D1DB144191D
:100EEC00E479202CF9D06AB34FF0000CE6469E450D
:100EFC000DD20CF10104944209D210F80E6001F8E5
:100F0C000C600EF1010EA446F1E70325E6E7B5B13E
:100F1C000CF10103934212D22E2401F80C409C4692
:100F2C00002306E003F10806865D01F80C6001332E
:100F3C00A446AB4203D20CF101049442F2D3002339
:100F4C0001F80C3070BD000010B584B004461022BE
:100F5C006946FFF7B7FF1148FFF7D6F8E37A13F0AD
:100F6C00100F16D00E48FFF7CFF86846FFF7CCF8F5
:100F7C000C48FFF7C9F8E068FFF7F2F80A48FFF7EA
:100F8C00C3F82069FFF7ECF80848FFF7BDF804B088
:100F9C0010BD0748FFF7B8F8E7E700BF1C1D0008B5
:100FAC00241D0008341D0008401D0008C01900084D
:100FBC002C1D000870B50D46C17A0378F3B10446B8
:100FCC00E52B1DD00F291DD0002302E0E25CEA5472
:100FDC0001330A2BFAD9E97204F11400FFF708FB6C
:100FEC00060404F11A00FFF703FB0643EE6004F15C
:100FFC001C00FFF702FB2861012070BD0020FCE7FC
:10100C000020FAE70020F8E72DE9F04387B080468E
:10101C00164605910025059801283AD9FFF74AFF95
:10102C008146B8B900271AE02034B4F5007F15D2F8
:10103C00194BE0181B5D6BB16946FFF7BBFF00282D
:10104C00F2D06846FFF780FF0135B542ECD3134868
:10105C00FFF75AF8484607B0BDE8F083013798F817
:10106C000630BB420CD905994046FFF703FF0A49ED
:10107C003844FFF74BFA81460028EBD00024D4E724
:10108C0005AA05994046FFF7FBFE81460028C2D110
:10109C00E0E74FF00109DDE704000020481D0008DF
:1010AC002DE9F04387B006460D469146036905933A
:1010BC000598012850D9FFF7FDFE8046002848D13D
:1010CC0000272EE0804627E0C646BEF1000F1BD15C
:1010DC002034B4F5007F23D2214BE0181B5DDBB12B
:1010EC006946FFF767FF86460028F1D000230A2BDC
:1010FC00EBD803F118026A4412F8182C15F803C047
:10110C006245E1D10133F2E76C460FCCA9E80F0040
:10111C002368C9F80030F046404607B0BDE8F083BC
:10112C000137B379BB420BD905993046FFF7A2FEC4
:10113C000B493844FFF7EAF90028C3D00024C8E76C
:10114C0005AA05993046FFF79BFE80460028AFD1D3
:10115C00E2E74FF00008DFE74FF00008DCE700BFE4
:10116C00040000202DE9F04782B01646CB680193AD
:10117C000B69CA7A12F0100F49D180468A46B342E5
:10118C0000D81E464FF0000922E04FF4007517E01E
:10119C00214B185DFFF7DAFA0134A542F8D8A944BF
:1011AC00761B013798F80630BB4210D97EB10199F5
:1011BC004046FFF75FFE3844B6F5007FE5D835466C
:1011CC001549FFF7A3F9034610B30024E5E746B928
:1011DC00019801280ED9FFF76DFE58B956B10027BA
:1011EC00E0E701AA01994046FFF74AFE03460028B2
:1011FC00EED10DE0DAF810304B4504D80748FEF775
:10120C0083FF012304E00648FEF77EFFF6E7002388
:10121C00184602B0BDE8F08704000020C019000891
:10122C00701D0008F8B50446437A857A2D0445EA0A
:10123C000365C37A45EA0325037B1D430C22132166
:10124C00FFF78EF900F5FA6708220B212046FFF70D
:10125C0087F906462948FEF757FF10212046FFF76D
:10126C0099F92748FEF750FF2078FEF757FF2548DD
:10127C00FEF74AFF6078FEF73DFFA078FEF73AFFD5
:10128C002148FEF741FFE078FEF734FF2079FEF7A6
:10129C0031FF6079FEF72EFFA079FEF72BFFE07986
:1012AC00FEF728FF1948FEF72FFF207A0009FEF7FA
:1012BC0057FF2E20FEF71EFF207A00F00F00FEF7DE
:1012CC004FFF1348FEF720FF2846FEF740FF11485A
:1012DC00FEF71AFF3846FEF743FF2D20FEF70AFFF4
:1012EC00092E06D93046FEF73BFF0B48FEF70CFFE4
:1012FC00F8BD3020FEF7FEFEF4E700BF741D0008B9
:10130C00841D0008941D00089C1D0008A41D0008E5
:10131C00AC1D0008B41D0008C019000870B50546C6
:10132C007E227F21FFF71CF904462348FEF7ECFED2
:10133C0010212846FFF72EF92048FEF7E5FE20463F
:10134C00FEF70EFF1E48FEF7DFFE012C17D0F4B996
:10135C00502253212846FFF703F906463E22492125
:10136C002846FFF7FDF804462F2231212846FFF7C7
:10137C00F7F8013402308440B440640A06E03022AD
:10138C0045212846FFF7ECF8441CA4021CB90D4873
:10139C00FEF7BAFE70BDE50A0B48FEF7B5FE204617
:1013AC00FEF7DEFE0948FEF7AFFE2846FEF7D8FE34
:1013BC000348FEF7A9FEEDE7BC1D0008CC1D000894
:1013CC00C0190008001E0008E01D0008F01D0008F0
:1013DC002DE9F04F83B006460F46904600247E4B15
:1013EC001C70FEF7B1FF7D48FEF78EFE2546132DCF
:1013FC0009D8952200210846FEF7D7FF044601289C
:10140C0001D00135F3E77648FEF77EFE2046FEF765
:10141C0085FE7448FEF778FE012C04D0002420468B
:10142C0003B0BDE8F08FFEF769FFFEF781FF0446BD
:10143C00002851D087224FF4D5710820FEF790FF79
:10144C000546FF20FEF748FF83468DF80400FF2079
:10145C00FEF742FF82468DF80500FF20FEF73CFFA9
:10146C0081468DF80600FF20FEF736FF04468DF806
:10147C000700FEF743FF5C48FEF746FE2846FEF7E2
:10148C004DFE5A48FEF740FE5846FEF747FE202018
:10149C00FEF730FE5046FEF741FE2020FEF72AFEF6
:1014AC004846FEF73BFE2020FEF724FE2046FEF7C2
:1014BC0035FE4C48FEF728FE15F0040F0FD0002423
:1014CC00B4F57A7F71D200212920FEF785FF0546FD
:1014DC0000286AD00134F3E7FEF710FF9FE70024E1
:1014EC00B4F57A7F08D24FF080412920FEF774FFC3
:1014FC00054608B10134F3E73D48FEF705FE601CD4
:10150C00FEF72EFE3B48FEF7FFFD2846FEF706FED3
:10151C003448FEF7F9FD002D5CD13046FEF7B8FFDC
:10152C00044600283FF47BAF3368C3F380732A4C26
:10153C0023703148FEF7E8FD3068FEF708FE2F48AF
:10154C00FEF7E2FD2378002B42D02D48FEF7DCFDA0
:10155C002448FEF7D9FD204B1C7894B9FF224FF498
:10156C0000711020FEF721FF05462648FEF7CCFD42
:10157C002846FEF7D3FD1B48FEF7C6FD002D7FF471
:10158C004EAF39460A20FEF75FFF044600283FF4B1
:10159C0046AF41460920FEF757FF044600283FF4AA
:1015AC003EAF1020FEF75CFE39E71748FEF7ACFDA6
:1015BC00601CFEF7D5FD0F48FEF7A6FD2846FEF78A
:1015CC00ADFD0848FEF7A0FD002DA6D0002426E7AF
:1015DC000E48BBE7002422E7040200204C1E000842
:1015EC005C1E0008C01900086C1E00087C1E000858
:1015FC00841E0008641E0008B41E0008C01E0008EB
:10160C00381E0008C81E00089C1E0008441E000856
:10161C00024A136801331360704700BF08020020B0
:10162C0000B59BB00023199318938DF85F3000F030
:10163C0077F98B4B1B688B4AA2FB03239B09013B5D
:10164C00B3F1807F0AD24FF0E0225361864BF02138
:10165C0083F823100023936107231361FEF7DCFD4D
:10166C00FEF7AAFDFEF70EFE8048FEF74DFD804802
:10167C00FEF74AFD7F48FEF747FD4FF47A70FEF700
:10168C002FFD0120FEF7DEFD0FAA13A919A8FFF705
:10169C009FFE48B9FEF7D6FD7748FEF735FD4FF4AF
:1016AC007A70FEF71DFDFAE713A8FFF7BBFD0FA834
:1016BC00FFF734FE7148FEF727FD71490020FEF755
:1016CC0025FF48B9FEF7BEFD6E48FEF71DFD4FF431
:1016DC007A70FEF705FDFAE7694C2046FFF75AF8D9
:1016EC006948FEF711FD94F8FF01FEF717FD94F819
:1016FC00FE01FEF713FD6548FEF706FD0DF15F02D6
:10170C0018A92046FFF7BEF810B36148FEF7FCFCA1
:10171C009DF85F00FEF702FD5C4C2046FEF7F4FCE2
:10172C005C48FEF7F1FC1898FEF71AFD2046FEF710
:10173C00EBFC53491898FEF7E9FE70B9FEF782FDF1
:10174C005548FEF7E1FC4FF47A70FEF7C9FCFAE756
:10175C005248FEF7D9FC00231893494C189920469F
:10176C00FFF764F92046FEF769FF002869D006AA46
:10177C0018992046FFF724FB48B9FEF763FD48484B
:10178C00FEF7C2FC4FF47A70FEF7AAFCFAE73C496C
:10179C001898FFF777FA48B9FEF754FD4148FEF761
:1017AC00B3FC4FF47A70FEF79BFCFAE73E48FEF769
:1017BC00ABFC40220A9906A8FFF726FC48B9FEF7B5
:1017CC0041FD3A48FEF7A0FC4FF47A70FEF788FC16
:1017DC00FAE701AA364906A8FFF762FC70B1354852
:1017EC00FEF792FC0598FEF7BBFC3348FEF78CFC29
:1017FC00A02201A906A8FFF7B5FCC0B101AA2F4988
:10180C0006A8FFF74DFCF8B12D48FEF77DFCA02291
:10181C0001A906A8FFF7A6FCB0B9FEF713FD2948ED
:10182C00FEF772FC4FF47A70FEF75AFCFAE7FEF7FB
:10183C0009FD2548FEF768FC4FF47A70FEF750FC62
:10184C00FAE72248FEF760FC2148FEF75DFC002019
:10185C00FEF7F8FC4FF47A70FEF742FCFAE700BF93
:10186C0000000020D34D621000ED00E0D81E0008EF
:10187C00041F0008341F0008601F0008741F0008B4
:10188C00040000208C1F0008A81F0008C0190008C5
:10189C00C41F0008E41F00080420000824200008CE
:1018AC006820000884200008A8200008C020000838
:1018BC00C4210008E4200008F8200008B821000822
:1018CC002821000844210008042100086421000894
:1018DC008C210008FEE7000008B500F01FF80A4B49
:1018EC000A4A03E052F8041B43F8041B08498B42D4
:1018FC00F8D3084B02E0002243F8042B064A93422B
:10190C00F9D3FFF78DFEFEE700000020E021000870
:10191C0004000020040000200C020020704700008E
:10192C001F4B5B6803F00C03042B11D0082B13D056
:10193C00002B31D11B4B1C4A1A60194B5B68C3F34B
:10194C0003131A4AD15C174A1368CB4013607047D3
:10195C00144B154A1A60F0E7114A53685268C3F3E6
:10196C008343023312F4803F05D1114A02FB03F387
:10197C000C4A1360E1E70A4A526812F4003F05D0A2
:10198C000B4A02FB03F3074A1360D6E7064A02FB35
:10199C0003F3044A1360D0E7024B034A1A60CCE706
:1019AC00001002400000002000127A00D021000834
:1019BC0000093D000D0A00004558464154202020E6
:1019CC00000000004641543332202020000000006B
:1019DC004641543132202020000000004641543151
:1019EC0036202020000000005C6E00005C720000BD
:1019FC005C78000073643A20736563746F723020F6
:101A0C00000000003A20000073643A207061727488
:101A1C000000000020626F6F743D30780000000001
:101A2C0020747970653D307800000000207374617B
:101A3C0072745F6C62613D0020736563746F7273C6
:101A4C003D00000073643A20425042206279746574
:101A5C00735F7065725F736563746F723D00000035
:101A6C0020736563746F72735F7065725F636C75FE
:101A7C00737465723D000000207265736572766543
:101A8C00643D000020666174733D000073643A206D
:101A9C0042504220726F6F745F656E747269657329
:101AAC003D0000002068696464656E5F7365637453
:101ABC006F72733D0000000020746F74616C5F7373
:101ACC006563746F72733D00206661745F73656348
:101ADC00746F72733D00000073643A20626F6F7410
:101AEC0020736563746F72206C62613D00000000AE
:101AFC00207369676E61747572653D307800000003
:101B0C0073643A2066696C6573797374656D3D65B1
:101B1C00784641540D0A000073643A2065784641BA
:101B2C00542062797465735F7065725F736563745A
:101B3C006F723D0020726F6F745F636C75737465A8
:101B4C00723D000073643A20657846415420706100
:101B5C0072746974696F6E5F6F66667365743D004D
:101B6C0020766F6C756D655F6C656E6774683D0093
:101B7C0073643A206578464154206661745F6F66E1
:101B8C00667365743D000000206661745F6C656E61
:101B9C006774683D0000000020686561705F6F66C7
:101BAC00667365743D00000020636C757374657218
:101BBC005F636F756E743D0073643A2066696C6583
:101BCC0073797374656D3D46415433320D0A0000D0
:101BDC0073643A20464154333220726F6F745F63E2
:101BEC006C75737465723D00206673696E666F3D2B
:101BFC0000000000206261636B75705F626F6F7430
:101C0C003D00000073643A2066696C6573797374E7
:101C1C00656D3D0046415431320D0A004641543148
:101C2C00360D0A0073643A2066696C6573797374B7
:101C3C00656D2074797065206E6F74207265636FAA
:101C4C00676E697A65642066726F6D20626F6F745F
:101C5C0020736563746F720D0A00000073643A2080
:101C6C0072656164696E67204653496E666F2073B6
:101C7C006563746F72206174206C626120000000D7
:101C8C0073643A204653496E666F206C6561643DFF
:101C9C0030780000207374727563743D30780000E6
:101CAC0020747261696C3D307800000073643A20D6
:101CBC004653496E666F20667265655F636C75731B
:101CCC00746572733D000000756E6B6E6F776E00FD
:101CDC00206E6578745F667265653D0073643A20AA
:101CEC0072656164696E6720464154207365637444
:101CFC006F72206174206C626120000073643A2062
:101D0C004641545B305D20666972737431363D0018
:101D1C0066617433323A200044495220200000009E
:101D2C0046494C452000000020636C757374657245
:101D3C003D0000002073697A653D000066617433D4
:101D4C00323A206469726563746F7279206C6973BE
:101D5C0074696E67207472756E63617465640D0AC4
:101D6C00000000002E2E2E0073643A2043494420BC
:101D7C007261773A2000000073643A204349442092
:101D8C004D49443D30780000204F49443D0000004F
:101D9C0020504E4D3D000000205052563D0000009A
:101DAC002050534E3D307800204D44543D000000EF
:101DBC0073643A20435344207261773A2000000048
:101DCC0073643A2043534420737472756374757250
:101DDC006520000073643A20736563746F72733D01
:101DEC00000000002063617061636974795F6D6944
:101DFC00623D000073643A206361706163697479B9
:101E0C0020706172736520756E737570706F72746B
:101E1C00656420666F722074686973204353442094
:101E2C006C61796F75740D0A0000000053444843CF
:101E3C002F53445843000000534453430000000008
:101E4C0073643A20434D44302E2E2E0D0A000000B0
:101E5C0073643A20434D44302052313D30780000B9
:101E6C0073643A20434D44382052313D30780000A1
:101E7C002052373D0000000073643A2041434D442A
:101E8C0034312876322920706F6C6C733D00000061
:101E9C0073643A2041434D44343128763129207003
:101EAC006F6C6C733D00000073643A204F43523DDD
:101EBC003078000020747970653D000073643A201E
:101ECC00434D4431362052313D3078000D0A736455
:101EDC005F66617433325F726F3A2053544D333204
:101EEC004631303343382053504931202F2055533D
:101EFC00415254310D0A000073645F6661743332D1
:101F0C005F726F3A205041343D4353205041353D70
:101F1C0053434B205041363D4D49534F2050413790
:101F2C003D4D4F53490D0A0073645F666174333243
:101F3C005F726F3A207374617274696E672070728D
:101F4C006F626520696E2031303030206D730D0A60
:101F5C000000000073643A20696E69742066616940
:101F6C006C65640D0A00000073643A20726561644C
:101F7C00696E6720736563746F7220300D0A000000
:101F8C0073643A20434D44313720626C6F636B208D
:101F9C0030206661696C65640D0A000073643A2038
:101FAC00736563746F7230207369676E61747572D8
:101FBC00653D30780000000073643A2073656C65F1
:101FCC006374656420706172746974696F6E2074D7
:101FDC00797065203078000073643A207265616412
:101FEC00696E6720626F6F7420736563746F722003
:101FFC006174206C6261200073643A20626F6F74AC
:10200C0020736563746F7220726561642066616908
:10201C006C65640D0A00000073643A206E6F2070CA
:10202C006172746974696F6E20656E747279206662
:10203C006F756E643B207472656174696E67207392
:10204C006563746F72203020617320626F6F74202F
:10205C00736563746F720D0A00000000666174335F
:10206C00323A20756E737570706F727465642042AD
:10207C0050420D0A0000000073643A20464154336C
:10208C003220617578696C696172792070726F6247
:10209C0065206661696C65640D0A000066617433C5
:1020AC00323A20726F6F74206469726563746F7258
:1020BC00790D0A0066617433323A20726F6F7420A6
:1020CC006469726563746F727920726561642066ED
:1020DC0061696C65640D0A0066617433323A2043A1
:1020EC004D444C494E452E5458542000206279746E
:1020FC0065733A200000000066617433323A204365
:10210C004D444C494E452E54585420726561642000
:10211C006661696C65640D0A0000000066617433C9
:10212C00323A20434F4E4649472E54585420707231
:10213C00656669783A20000066617433323A204350
:10214C004F4E4649472E54585420726561642066A0
:10215C0061696C65640D0A0066617433323A2073F0
:10216C00656C656374656420766F6C756D6520694C
:10217C0073206E6F742046415433320D0A000000F8
:10218C0073645F66617433325F726F3A20636F6D94
:10219C00706C6574650D0A00303132333435363766
:1021AC00383941424344454600000000434F4E46F7
:1021BC004947202054585400434D444C494E452027
:1021CC0054585400000000000000000001020304F9
:0421DC0006070809E1
:0421E00000127A006F
:04000005080018E5F2
:00000001FF
