:020000040800F2
:10000000005000204D130008491300084913000850
:1000100049130008491300084913000800000000B4
:10002000000000000000000000000000491300086C
:10003000491300080000000049130008711100086E
:100040004913000849130008491300084913000820
:100050004913000849130008491300084913000810
:100060004913000849130008491300084913000800
:1000700049130008491300084913000849130008F0
:1000800049130008491300084913000849130008E0
:1000900049130008491300084913000849130008D0
:1000A00049130008491300084913000849130008C0
:1000B00049130008491300084913000849130008B0
:1000C00049130008491300084913000849130008A0
:1000D0004913000849130008491300084913000890
:0C00E000491300084913000849130008E8
:1000EC00034B1A68024B1B689B1A8342FAD3704766
:1000FC0008020020034B1B6813F0800FFAD0014B51
:10010C00586070470038014010B5044602E00134D5
:10011C00FFF7F0FF20780028F9D110BD38B5044660
:10012C000309054DE85CFFF7E5FF04F00F04285DBB
:10013C00FFF7E0FF38BD00BFAC1A000810B504464D
:10014C00000AFFF7EBFFE0B2FFF7E8FF10BD10B5B8
:10015C000446000CFFF7F2FFA0B2FFF7EFFF10BD53
:10016C0010B584B010B10246002414E03020FFF723
:10017C00C1FF1DE00F4BA3FB0213DB08194603EB79
:10018C008303A2EB4303303304F110026A4402F8F8
:10019C000C3C0A460134002AECD107E0013C04F186
:1001AC0010036B4413F80C0CFFF7A4FF002CF5D1D3
:1001BC0004B010BDCDCCCCCC124A936943F480432F
:1001CC0043F005039361A2F58832536823F00403CE
:1001DC0053600D4B5A6822F47F625A605A6842F49D
:1001EC0096625A60094A0023D360094B1B6803F5D9
:1001FC00E1430849A1FB0313DB0B936042F20C03B0
:10020C00D3607047001002400008014000380140E4
:10021C0000000020C5B3A291084A936943F0100373
:10022C009361074B5A6822F470025A605A6842F480
:10023C0000125A604FF400521A61704700100240CD
:10024C000010014020B1054B4FF400525A61704729
:10025C00024B4FF400521A61704700BF001001406E
:10026C00074B1A6822F040021A601A6822F0380212
:10027C0002431A601A6842F040021A60704700BFCD
:10028C0000300140124A936943F4805343F0050354
:10029C009361A2F58832536823F0010353600D4B30
:1002AC001A6892B21A601A6842F0344242F431026F
:1002BC001A6010221A6103F520534FF44D721A6024
:1002CC0000225A601A6842F040021A60704700BF60
:1002DC000010024000080140074B9B6813F0020F0E
:1002EC00FAD0054B1873044B9B6813F0010FFAD02E
:1002FC00014B187B704700BF0030014008B5034B21
:10030C0010221A61FF20FFF7E7FF08BD000801402B
:10031C0038B50546002400E00134AC4206D2FF207B
:10032C00FFF7DAFFFF28F7D1012000E0002038BDED
:10033C0008B5044B10225A614CF25030FFF7E8FF1D
:10034C0008BD00BF0008014010B5FFF7D7FF00241F
:10035C0003E0FF20FFF7C0FF0134092CF9D910BDD1
:10036C0038B50C46154640F04000FFF7B5FF200E9F
:10037C00FFF7B2FFC4F30740FFF7AEFFC4F307204B
:10038C00FFF7AAFFE0B2FFF7A7FF2846FFF7A4FF8D
:10039C000024FF20092C07D8FF20FFF79DFF10F049
:1003AC00800F01D00134F5E738BD70B504460D4619
:1003BC001646FFF7A3FFFFF7BBFF48B132462946AD
:1003CC002046FFF7CDFF0446FFF798FF204670BD8F
:1003DC00FFF794FFFF24F9E738B504460D46FF22DA
:1003EC0000213720FFF7E1FF012800D938BDFF229B
:1003FC0029462046FFF7D9FFF8E7000070B50646FE
:10040C000D46FF2000240F4B9C4206D8FF20FFF71F
:10041C0063FFFF2801D10134F5E7FE2810D1002439
:10042C0004E0FF20FFF758FF30550134AC42F8D3FD
:10043C00FF20FFF751FFFF20FFF74EFF012070BD9B
:10044C000020FCE79F86010070B504460D46FFF7BF
:10045C0055FFFFF76DFF78B1FF2200212046FFF713
:10046C007FFF01280DD810212846FFF7C7FF06464D
:10047C0058B1FFF743FF02E00646FFF73FFF304657
:10048C0070BDFFF73BFF0026F9E7FFF737FFF6E7F4
:10049C002DE9F04383B00546FFF730FFFFF748FF27
:1004AC00064658B3FF2200213A20FFF759FF0128D6
:1004BC0027D8FF20FFF710FF81468DF80400FF209E
:1004CC00FFF70AFF04468DF80500FF20FFF704FF35
:1004DC0080468DF80600FF20FFF7FEFE07468DF8DC
:1004EC000700FFF70BFF240444EA096444EA0824DC
:1004FC003C432C60304603B0BDE8F083FFF7FEFEB2
:10050C00F8E7FFF7FBFE0026F4E7000070B50446A1
:10051C000D46124B1B7803B94402FFF7EFFEFFF7B1
:10052C0007FF064678B1FF2221461120FFF718FF7E
:10053C0068B94FF400712846FFF760FF064650B1CA
:10054C00FFF7DCFE01E0FFF7D9FE304670BDFFF788
:10055C00D5FE0026F9E7FFF7D1FEF6E704020020EE
:10056C0000B58646002001E00139C9B291420FD393
:10057C00CB08C3F10F03DBB201F0070C1EF80330FC
:10058C0043FA0CF303F0010343EA40009142EBD130
:10059C005DF804FB70B506460D46002403E0305DA3
:1005AC00FFF7BCFD0134AC4205D2002CF7D0202063
:1005BC00FFF7A0FDF3E70248FFF7A6FD70BD00BFF3
:1005CC00281400084FF0000C9C450FD210B50CEB12
:1005DC000104045D12F80CE0744505D10CF1010C1A
:1005EC009C45F4D3012010BD0020FCE7012070478E
:1005FC000378407843EA002070470378427843EA56
:10060C000223827843EA0243C07843EA00607047D1
:10061C0038B50546FFF7F1FF0446281DFFF7EDFF3F
:10062C000146204638BD000008B50823024A0321C4
:10063C00FFF7C8FF08BD00BF2C14000808B508233D
:10064C00024A5221FFF7BEFF08BD00BF3814000854
:10065C0010B504460823084A3621FFF7B3FF40B90A
:10066C000823064A36212046FFF7ACFF10B10120C3
:10067C0000E0012010BD00BF441400085014000815
:10068C0030B587B050EA010302D0024600241FE0C7
:10069C003020FFF72FFD55E001201FE018442A4CB5
:1006AC00A4FB003525F0030303EB9503C01A101AC5
:1006BC0061F100014FF0CC3300FB03F304FB013379
:1006CC00A0FB04042344400840EAC3725908644662
:1006DC0052EA010334D000205318DDD203441A4DE2
:1006EC00A5FB030C2CF0030000EB9C001B1AD31A87
:1006FC0061F1000C4FF0CC3003FB00F005FB0C005B
:10070C00A3FB053528445B0843EAC07303EB830362
:10071C00A2EB430304F1010C303304F118000DEB90
:10072C00000404F8143C00235018B7D30123B5E798
:10073C00013C04F118036B4413F8140CFFF7DAFCBA
:10074C00002CF5D107B030BDCDCCCCCC70B5064665
:10075C00002510E02020FFF7CDFC2B19F05CFFF7F3
:10076C00DDFC01340F2C02D8002CF6D0F2E709483E
:10077C00FFF7CAFC10351F2D0AD80748FFF7C4FC39
:10078C00A8B2FFF7DBFC0548FFF7BEFC0024E9E745
:10079C0070BD00BF281400085C1400086C1400081D
:1007AC000E2806D845F6D20323FA00F000F001001B
:1007BC0070470020704738B505460C4603780B701F
:1007CC0003794B700830FFF718FF606005F10C00DF
:1007DC00FFF713FFA06038BD38B505460C4611482D
:1007EC00FFF792FC2846FFF7BBFC0F48FFF78CFC89
:1007FC002078FFF793FC0D48FFF786FC6078FFF735
:10080C008DFC0B48FFF780FC6068FFF7A9FC0948DA
:10081C00FFF77AFCA068FFF7A3FC0748FFF774FC0E
:10082C0038BD00BF701400087C1400088814000840
:10083C0094140008A0140008281400082DE9F04FA7
:10084C0089B093460026039602960196B246B146AD
:10085C0034460091804600E00134032C28D8200156
:10086C0000F5DF7005AD29464044FFF7A4FF29468B
:10087C002046FFF7B1FF9DF81550002DECD0069FD8
:10088C00002FE9D0079B002BE6D0B9F1000F03D164
:10089C00029501974FF00109BAF1000FDCD12846FF
:1008AC00FFF77EFF0028D7D02E4603978246D3E76A
:1008BC00DDF80080BAF1000F06D1B9F1000F0AD1B2
:1008CC00484609B0BDE8F08F039BC8F800308BF8A0
:1008DC000060D146F4E7019BC8F80030029B8BF80E
:1008EC000030EDE72DE9F04F85B004460B30FFF7F3
:1008FC007FFE074694F80DB004F10E00FFF778FE6A
:10090C00019094F810A004F11100FFF771FE029011
:10091C0004F11300FFF76CFE0646814604F1160045
:10092C00FFF766FE0546804604F11C00FFF765FEE6
:10093C00039026B904F12000FFF75FFE814625B92C
:10094C0004F12400FFF759FE80461D48FFF7DCFB3D
:10095C003846FFF705FC1B48FFF7D6FB5846FFF758
:10096C00FFFB1948FFF7D0FB0198FFF7F9FB17487D
:10097C00FFF7CAFB5046FFF7F3FB154C2046FFF779
:10098C00C3FB1448FFF7C0FB0298FFF7E9FB1248C2
:10099C00FFF7BAFB0398FFF7E3FB1048FFF7B4FB34
:1009AC004846FFF7DDFB0E48FFF7AEFB4046FFF76E
:1009BC00D7FB2046FFF7A8FB05B0BDE8F08F00BFC2
:1009CC00AC140008C8140008E0140008EC1400086B
:1009DC0028140008F41400080C1500082015000851
:1009EC00301500082DE9F04F85B004460D466F48D0
:1009FC00FFF78AFB2846FFF7B3FB6D48FFF784FB34
:100A0C0094F8FF01FFF78AFB94F8FE01FFF786FBD1
:100A1C006848FFF779FB2046FFF706FE88B92046A9
:100A2C00FFF70CFE002840F086802046FFF710FEF2
:100A3C00002840F0A5806048FFF766FB05B0BDE8D4
:100A4C00F08F04F14000FFF7E3FD8146884604F186
:100A5C004800FFF7DDFD07460E4604F15000FFF796
:100A6C00CCFD009004F15400FFF7C7FD019004F198
:100A7C005800FFF7C2FD029004F15C00FFF7BDFDCA
:100A8C00039004F16000FFF7B8FD824694F86CB057
:100A9C0094F86D30012505FA0BFB9D404748FFF794
:100AAC0033FB4748FFF730FB5846FFF759FB4548E7
:100ABC00FFF72AFB2846FFF753FB4348FFF724FBBD
:100ACC0094F86E00FFF74CFB4048FFF71DFB5046B7
:100ADC00FFF746FB374C2046FFF716FB3C48FFF769
:100AEC0013FB48464146FFF7CBFD3A48FFF70CFB9A
:100AFC0038463146FFF7C4FD2046FFF705FB364864
:100B0C00FFF702FB0098FFF72BFB3448FFF7FCFACA
:100B1C000198FFF725FB3248FFF7F6FA0298FFF72A
:100B2C001FFB3048FFF7F0FA0398FFF719FB20463C
:100B3C00FFF7EAFA82E72C48FFF7E6FA2046FFF7C0
:100B4C00D1FE2A48FFF7E0FA04F12C00FFF755FD1F
:100B5C00FFF706FB2648FFF7D7FA04F13000FFF742
:100B6C0047FDFFF7FDFA2348FFF7CEFA04F13200F8
:100B7C00FFF73EFDFFF7F4FA0E48FFF7C5FA5DE705
:100B8C001D48FFF7C1FA08231C4A36212046FFF7FF
:100B9C0019FD30B11A48FFF7B7FA2046FFF7A2FE4D
:100BAC004CE71848FFF7B0FAF7E700BF401500080C
:100BBC0058150008281400088C1600086815000841
:100BCC0080150008C8140008EC1400089C150008D7
:100BDC00AC150008C8150008D8150008F015000859
:100BEC000016000810160008201600083816000819
:100BFC00501600085C1600086C1600084414000817
:100C0C007C1600088416000870B50E461546FFF7D2
:100C1C007BFA002403E0305DFFF780FA0134AC422C
:100C2C0005D2002CF7D02020FFF764FAF3E7024836
:100C3C00FFF76AFA70BD00BF281400082DE9F843CD
:100C4C0006460D4601F13000FFF7D2FC044605F1D3
:100C5C000E00FFF7CDFC8519631E9BB24FF6FD729B
:100C6C00934253D834443948FFF74EFA2046FFF7E5
:100C7C0077FA3748FFF748FA36492046FFF746FC23
:100C8C000446002851D0334C2046FFF7B6FC814671
:100C9C0004F5F270FFF7B1FC804604F5F470FFF731
:100CAC00ACFC074604F5F670FFF7A7FC064604F506
:100CBC00FE70FFF7A2FC04462748FFF725FA4846CA
:100CCC00FFF745FA2548FFF71FFA4046FFF73FFAB2
:100CDC002348FFF719FA2046FFF739FA1C48FFF7AB
:100CEC0013FA2048FFF710FAB7F1FF3F20D038462F
:100CFC00FFF736FA1C48FFF707FAB6F1FF3F1BD097
:100D0C003046FFF72DFA1248FFF7FEF91748FFF7A8
:100D1C00FBF92846FFF724FA0D48FFF7F5F90D49C2
:100D2C002846FFF7F3FB044650B92046BDE8F8838C
:100D3C000F48FFF7E9F9DDE70D48FFF7E5F9E2E7C2
:100D4C00102204490B48FFF75FFFEEE7C4160008BA
:100D5C002814000804000020E8160008FC160008FF
:100D6C000817000814170008381700084417000863
:100D7C003017000864170008F8B50446437A857AE2
:100D8C002D0445EA0365C37A45EA0325037B1D431D
:100D9C000C221321FFF7E4FB00F5FA6708220B2164
:100DAC002046FFF7DDFB06462948FFF7ADF9102179
:100DBC002046FFF7EFFB2748FFF7A6F92078FFF74F
:100DCC00ADF92548FFF7A0F96078FFF793F9A07803
:100DDC00FFF790F92148FFF797F9E078FFF78AF9C8
:100DEC002079FFF787F96079FFF784F9A079FFF78D
:100DFC0081F9E079FFF77EF91948FFF785F9207A38
:100E0C000009FFF7ADF92E20FFF774F9207A00F0F6
:100E1C000F00FFF7A5F91348FFF776F92846FFF7FF
:100E2C0096F91148FFF770F93846FFF799F92D201C
:100E3C00FFF760F9092E06D93046FFF791F90B48F8
:100E4C00FFF762F9F8BD3020FFF754F9F4E700BF63
:100E5C00781700088817000898170008A0170008D2
:100E6C00A8170008B0170008B817000828140008C5
:100E7C0070B505467E227F21FFF772FB044623489E
:100E8C00FFF742F910212846FFF784FB2048FFF7B3
:100E9C003BF92046FFF764F91E48FFF735F9012CA2
:100EAC0017D0F4B9502253212846FFF759FB0646B8
:100EBC003E2249212846FFF753FB04462F223121BD
:100ECC002846FFF74DFB013402308440B440640ADD
:100EDC0006E0302245212846FFF742FB441CA402C1
:100EEC001CB90D48FFF710F970BDE50A0B48FFF768
:100EFC000BF92046FFF734F90948FFF705F92846A6
:100F0C00FFF72EF90348FFF7FFF8EDE7C0170008CD
:100F1C00D01700082814000804180008E41700086B
:100F2C00F41700082DE9F04F83B006460F469046A3
:100F3C0000247E4B1C70FFF707FA7D48FFF7E4F89E
:100F4C002546132D09D8952200210846FFF72DFAC6
:100F5C000446012801D00135F3E77648FFF7D4F8B1
:100F6C002046FFF7DBF87448FFF7CEF8012C04D0CD
:100F7C000024204603B0BDE8F08FFFF7BFF9FFF760
:100F8C00D7F90446002851D087224FF4D571082098
:100F9C00FFF7E6F90546FF20FFF79EF983468DF82B
:100FAC000400FF20FFF798F982468DF80500FF201A
:100FBC00FFF792F981468DF80600FF20FFF78CF9B8
:100FCC0004468DF80700FFF799F95C48FFF79CF889
:100FDC002846FFF7A3F85A48FFF796F85846FFF74C
:100FEC009DF82020FFF786F85046FFF797F8202051
:100FFC00FFF780F84846FFF791F82020FFF77AF8C2
:10100C002046FFF78BF84C48FFF77EF815F0040FDD
:10101C000FD00024B4F57A7F71D200212920FFF77C
:10102C00DBF9054600286AD00134F3E7FFF766F9CF
:10103C009FE70024B4F57A7F08D24FF08041292035
:10104C00FFF7CAF9054608B10134F3E73D48FFF74D
:10105C005BF8601CFFF784F83B48FFF755F828460F
:10106C00FFF75CF83448FFF74FF8002D5CD13046A1
:10107C00FFF70EFA044600283FF47BAF3368C3F346
:10108C0080732A4C23703148FFF73EF83068FFF725
:10109C005EF82F48FFF738F82378002B42D02D4804
:1010AC00FFF732F82448FFF72FF8204B1C7894B93F
:1010BC00FF224FF400711020FFF777F90546264800
:1010CC00FFF722F82846FFF729F81B48FFF71CF812
:1010DC00002D7FF44EAF39460A20FFF7B5F90446D0
:1010EC0000283FF446AF41460920FFF7ADF904460E
:1010FC0000283FF43EAF1020FFF7B2F839E717484D
:10110C00FFF702F8601CFFF72BF80F48FEF7FCFF07
:10111C002846FFF703F80848FEF7F6FF002DA6D087
:10112C00002426E70E48BBE7002422E70402002037
:10113C0050180008601800082814000870180008DF
:10114C00801800088818000868180008B8180008EB
:10115C00C41800083C180008CC180008A018000897
:10116C0048180008024A136801331360704700BF27
:10117C000802002000B58DB000230B930A938DF864
:10118C00273000F001F95B4B1B685B4AA2FB032381
:10119C009B09013BB3F1807F0AD24FF0E0225361EF
:1011AC00564BF02183F8231000239361072313611E
:1011BC00FFF732F8FFF700F8FFF764F85048FEF736
:1011CC00A3FF5048FEF7A0FF4F48FEF79DFF4FF4DA
:1011DC007A70FEF785FF0120FFF734F801AA05A904
:1011EC000BA8FFF79FFE48B9FFF72CF84748FEF70E
:1011FC008BFF4FF47A70FEF773FFFAE705A8FFF741
:10120C00BBFD01A8FFF734FE4148FEF77DFF4149C5
:10121C000020FFF77BF948B9FFF714F83E48FEF7BA
:10122C0073FF4FF47A70FEF75BFFFAE7394C2046F8
:10123C00FFF78CFA3948FEF767FF94F8FF01FEF7C9
:10124C006DFF94F8FE01FEF769FF3548FEF75CFF71
:10125C000DF127020AA92046FFF7F0FA10B3314826
:10126C00FEF752FF9DF82700FEF758FF2C4C204646
:10127C00FEF74AFF2C48FEF747FF0A98FEF770FF6F
:10128C002046FEF741FF23490A98FFF73FF970B952
:10129C00FEF7D8FF2548FEF737FF4FF47A70FEF7BC
:1012AC001FFFFAE72248FEF72FFF00230A93194C81
:1012BC000A992046FFF796FB2046FFF7BFF920B1AD
:1012CC0021460A98FFF7BAFC50B11A48FEF71CFFEA
:1012DC000020FEF7B7FF4FF47A70FEF701FFFAE734
:1012EC00FEF7B0FF1448FEF70FFF4FF47A70FEF7CD
:1012FC00F7FEFAE700000020D34D621000ED00E08D
:10130C00DC180008081900083C19000868190008C6
:10131C007C1900080400002094190008B01900087A
:10132C0028140008CC190008EC1900080C1A000845
:10133C002C1A0008941A0008701A0008FEE7000026
:10134C0008B500F01FF80A4B0A4A03E052F8041BD8
:10135C0043F8041B08498B42F8D3084B02E00022E7
:10136C0043F8042B064A9342F9D3FFF703FFFEE739
:10137C0000000020D01A0008040000200400002007
:10138C000C020020704700001F4B5B6803F00C033D
:10139C00042B11D0082B13D0002B31D11B4B1C4A22
:1013AC001A60194B5B68C3F303131A4AD15C174AD2
:1013BC001368CB4013607047144B154A1A60F0E762
:1013CC00114A53685268C3F38343023312F4803FCB
:1013DC0005D1114A02FB03F30C4A1360E1E70A4AF8
:1013EC00526812F4003F05D00B4A02FB03F3074A84
:1013FC001360D6E7064A02FB03F3044A1360D0E7F6
:10140C00024B034A1A60CCE7001002400000002097
:10141C0000127A00C01A000800093D000D0A0000F5
:10142C0045584641542020200000000046415433CA
:10143C003220202000000000464154313220202070
:10144C0000000000464154313620202000000000EE
:10145C0073643A20736563746F723020000000006F
:10146C003A20000073643A2070617274000000002E
:10147C0020626F6F743D307800000000207479702A
:10148C00653D3078000000002073746172745F6CED
:10149C0062613D0020736563746F72733D000000E0
:1014AC0073643A204250422062797465735F7065B0
:1014BC00725F736563746F723D0000002073656327
:1014CC00746F72735F7065725F636C757374657241
:1014DC003D0000002072657365727665643D000006
:1014EC0020666174733D000073643A2042504220C0
:1014FC00726F6F745F656E74726965733D00000086
:10150C002068696464656E5F736563746F72733DA4
:10151C000000000020746F74616C5F736563746FFE
:10152C0072733D00206661745F736563746F7273D0
:10153C003D00000073643A20626F6F742073656322
:10154C00746F72206C62613D00000000207369674B
:10155C006E61747572653D307800000073643A20DA
:10156C0066696C6573797374656D3D657846415435
:10157C000D0A000073643A20657846415420627964
:10158C007465735F7065725F736563746F723D0031
:10159C0020726F6F745F636C75737465723D0000BD
:1015AC0073643A2065784641542070617274697492
:1015BC00696F6E5F6F66667365743D0020766F6C45
:1015CC00756D655F6C656E6774683D0073643A2079
:1015DC006578464154206661745F6F666673657406
:1015EC003D000000206661745F6C656E6774683D39
:1015FC000000000020686561705F6F66667365743B
:10160C003D00000020636C75737465725F636F75C9
:10161C006E743D0073643A2066696C6573797374FB
:10162C00656D3D46415433320D0A000073643A2017
:10163C00464154333220726F6F745F636C757374F0
:10164C0065723D00206673696E666F3D0000000098
:10165C00206261636B75705F626F6F743D00000098
:10166C0073643A2066696C6573797374656D3D00BB
:10167C0046415431320D0A0046415431360D0A00B0
:10168C0073643A2066696C6573797374656D207444
:10169C00797065206E6F74207265636F676E697AFE
:1016AC0065642066726F6D20626F6F742073656362
:1016BC00746F720D0A00000073643A2072656164E5
:1016CC00696E67204653496E666F20736563746F4D
:1016DC0072206174206C62612000000073643A20F7
:1016EC004653496E666F206C6561643D307800002E
:1016FC00207374727563743D3078000020747261CD
:10170C00696C3D307800000073643A204653496E92
:10171C00666F20667265655F636C75737465727352
:10172C003D000000756E6B6E6F776E00206E6578F5
:10173C00745F667265653D0073643A20726561641E
:10174C00696E672046415420736563746F72206123
:10175C0074206C626120000073643A204641545B33
:10176C00305D20666972737431363D0073643A20C3
:10177C00434944207261773A2000000073643A2098
:10178C00434944204D49443D30780000204F4944A2
:10179C003D00000020504E4D3D00000020505256A0
:1017AC003D0000002050534E3D307800204D4454F5
:1017BC003D00000073643A20435344207261773A31
:1017CC002000000073643A204353442073747275F4
:1017DC00637475726520000073643A2073656374DA
:1017EC006F72733D00000000206361706163697467
:1017FC00795F6D69623D000073643A2063617061CA
:10180C006369747920706172736520756E7375707D
:10181C00706F7274656420666F72207468697320CF
:10182C00435344206C61796F75740D0A00000000FD
:10183C00534448432F5344584300000053445343EC
:10184C000000000073643A20434D44302E2E2E0DC0
:10185C000A00000073643A20434D44302052313D5D
:10186C003078000073643A20434D44382052313DA7
:10187C00307800002052373D0000000073643A209D
:10188C0041434D4434312876322920706F6C6C738F
:10189C003D00000073643A2041434D4434312876B6
:1018AC00312920706F6C6C733D00000073643A201A
:1018BC004F43523D3078000020747970653D000034
:1018CC0073643A20434D4431362052313D30780018
:1018DC000D0A73645F7370695F70726F62653A2092
:1018EC0053544D3332463130334338205350493101
:1018FC00202F205553415254310D0A0073645F73ED
:10190C0070695F70726F62653A205041343D435389
:10191C00205041353D53434B205041363D4D4953AA
:10192C004F205041373D4D4F53490D0A00000000E8
:10193C0073645F7370695F70726F62653A20737461
:10194C00617274696E672070726F626520696E20B7
:10195C0031303030206D730D0A00000073643A2072
:10196C00696E6974206661696C65640D0A0000001B
:10197C0073643A2072656164696E67207365637481
:10198C006F7220300D0A000073643A20434D4431CD
:10199C003720626C6F636B2030206661696C656404
:1019AC000D0A000073643A20736563746F72302003
:1019BC007369676E61747572653D30780000000064
:1019CC0073643A2073656C6563746564207061722E
:1019DC00746974696F6E20747970652030780000BA
:1019EC0073643A2072656164696E6720626F6F740C
:1019FC0020736563746F72206174206C62612000C7
:101A0C0073643A20626F6F7420736563746F722015
:101A1C0072656164206661696C65640D0A00000082
:101A2C0073643A206E6F20706172746974696F6EA2
:101A3C0020656E74727920666F756E643B207472CB
:101A4C00656174696E6720736563746F72203020F2
:101A5C00617320626F6F7420736563746F720D0A0B
:101A6C000000000073643A20464154333220617503
:101A7C0078696C696172792070726F626520666139
:101A8C00696C65640D0A000073643A2070726F62B1
:101A9C006520636F6D706C6574650D0A0000000045
:101AAC003031323334353637383941424344454688
:101ABC000000000000000000000000000102030410
:041ACC0006070809F8
:041AD00000127A0086
:040000050800134D8F
:00000001FF
