:020000040800F2
:1000000000500020A9010008A5010008A501000872
:10001000A5010008A5010008A501000800000000D6
:10002000000000000000000000000000A501000822
:10003000A501000800000000A50100082D0100082E
:10004000A5010008A5010008A5010008A5010008F8
:10005000A5010008A5010008A5010008A5010008E8
:10006000A5010008A5010008A5010008A5010008D8
:10007000A5010008A5010008A5010008A5010008C8
:10008000A5010008A5010008A5010008A5010008B8
:10009000A5010008A5010008A5010008A5010008A8
:1000A000A5010008A5010008A5010008A501000898
:1000B000A5010008A5010008A5010008A501000888
:1000C000A5010008A5010008A5010008A501000878
:1000D000A5010008A5010008A5010008A501000868
:0C00E000A5010008A5010008A50100080A
:1000EC00034B1A68024B1B689B1A8342FAD3704766
:1000FC0004000020084A936943F010039361074BF6
:10010C005A6822F470025A605A6842F400125A601B
:10011C004FF400521A617047001002400010014069
:10012C00024A136801331360704700BF04000020BB
:10013C0010B500F057F8FFF7DDFF134B1B68134A9F
:10014C00A2FB03239B09013BB3F1807F0AD24FF042
:10015C00E02253610E4BF02183F8231000239361AE
:10016C0007231361002408E00A4B4FF400525A6134
:10017C0084F00104FA20FFF7B3FF002CF4D0054BF8
:10018C004FF400521A61F3E700000020D34D6210C7
:10019C0000ED00E000100140FEE7000008B500F0A3
:1001AC001FF80A4B0A4A03E052F8041B43F8041BDD
:1001BC0008498B42F8D3084B02E0002243F8042B89
:1001CC00064A9342F9D3FFF7B3FFFEE70000002085
:1001DC009402000804000020040000200800002005
:1001EC00704700001F4B5B6803F00C03042B11D00D
:1001FC00082B13D0002B31D11B4B1C4A1A60194B06
:10020C005B68C3F303131A4AD15C174A1368CB40DB
:10021C0013607047144B154A1A60F0E7114A536883
:10022C005268C3F38343023312F4803F05D1114A61
:10023C0002FB03F30C4A1360E1E70A4A526812F41A
:10024C00003F05D00B4A02FB03F3074A1360D6E7C5
:10025C00064A02FB03F3044A1360D0E7024B034A3D
:10026C001A60CCE7001002400000002000127A0057
:10027C008402000800093D0000000000000000009E
:08028C00010203040607080942
:0402940000127A00DA
:04000005080001A945
:00000001FF
