:020000040800F2
:1000000000500020112500080D2500080D250008CE
:100010000D2500080D2500080D2500080000000032
:100020000000000000000000000000000D25000896
:100030000D250008000000000D250008690C0008CF
:100040000D2500080D2500080D2500080D250008C8
:100050000D2500080D2500080D2500080D250008B8
:100060000D2500080D2500080D2500080D250008A8
:100070000D2500080D2500080D2500080D25000898
:100080000D2500080D2500080D2500080D25000888
:100090000D2500080D2500080D2500080D25000878
:1000A0000D2500080D2500080D2500080D25000868
:1000B0000D2500080D2500080D2500080D25000858
:1000C0000D2500080D2500080D2500080D25000848
:1000D0000D2500080D2500080D2500080D25000838
:0C00E0000D2500080D2500080D25000866
:1000EC00034B1A68024B1B689B1A8342FAD3704766
:1000FC0010000020034B1B6813F0800FFAD0014B4B
:10010C00586070470038014010B5044602E00134D5
:10011C00FFF7F0FF20780028F9D110BD38B5044660
:10012C000309054DE85CFFF7E5FF04F00F04285DBB
:10013C00FFF7E0FF38BD00BFBC2B000810B504462C
:10014C00000AFFF7EBFFE0B2FFF7E8FF10BD10B5B8
:10015C000446000CFFF7F2FFA0B2FFF7EFFF10BD53
:10016C0010B584B010B10246002414E03020FFF723
:10017C00C1FF1DE00F4BA3FB0213DB08194603EB79
:10018C008303A2EB4303303304F110026A4402F8F8
:10019C000C3C0A460134002AECD107E0013C04F186
:1001AC0010036B4413F80C0CFFF7A4FF002CF5D1D3
:1001BC0004B010BDCDCCCCCC10B50446A0F12003BE
:1001CC00DBB25E2B0AD90A280BD00D280DD00948BA
:1001DC00FFF79AFF2046FFF7A1FF10BDFFF78AFF3C
:1001EC00FBE70548FFF790FFF7E70448FFF78CFFA4
:1001FC00F3E700BFAC280008A4280008A8280008D2
:10020C00124A936943F4804343F005039361A2F5CA
:10021C008832536823F0040353600D4B5A6822F460
:10022C007F625A605A6842F496625A60094A002307
:10023C00D360094B1B6803F5E1430849A1FB031389
:10024C00DB0B936042F20C03D3607047001002404A
:10025C00000801400038014004000020C5B3A29101
:10026C00084A936943F010039361074B5A6822F4D0
:10027C0070025A605A6842F400125A604FF40052ED
:10028C001A617047001002400010014020B1054B6C
:10029C004FF400525A617047024B4FF400521A61EE
:1002AC00704700BF00100140074B1A6822F0400253
:1002BC001A601A6822F0380202431A601A6842F077
:1002CC0040021A60704700BF00300140124A936927
:1002DC0043F4805343F005039361A2F588325368CD
:1002EC0023F0010353600D4B1A6892B21A601A681E
:1002FC0042F0344242F431021A6010221A6103F5C2
:10030C0020534FF44D721A6000225A601A6842F062
:10031C0040021A60704700BF001002400008014004
:10032C00074B9B6813F0020FFAD0054B1873044B64
:10033C009B6813F0010FFAD0014B187B704700BF7C
:10034C000030014008B5034B10221A61FF20FFF763
:10035C00E7FF08BD0008014038B50546002400E061
:10036C000134AC4206D2FF20FFF7DAFFFF28F7D1A9
:10037C00012000E0002038BD08B5044B10225A6162
:10038C004CF25030FFF7E8FF08BD00BF00080140F9
:10039C0010B5FFF7D7FF002403E0FF20FFF7C0FFE5
:1003AC000134092CF9D910BD38B50C46154640F06E
:1003BC004000FFF7B5FF200EFFF7B2FFC4F3074074
:1003CC00FFF7AEFFC4F30720FFF7AAFFE0B2FFF779
:1003DC00A7FF2846FFF7A4FF0024FF20092C07D80D
:1003EC00FF20FFF79DFF10F0800F01D00134F5E7DF
:1003FC0038BD70B504460D461646FFF7A3FFFFF750
:10040C00BBFF48B1324629462046FFF7CDFF0446D4
:10041C00FFF798FF204670BDFFF794FFFF24F9E724
:10042C0038B504460D46FF2200213720FFF7E1FFC7
:10043C00012800D938BDFF2229462046FFF7D9FFF5
:10044C00F8E7000070B506460D46FF2000240F4B60
:10045C009C4206D8FF20FFF763FFFF2801D101342F
:10046C00F5E7FE2810D1002404E0FF20FFF758FF29
:10047C0030550134AC42F8D3FF20FFF751FFFF2079
:10048C00FFF74EFF012070BD0020FCE79F860100A6
:10049C0070B504460D46FFF755FFFFF76DFF78B1B9
:1004AC00FF2200212046FFF77FFF01280DD81021E5
:1004BC002846FFF7C7FF064658B1FFF743FF02E097
:1004CC000646FFF73FFF304670BDFFF73BFF0026A7
:1004DC00F9E7FFF737FFF6E72DE9F04383B0054660
:1004EC00FFF730FFFFF748FF064658B3FF22002105
:1004FC003A20FFF759FF012827D8FF20FFF710FFFC
:10050C0081468DF80400FF20FFF70AFF04468DF8A2
:10051C000500FF20FFF704FF80468DF80600FF2042
:10052C00FFF7FEFE07468DF80700FFF70BFF2404CC
:10053C0044EA096444EA08243C432C60304603B086
:10054C00BDE8F083FFF7FEFEF8E7FFF7FBFE0026A1
:10055C00F4E7000070B504460D46124B1B7803B946
:10056C004402FFF7EFFEFFF707FF064678B1FF22C4
:10057C0021461120FFF718FF68B94FF40071284687
:10058C00FFF760FF064650B1FFF7DCFE01E0FFF716
:10059C00D9FE304670BDFFF7D5FE0026F9E7FFF710
:1005AC00D1FEF6E70C00002038B505460C46FF20BE
:1005BC00FFF7B6FE2046FFF7B3FE002403E0285DEC
:1005CC00FFF7AEFE0134B4F5007FF8D3FF20FFF740
:1005DC00A7FEFF20FFF7A4FEFF20FFF7A1FE00F00F
:1005EC001F03052B01D0002038BD0248FFF7B4FED5
:1005FC00FAE700BF400D030070B504460D46124BE0
:10060C001B7803B94402FFF79DFEFFF7B5FE0646C3
:10061C0070B1FF2221461820FFF7C6FE60B9FE21FB
:10062C002846FFF7C1FF064650B1FFF78BFE01E0ED
:10063C00FFF788FE304670BDFFF784FE0026F9E711
:10064C00FFF780FEF6E700BF0C00002000B58646E1
:10065C00002001E00139C9B291420FD3CB08C3F19C
:10066C000F03DBB201F0070C1EF8033043FA0CF356
:10067C0003F0010343EA40009142EBD15DF804FB27
:10068C0070B505467E227F21FFF7E0FF012802D0DE
:10069C0048B1002070BD302245212846FFF7D6FF17
:1006AC0001308002F6E7502253212846FFF7CEFF97
:1006BC0006463E2249212846FFF7C8FF04462F2252
:1006CC0031212846FFF7C2FF01340230844004FA7E
:1006DC0006F0400ADEE700002DE9F0418AB0002464
:1006EC0000948A4B1C708A4B1C60FFF751FE8948A2
:1006FC00FFF70AFD2546132D09D89522002108463F
:10070C00FFF777FE0446012801D00135F3E7824854
:10071C00FFF7FAFC2046FFF701FD8048FFF7F4FCD9
:10072C00012C04D0002420460AB0BDE8F081FFF76C
:10073C0009FEFFF721FE0446002852D087224FF411
:10074C00D5710820FFF730FE0546FF20FFF7E8FDC6
:10075C0080468DF82400FF20FFF7E2FD07468DF858
:10076C002500FF20FFF7DCFD06468DF82600FF2054
:10077C00FFF7D6FD04468DF82700FFF7E3FD684828
:10078C00FFF7C2FC2846FFF7C9FC6648FFF7BCFC24
:10079C004046FFF7C3FC2020FFF7ACFC3846FFF7C0
:1007AC00BDFC2020FFF7A6FC3046FFF7B7FC20204D
:1007BC00FFF7A0FC2046FFF7B1FC5848FFF7A4FC5C
:1007CC0015F0040F10D00024B4F57A7F80F08780E8
:1007DC0000212920FFF724FE054600287FD0013494
:1007EC00F2E7FFF7AFFD9EE70024B4F57A7F08D25D
:1007FC004FF080412920FFF713FE054608B1013464
:10080C00F3E74948FFF780FC601CFFF7A9FC474859
:10081C00FFF77AFC2846FFF781FC4048FFF774FC91
:10082C00002D71D16846FFF757FE044600283FF4AF
:10083C007AAF009BC3F38073344C23703C48FFF7B2
:10084C0063FC0098FFF783FC3A48FFF75DFC2378C4
:10085C00002B57D03848FFF757FC3048FFF754FCB3
:10086C002A4B1C7894B9FF224FF400711020FFF72B
:10087C00C0FD05463148FFF747FC2846FFF74EFC04
:10088C002648FFF741FC002D7FF44DAF05A90A2047
:10089C00FFF7FEFD044600283FF445AF01A90920EF
:1008AC00FFF7F6FD044600283FF43DAF01A8FFF723
:1008BC00E7FE174D28602248FFF726FC2868FFF753
:1008CC004FFC2048FFF720FC2868C00AFFF748FCC3
:1008DC001248FFF719FC1020FFF7E6FC23E71A4833
:1008EC00FFF712FC601CFFF73BFC1048FFF70CFCF9
:1008FC002846FFF713FC0948FFF706FC002D91D0A2
:10090C00002410E71148A6E700240CE70C00002097
:10091C0008000020C4280008D4280008E428000897
:10092C00E8280008F828000800290008DC2800083E
:10093C00302900083C290008B02800084429000888
:10094C00542900086429000818290008BC2800084C
:10095C0030B593B0234907A801F062FD0446224844
:10096C00FFF7D2FB2046FFF7FBFB2048FFF7CCFB41
:10097C00DCB135E01E48FFF7C7FB2846FFF7F0FB5C
:10098C001A48FFF7C1FB2BE01A48FFF7BDFB0DF12E
:10099C000D00FFF7B9FB1848FFF7B6FB0198FFF7FE
:1009AC00DFFB1248FFF7B0FB01343F2C15D801A92F
:1009BC0007A801F079FD05460028DBD19DF80D3024
:1009CC005BB10E48FFF7A0FB9DF80C3013F0100F35
:1009DC00DAD00B48FFF798FBD9E707A801F05AFDCE
:1009EC0013B030BD7429000878290008E4280008E9
:1009FC0090290008B8290008C0290008A829000877
:100A0C00B029000870B59CB004460D460023119324
:100A1C000122014612A801F031FA06461E48FFF7E2
:100A2C0073FB2046FFF770FB1C48FFF76DFB30464D
:100A3C00FFF796FB1A48FFF767FB0EB11CB070BDB1
:100A4C001848FFF761FB2046FFF75EFB1648FFF7DF
:100A5C005BFB0BE004F170036B4413F86C0CFFF7B9
:100A6C00ABFB0134119BA342F4D8ED1A6DB111AB61
:100A7C002A46402D28BF402201A912A801F0E4FA11
:100A8C0018B9119B0BB10024ECE70548FFF73CFBB0
:100A9C0012A801F0B5FCD1E7C8290008D829000834
:100AAC00E4280008A8290008E0290008F0B5A5B042
:100ABC0006460D4600241994189400E001342B5D71
:100ACC00002BFBD10A2231461AA801F0D7F90746B0
:100ADC005748FFF719FB3046FFF716FB5548FFF751
:100AEC0013FB3846FFF73CFB5348FFF70DFB0FB1E8
:100AFC0025B0F0BD19AB224629461AA801F059FBC6
:100B0C0005464E48FFF700FB3046FFF7FDFA4C4810
:100B1C00FFF7FAFA2846FFF723FB4A48FFF7F4FAE7
:100B2C001998FFF71DFB4448FFF7EEFA15B9199B0E
:100B3C00A34203D01AA801F063FCD9E71AAF3846D8
:100B4C0001F026FC05464048FFF7DEFA3046FFF779
:100B5C00DBFA3B48FFF7D8FA2846FFF701FB36488B
:100B6C00FFF7D2FA384601F04BFC002DC0D1012220
:100B7C003146384601F082F905462D48FFF7C4FA94
:100B8C003046FFF7C1FA3148FFF7BEFA2846FFF7A7
:100B9C00E7FA2948FFF7B8FA002DA9D15F2C00D944
:100BAC005F2400235F2B07D803F190026A440025D1
:100BBC0002F8905C0133F5E71AAD18AB2246694692
:100BCC00284601F041FA04462148FFF79DFA3046C9
:100BDC00FFF79AFA1A48FFF797FA2046FFF7C0FA80
:100BEC001848FFF791FA1898FFF7BAFA1248FFF76E
:100BFC008BFA284601F004FC002C7FF479AF1548E1
:100C0C00FFF782FA3046FFF77FFA1348FFF77CFABA
:100C1C0007E004F190036B4413F8900CFFF7CCFA47
:100C2C000134189BA342F4D80348FFF76DFA5FE731
:100C3C00C8290008EC290008E4280008F829000855
:100C4C00D8290008082A0008102A0008202A0008C1
:100C5C002C2A0008A82900083C2A0008024A13681C
:100C6C0001331360704700BF1000002098B908B51D
:100C7C000A4B187810F0010F00D108BDFFF72CFDBE
:100C8C0028B1064B00221A70044B1878F5E7034B79
:100C9C0001221A70F8E70120704700BF0000002005
:100CAC0010B9024B187870470120704700000020E3
:100CBC002DE9F041A0B90E4617461D469BB10F4BCE
:100CCC0093F8008018F0010810D10024AC4212D225
:100CDC0006EB4421E019FFF73DFC50B10134F5E778
:100CEC004FF0040807E04FF0040804E04FF003084D
:100CFC0001E04FF001084046BDE8F0810000002003
:100D0C002DE9F041D8B90E4617461D46E3B1134BF9
:100D1C0093F8008018F0010F19D118F0040819D1BC
:100D2C00002400E00134AC420BD206EB4421E01964
:100D3C00FFF762FC0028F5D14FF0010801E04FF0FD
:100D4C0004084046BDE8F0814FF00408F9E74FF085
:100D5C000308F6E74FF00208F3E700BF000000209D
:100D6C0060BB10B50C46184B187810F0010027D159
:100D7C00032927D8DFE801F002171B1FFFF7E2FA5F
:100D8C00FFF7FAFA38B11148FFF7E6FA38B1FFF776
:100D9C00D9FA204615E0FFF7D5FA032011E0FFF74A
:100DAC00D1FA01200DE00A4B1B68136009E04FF4E7
:100DBC000073138005E00123136002E004207047E8
:100DCC00032010BD0420FCE700000020400D0300B0
:100DDC000800002010B5ADF50C7D01F0B7FB414BC0
:100DEC001B68414AA2FB03239B09013BB3F1807FA3
:100DFC000AD24FF0E02253613C4BF02183F82310D0
:100E0C000023936107231361FFF72AFAFFF7F8F920
:100E1C00FFF75CFA3648FFF777F93648FFF774F9B5
:100E2C003548FFF771F93548FFF76EF94FF47A70D2
:100E3C00FFF756F90120FFF729FA012230496846DD
:100E4C0000F0F0FF04462F48FFF75EF92046FFF74D
:100E5C0087F92D48FFF758F93CB10020FFF716FA37
:100E6C004FF47A70FFF73CF9FAE72848FFF74CF992
:100E7C009DF80000FFF774F92548FFF745F9BDF818
:100E8C000A00FFF76DF92348FFF73EF90998FFF7C1
:100E9C0067F92148FFF738F90A98FFF761F91F48FD
:100EAC00FFF732F90B98FFF75BF91748FFF72CF9AE
:100EBC00FFF74EFDA0211A48FFF7A4FDA021194809
:100ECC00FFF7A0FD18491948FFF7F0FD1848FFF788
:100EDC001BF90020FFF7DAF94FF47A70FFF700F9ED
:100EEC00FAE700BF04000020D34D621000ED00E0D3
:100EFC00482A0008702A00089C2A0008CC2A0008FE
:100F0C00EC2A0008F02A0008E4280008042B00084A
:100F1C00142B00081C2B0008282B0008342B00086D
:100F2C00402B0008502B0008602B0008782B000881
:100F3C00882B00084278007840EA02207047C3787A
:100F4C00827842EA0322437843EA0223007840EA9B
:100F5C00032070470170090A417070470170C1F39A
:100F6C0007234370C1F307438370090EC1707047A8
:100F7C00002070470020704702394369023B8B42C6
:100F8C0004D9C36A428901FB0230704700207047C4
:100F9C0070B506460D4601F11A00FFF7CBFF33780A
:100FAC00032B00D070BD044605F11400FFF7C2FFFF
:100FBC0044EA0040F6E770B506460C46154691B279
:100FCC0004F11A00FFF7C6FF3378032B00D070BD75
:100FDC00290C04F11400FFF7BDFFF8E738B5002326
:100FEC004B7283699BB305460C460022134606E000
:100FFC00BCF1090F0FD0A1184B72013263460A2BBA
:10100C000ED803F1010CE969CB5C202BF6D0052B33
:10101C00EED1E523ECE7A1182E2048720132EAE765
:10102C00224400235372EB69DB7A03F03F032372F3
:10103C00E8691C30FFF783FF2060E8691630FFF782
:10104C0079FFE080E8691830FFF774FFA08038BDA5
:10105C0084460168C9B10A4613780132202B01D9A4
:10106C003A2BF9D13A2B01D0002070470878A0F127
:10107C003003DBB2092B0BD8023191420BD1303843
:10108C0000280BDCCCF8002070474FF0FF30704785
:10109C004FF0FF3070474FF0FF3070474FF0FF308C
:1010AC00704738B50D46044698B103689BB11A7861
:1010BC00A2B18188DA88914203D0092000242C60E7
:1010CC0038BD5878FFF7ECFD10F0010009D1246809
:1010DC00F5E70920F3E71C460920F0E70920002476
:1010EC00EDE709200024EAE770B505790DB928462B
:1010FC0070BD044600F130060123C26931464078C8
:10110C00FFF7FEFD054688B900232371E169636A88
:10111C00CB1AA2699342EAD2E378022BE7D10123DE
:10112C000A4431466078FFF7EBFDE0E70125DEE786
:10113C0070B5C3698B4202D10026304670BD04469F
:10114C000D46FFF7D1FF06460028F6D101232A46AB
:10115C0004F130016078FFF7ABFD10B101264FF0C0
:10116C00FF35E561E9E7000038B50446002303715B
:10117C004FF0FF33C361FFF7DBFF00285AD104F2B5
:10118C002E20FFF7D7FE054694F83030EB2B09D014
:10119C00E92B07D0E82B05D04AF655239D4247D0C2
:1011AC00032038BD4AF655239D4237D004F13B004D
:1011BC00FFF7C0FE94F83D20431E1842ECD1B0F569
:1011CC00007FE9D3E8D8002AE6D0531E1A42E3D1B7
:1011DC0004F13E00FFF7AEFE0028DDD094F840305D
:1011EC00013B012BD8D804F14100FFF7A3FE0028E6
:1011FC00D2D004F14300FFF79DFE7F2806D804F1FE
:10120C005000FFF79CFEB0F5803FC5D304F14600BB
:10121C00FFF790FE0028BFD00020C2E70822064945
:10122C0004F1820001F094FA0028BFD10020B8E745
:10123C000220B6E70420B4E7A02B000870B584B0F8
:10124C0006460D460021FFF78FFF022816D02BD83B
:10125C0055B300240DE006F13000230103F5E373D0
:10126C001844FFF76CFE04AB03EB840343F8100C3B
:10127C000134032CEFD91DB16C1E0CE00024F8E7EF
:10128C002C4608E03046FFF76FFF6DB901280BD9EB
:10129C000134032C08D804AB03EB840353F8101C63
:1012AC000029EFD10320F0E704B070BD2DE9F84F11
:1012BC000D46164600230B60FFF7CAFE0028C0F24D
:1012CC001881A04B53F82040002C00F016812C60A4
:1012DC0006F0FE06237873B16078FFF7E1FC10F09E
:1012EC00010508D1002E00F0058110F0040F00F06C
:1012FC0001810A25FEE0002323706078FFF7B6FC1D
:10130C0010F0010540F0FB801EB110F0040F40F00E
:10131C00F88000212046FFF791FF042800F0F380AD
:10132C00012800F2F280E66904F13B00FFF702FEAF
:10133C00B0F5007F40F0EB8004F14600FFF7FAFDBA
:10134C00074620B904F15400FFF7F9FD0746A761E1
:10135C0094F84020E270531EDBB2012B00F2D980CE
:10136C0007FB02F894F83D90A4F80A90B9F1000F2D
:10137C0000F0D18009F1FF3319EA030F40F0CD8062
:10138C0004F14100FFF7D6FD8246208110F00F0FCB
:10139C0040F0C58004F14300FFF7CCFD834620B933
:1013AC0004F15000FFF7CBFD834604F13E00FFF73C
:1013BC00C1FD0246002800F0B48000EB080303EBEB
:1013CC001A139B45C0F0AF80ABEB030BBBFBF9F1E1
:1013DC00CB45C0F0AA805C48814206D84FF6F57028
:1013EC0081423ED84FF0020B01E04FF0000B40F66B
:1013FC00F570814238D9BBF1000F00F0988001F1F3
:10140C000209C4F814902662324462623344E362E7
:10141C00BBF1030F2BD0BAF1000F00F08E804244C9
:10142C00A262BBF1020F33D009EB490309F00109A9
:10143C0009EB530909F2FF13B7EB532F7FD34FF08E
:10144C00FF332361E36080236371BBF1030F22D070
:10145C0084F800B03D4A138801339BB21380E380BB
:10146C0048E04FF0030BC6E74FF0010BC7E704F160
:10147C005A00FFF75FFD00285BD1BAF1000F5AD17B
:10148C0004F15C00FFF75BFDA0624FEA8909D1E72C
:10149C004FEA4909CEE704F16000FFF74BFD012844
:1014AC00D6D1711C2046FFF743FE0028D0D1002373
:1014BC00637104F13000FFF742FD254B9842C7D110
:1014CC0004F50570FFF73BFD224B9842C0D104F5A3
:1014DC000B70FFF734FD204B9842B9D104F5067020
:1014EC00FFF72DFD206104F50770FFF728FDE06084
:1014FC00AEE70B252846BDE8F88F0C25FAE7032547
:10150C00F8E70A25F6E70125F4E70D25F2E70D25A6
:10151C00F0E70D25EEE70D25ECE70D25EAE70D25A7
:10152C00E8E70D25E6E70D25E4E70D25E2E70D25B7
:10153C00E0E70D25DEE70D25DCE70D25DAE70D25C7
:10154C00D8E700BF18000020F5FFFF0F14000020A3
:10155C005252614172724161000055AA2DE9F04767
:10156C00012975D907460C46164643698B4273D937
:10157C000378022B3ED0032B4FD0012B6ED101EB05
:10158C005108416A01EB5821FFF7D2FD05460028AE
:10159C005FD107F1300A08F10109C8F3080814F00B
:1015AC0001041DD01AF8083003F00F0343EA0613A8
:1015BC00DBB20AF8083001233B71796A01EB59213F
:1015CC003846FFF7B5FD0546002842D1C9F3080996
:1015DC0044B1C6F307130AF8093001233B7138E014
:1015EC00F3B2E6E71AF80930C6F3032223F00F032F
:1015FC001343F0E7416A01EB1421FFF799FD05460F
:10160C0038BB07F13000640004F4FF74B1B220441D
:10161C00FFF7A0FC01233B711BE0416A01EBD411E5
:10162C00FFF786FD0546A0B926F0704607F130039A
:10163C00A40004F4FE741C442046FFF780FC00F068
:10164C00704131432046FFF789FC01233B7100E0D8
:10165C0002252846BDE8F0870225FAE70225F8E7BF
:10166C00F8B50568012954D90C466B698B4252D9DF
:10167C002B78022B2BD0032B39D0012B4DD101EB26
:10168C005106696A01EB56212846FFF751FD10B14E
:10169C004FF0FF303EE0771CC6F308062E4496F858
:1016AC003060696A01EB57212846FFF741FDB0BB5A
:1016BC00C7F308072F4497F8303046EA032014F09C
:1016CC00010F01D0000925E0C0F30B0022E0696A8C
:1016DC0001EB14212846FFF72BFD18BB05F1300058
:1016EC00640004F4FF742044FFF724FC12E0696AE0
:1016FC0001EBD4112846FFF71BFDB0B905F1300002
:10170C00A40004F4FE742044FFF719FC20F0704090
:10171C0000E00120F8BD0120FCE70120FAE74FF0C2
:10172C00FF30F7E74FF0FF30F4E74FF0FF30F1E711
:10173C002DE9F041D0F80080B1F5001F3FD20746EB
:10174C000E4611F01F0F3DD101618468E4B998F881
:10175C000030022B01D9D8F82840ACB9B8F80830C1
:10176C00B3EB561F30D9D8F82830BB617C61BB690C
:10177C0093B303EB5623BB6108F13008C6F30801A1
:10178C004144F96100201BE0B8F80A506D02AE42EA
:10179C000FD321463846FFF763FF0446B0F1FF3FF5
:1017AC0014D0012814D9D8F81430834212D9761BDE
:1017BC00EDE721464046FFF7DFFBB861D6E7022094
:1017CC00BDE8F0810220FBE70220F9E70120F7E7F2
:1017DC000220F5E70220F3E70220F1E72DE9F843B8
:1017EC0006460768884631B9FD688DB17B69AB4206
:1017FC000FD801250DE0FFF733FF0346012879D9F7
:10180C00B0F1FF3F70D07A6982426DD8454600E056
:10181C0001253B69002B67D0454506D04FF00009E8
:10182C00B9F1000F3AD12C462FE005F101097B6983
:10183C004B4501D84FF0020949463046FFF710FFDF
:10184C000346012850D0B0F1FF3F4DD00028E7D01F
:10185C00FB68012B05D97A699A4205D84FF000092B
:10186C00DEE74FF00009DBE71D464FF00009D7E734
:10187C0021463046FFF7F4FE034670B1012833D001
:10188C00B0F1FF3F30D0AC4238D001347B69A34279
:10189C00EED8012D30D90224EAE7A1464FF0FF32F1
:1018AC0049463846FFF75AFE0346D0B9B8F1000F47
:1018BC0010D1B3B9C7F80C903B690BB37A69023AF3
:1018CC0093421FD8013B3B617B7943F001037B7151
:1018DC004B4609E04A4641463846FFF73FFE034671
:1018EC00E7E7012B03D001231846BDE8F8834FF03E
:1018FC00FF33F9E70123F7E74B46F5E74B46F3E7F0
:10190C004B46F1E74B46EFE7F8B50C460568012965
:10191C002ED9064611466B69A3422BD94AB14FF01A
:10192C00FF322846FFF71AFE074610B123E0A24209
:10193C0021D9274621463046FFF792FE0446E0B1F6
:10194C0001281CD0B0F1FF3F1BD00022394628469D
:10195C00FFF704FE074670B92B696A69911E8B422A
:10196C00E5D201332B616B7943F001036B71DEE738
:10197C00022700E002273846F8BD0027FBE70227C4
:10198C00F9E70127F7E7F8B505460C46FFF7ACFB7E
:10199C0008B10120F8BD21462846FFF7EDFA0646AE
:1019AC00E86105F130074FF400720021384600F071
:1019BC0017FE002400E001346B89A34207D90123F0
:1019CC00A21939466878FFF79BF90028F3D068898B
:1019DC00001B18BF0120DDE72DE9F84304468846BB
:1019EC00076805692035B5F5001F01D30023836115
:1019FC00A369002B46D0C5F308063EB90133A36199
:101A0C00616979B93B89B3EB551F07D9256107F19A
:101A1C0030033344E3610020BDE8F8830023A36165
:101A2C000420F9E77B89013B13EA5523EED12046CC
:101A3C00FFF716FE8146012826D9B0F1FF3F25D0CD
:101A4C007B69834212D8B8F1000F17D06169204628
:101A5C00FFF7C4FE8146D8B101281BD0B0F1FF3F7F
:101A6C001AD001463846FFF78EFFB8B9C4F8149067
:101A7C0049463846FFF780FAA061C7E70023A36107
:101A8C000420C9E70420C7E70220C5E70120C3E70B
:101A9C000720C1E70220BFE70120BDE70120BBE71B
:101AAC0070B5044606680021FFF742FE054640B1BA
:101ABC00284670BD00212046FFF78EFF0546002802
:101ACC00F6D1A1693046FFF733FB05460028EFD16C
:101ADC00E06903787BB1C37A03F03F03A371C37A47
:101AEC0013F0080FE6D10B2204F1200100F030FEB8
:101AFC000028DFD1DCE70425DAE7F8B504460E460A
:101B0C0007680021FFF714FE0246C0B9002508E063
:101B1C000135B54213D001212046FFF75DFF024687
:101B2C0068B9A1693846FFF703FB024638B9E36987
:101B3C001B78E52BECD0002BEAD00025EBE7042A30
:101B4C0001D01046F8BD0722FBE7F8B504460E4657
:101B5C000568042705E000212046FFF73DFF0746F6
:101B6C00E8B9A169D9B12846FFF7E2FA0746B0B93E
:101B7C00E3691A7892B1DB7A03F03F03A371E52A8B
:101B8C00E9D02E2AE7D00F2BE5D023F02003082B29
:101B9C0014BF00230123B342DDD100E004270FB1B1
:101BAC000023A3613846F8BD2DE9F04F83B0804681
:101BBC000191D1F8009000F1200B4FF0203303621B
:101BCC004362C0F8273000273E464FF0080A1AE05F
:101BDC00013519F805302F2BFAD05C2BF8D04D4479
:101BEC00019B1D60002F66D098F82020E52A4FD06D
:101BFC00202C51D92B78202B53D804234DE00827C7
:101C0C004FF00B0A2E46751C19F80640202CE6D90D
:101C1C002F2CDED05C2CDCD02E2C01D0BA4508D871
:101C2C00BAF10B0F3FD02E2CE9D0062003B0BDE843
:101C3C00F08F14F0800F16D12046FFF799F9B8B148
:101C4C00023619F805502846FFF794F968B30AF1E3
:101C5C00FF33BB422BD97B1C0BF807400BF803500E
:101C6C0002373546CEE704F07F04144B1C5DE3E7E6
:101C7C002146134800F004FDD8B9A4F16103DBB28E
:101C8C00192B01D8203CE4B20BF807400137B9E717
:101C9C00052288F82020ABE7042388F82B3000209D
:101CAC00C4E70023F9E70620C0E70620BEE70620BC
:101CBC00BCE70620BAE70620B8E700BFD02B000827
:101CCC00AC2B000870B582B004460191056801E0A8
:101CDC0001330193019B1A782F2AF9D05C2AF7D093
:101CEC000022A2601B781F2B1ED901A92046FFF7EA
:101CFC005BFF034600BB94F82B602046FFF7D0FE39
:101D0C000346E0B916F0040F16D1A37913F0100FA7
:101D1C001CD005F130012369C3F30803194428468C
:101D2C00FFF736F9A060E0E7802384F82B301146EA
:101D3C002046FFF7FDFC0346184602B070BD042890
:101D4C00FAD116F0040FF7D10523F5E70523F3E7D5
:101D5C0070B5044606680121FFF7CFFE054608B1B1
:101D6C00284670BDA1693046FFF7E2F90546002808
:101D7C00F6D120220021E06900F032FCE369216AEF
:101D8C00626A19605A60218D94F82A2019819A721E
:101D9C0001233371E4E7000070B50446FFF7A4F9A2
:101DAC00054648B96379012B08D0002211466078AA
:101DBC00FEF7D6FF00B10125284670BD00236371E4
:101DCC002378032BF1D104F130064FF4007200217B
:101DDC00304600F005FC10493046FFF7BFF80F49BC
:101DEC0004F50570FFF7BAF8216904F50670FFF7E2
:101DFC00B5F8E16804F50770FFF7B0F8084904F589
:101E0C000B70FFF7ABF8226A0132E2610123314615
:101E1C006078FEF775FFC8E75252614172724161FA
:101E2C00000055AA10B584B001900091144603919E
:101E3C0003A8FFF70DF900281CDB0F4B53F82030DB
:101E4C0023B100220C4941F820201A70019B3BB1B0
:101E5C005870019B00221A70074B019A43F82020FE
:101E6C0014B9204604B010BD002201A96846FFF742
:101E7C001DFAF7E70B20F5E7180000202DE9F043D9
:101E8C008FB00191002800F0DB801446064602F06A
:101E9C003F073A4602A901A8FFF708FA054628B100
:101EAC000023336028460FB0BDE8F083029B3360FB
:101EBC000393019903A8FFF705FF054618B99DF98F
:101ECC003730002B45DB14F01C0F53D0002D47D0BE
:101EDC00042D40D047F00807002DE1D117F0080F72
:101EEC0058D0584C21460A980E30FFF737F8214647
:101EFC000A981630FFF732F8DDF80880DDF82890E4
:101F0C0049464046FFF744F80446202389F80B3035
:101F1C0000220A994046FFF74EF800210A981C301F
:101F2C00FFF71CF8029B01221A719CB3D3F81C809A
:101F3C000022214603A8FFF7E7FC05460028AFD195
:101F4C0041460298FFF7F4F80546013C029BDC6021
:101F5C0020E00625B7E703A8FFF7FAFE0546B9E728
:101F6C0014F0040F15D19DF8123013F0110FB3D0EB
:101F7C00072595E7002D93D19DF8123013F0100F23
:101F8C005AD114F0020F05D013F0010F02D007251F
:101F9C0086E70825002D83D117F0080F01D047F0F4
:101FAC004007DDF80890D9F81C303362DDF8288042
:101FBC00C6F8248041464846FEF7EAFF0446B06066
:101FCC0008F11C00FEF7BBFF8046F060B9F8063044
:101FDC00B380377400237374F361736117F0200FAF
:101FEC0026D028B37061B9F80A707F0202E002258E
:101FFC00A8EB07086DB9B8450BD921463046FFF759
:10200C002FFB04460128F2D9B0F1FF3FF0D1012596
:10201C00EEE7B461002D7FF443AFC8F308033BB186
:10202C0021460298FEF7A8FF40B100EB5823F3615C
:10203C00002D3FF437AF33E7042531E702252FE7B6
:10204C0009252FE70000215C2DE9F04F85B00546EE
:10205C000F46144699460023C9F8003003A9FFF730
:10206C0020F88246002840F0988095F811A0BAF12B
:10207C00000F40F092802B7C13F0010F00F0968043
:10208C00EE686B69F61AA6424BD3264649E0A9695D
:10209C002846FFF7E5FA56E04FF0020A85F811A042
:1020AC007BE04FF0010A85F811A076E04FF0020AB0
:1020BC0085F811A071E003990B7923B1C869019BD4
:1020CC00C01AA04201D3640221E04FF400723031F7
:1020DC0007EB402000F06AFBF5E7019BEB616C69B4
:1020EC00C4F30804C4F50074A64200D23446E9696E
:1020FC000398FFF71DF8002853D1039930316B6911
:10210C00C3F3080322461944384600F04FFB361B34
:10211C00D9F800302344C9F8003027446B692344B4
:10212C006B61002E39D06B69C3F30802002AD6D13B
:10213C00039AB2F80A8008F1FF3818EA532808D13C
:10214C00002BA4D1A8680128A6D9B0F1FF3FA8D0D4
:10215C00A861DDF80CB0A9695846FEF70DFF002800
:10216C00A4D008EB00030193740AB6F5007FB4D336
:10217C0008EB0403BBF80A20934201D9A2EB080434
:10218C002346019A39469BF80100FEF791FD002881
:10219C0091D04FF0010A85F811A0504605B0BDE86A
:1021AC00F08F4FF0010A85F811A0F6E74FF0070AFF
:1021BC00F3E72DE9F04F85B004460F4616469946D5
:1021CC000023C9F8003003A9FEF76BFF82460028F4
:1021DC0046D194F811A0BAF1000F41D1237C13F031
:1021EC00020F00F0D1806369F342C0F09B80DE43A4
:1021FC0098E0A1692046FFF7F1FA002800F0BF80B3
:10220C00012831D0B0F1FF3F33D0A061A36803B9EE
:10221C00A0600398C269E3699A422FD0DDF80CB034
:10222C00A1695846FEF7A8FE88B308EB000301939A
:10223C00750AB6F5007F45D308EB0503BBF80A20F9
:10224C00934201D9A2EB08052B46019A39469BF81B
:10225C000100FEF755FDF8B14FF0010A84F811A00A
:10226C00504605B0BDE8F08F4FF0020A84F811A07B
:10227C00F6E74FF0010A84F811A0F1E7FEF734FFFE
:10228C000028CBD04FF0010A84F811A0E8E74FF0FA
:10229C00020A84F811A0E3E7DDF80C80D8F81C10D2
:1022AC00019BC91AA94201D36D022CE04FF40072B4
:1022BC0007EB412108F1300000F078FA002388F890
:1022CC000430F1E76269E3689A4246D2019BE3610C
:1022DC006569C5F30805C5F50075AE4200D23546F3
:1022EC00E1690398FEF724FF002843D103983030AE
:1022FC006369C3F308032A463946184400F056FABA
:10230C00039B01221A71761BD9F800302B44C9F8B3
:10231C0000302F4463692B446361E268934238BFF9
:10232C001346E3605EB36369C3F30802002ACFD19E
:10233C00039AB2F80A8008F1FF3818EA53287FF4A0
:10234C0068AF002B7FF455AFA06800287FF458AF1E
:10235C0000212046FFF742FA4FE75846FEF7C4FE2D
:10236C0018B9039B019ADA61B0E74FF0010A84F8BF
:10237C0011A075E74FF0010A84F811A070E7237CD7
:10238C0043F0400323746BE74FF0070A68E7000043
:10239C0030B583B0044601A9FEF783FE18B9237C3F
:1023AC0013F0400F01D103B030BD216A0198FEF744
:1023BC00BFFE0028F7D1656AEB7A43F02003EB727D
:1023CC00A26829462068FEF7F6FDE16805F11C00BD
:1023DC00FEF7C4FD094905F11600FEF7BFFD00210B
:1023EC0005F11200FEF7B6FD019801230371FFF70A
:1023FC00D3FC237C23F040032374D4E70000215C3E
:10240C0010B582B00446FFF7C3FF08B102B010BD8F
:10241C0001A92046FEF745FE0028F7D12060F5E71C
:10242C0010B584B00191002832D00446002203A9D3
:10243C0001A8FEF73BFF034620B10022226018469C
:10244C0004B010BD039B236001992046FFF73AFCB2
:10245C000346A0B994F92B30002B08DBA37913F0B9
:10246C00100F11D0E1690398FEF792FDA060039B59
:10247C00DB88A38000212046FFF75AF90346042B82
:10248C0004D0002BDBD0D8E70523F8E70523D4E7ED
:10249C000923D4E710B582B0044601A9FEF701FE6A
:1024AC0000B9206002B010BD70B582B005460C4674
:1024BC0001A9FEF7F6FD0646C8B99CB10021617270
:1024CC002846FFF742FB042800D0B8B9214628461D
:1024DC00FEF784FD00212846FFF77EFA042806D07B
:1024EC00064604E000212846FFF722F9064614B1FF
:1024FC000EB100236372304602B070BD0646F6E79B
:10250C00FEE7000008B500F01FF80A4B0A4A03E08A
:10251C0052F8041B43F8041B08498B42F8D3084BB0
:10252C0002E0002243F8042B064A9342F9D3FEF74B
:10253C0051FCFEE700000020682C00080800002079
:10254C00080000201C000020704700001F4B5B6837
:10255C0003F00C03042B11D0082B13D0002B31D11A
:10256C001B4B1C4A1A60194B5B68C3F303131A4AC2
:10257C00D15C174A1368CB4013607047144B154A53
:10258C001A60F0E7114A53685268C3F3834302336D
:10259C0012F4803F05D1114A02FB03F30C4A13607D
:1025AC00E1E70A4A526812F4003F05D00B4A02FBDD
:1025BC0003F3074A1360D6E7064A02FB03F3044A07
:1025CC001360D0E7024B034A1A60CCE700100240BC
:1025DC000400002000127A00502C000800093D0075
:1025EC0070B5860747D0541E002A3ED00346CAB2A7
:1025FC0001E0013C39D303F8012B9D07F9D1032CE1
:10260C002CD9CDB205EB05250F2C1A4605EB05454B
:10261C0034D9A4F1100C2CF00F0603F1100EB644B3
:10262C004FEA1C1CC2E90055C2E902551032724532
:10263C00F8D10CF1010214F00C0F03EB021204F0B0
:10264C000F0C13D0ACF1040323F003030433134435
:10265C0042F8045B9342FBD10CF003042CB1C9B2D9
:10266C001C4403F8011BA342FBD170BD6446134606
:10267C00002CF4D1F9E703461446C0E7A446E1E781
:10268C0011F0FF01034600F0030239D08ABB026847
:10269C0010B501EB012E0EEB0E4E8EEA0204A2F1E8
:1026AC00013323EA0203A4F1013222EA04021343A8
:1026BC0013F0803F0FD150F8044F84EA0E0CA4F1B4
:1026CC000133ACF1013223EA040322EA0C02134376
:1026DC0013F0803FEFD0037823B936E010F8013FB8
:1026EC00002B32D09942F9D110BD8A4228D09A07DA
:1026FC0029D01A7818460133002AF6D110467047B3
:10270C00CAB90268A2F1013323EA020313F0803F35
:10271C0008D150F8042FA2F1013323EA020313F07D
:10272C00803FF6D003785BB110F8013F002BFBD152
:10273C007047990705D0184613F8012B002AF8D1D9
:10274C0070471846DDE71846A1E7184610BD00BFD4
:10275C00032A30B415D941EA0004A40784460B4679
:10276C0004D0541E0FE0043A032A08D919466046D7
:10277C0053F8044B5CF8045BA542F4D0F1E76046D7
:10278C001946541E7AB1431E0139021901E09A42CE
:10279C0009D013F8010F11F801CF6045F7D0A0EB69
:1027AC000C0030BC7047002030BC7047844641EAB6
:1027BC00000313F0030349D1403A23D30B680360A1
:1027CC004B6843608B688360CB68C3600B690361A3
:1027DC004B6943618B698361CB69C3610B6A03628B
:1027EC004B6A43628B6A8362CB6AC3620B6B036373
:1027FC004B6B43638B6B8363CB6BC3634030403158
:10280C00403ADBD230320BD30B6803604B68436029
:10281C008B688360CB68C36010301031103AF3D2F0
:10282C000C3205D351F8043B40F8043B043AF9D27E
:10283C00043208D0D2071CBF11F8013B00F8013B51
:10284C0001D30B8803806046704700BF082A13D35E
:10285C008B07B1D010F00303AED0C3F10403D21A2E
:10286C00DB071CBF11F8013B00F8013BA4D331F886
:10287C00023B20F8023B9FE7043AD9D3013A11F806
:10288C00013B00F8013BF9D20B7803704B78437095
:10289C008B788370604670475C6E00005C72000041
:1028AC005C780000534448432F53445843000000C5
:1028BC00534453430000000073643A20434D4430AA
:1028CC002E2E2E0D0A00000073643A20434D443026
:1028DC002052313D307800000D0A000073643A201C
:1028EC00434D44382052313D307800002052373D62
:1028FC000000000073643A2041434D443431287683
:10290C00322920706F6C6C733D00000073643A20A8
:10291C0041434D4434312876312920706F6C6C73EF
:10292C003D00000073643A204F43523D3078000064
:10293C0020747970653D000073643A20434D443136
:10294C00362052313D30780073643A2073656374DD
:10295C006F72733D000000002063617061636974E5
:10296C00795F6D69623D0000303A2F0066617466D4
:10297C00733A20665F6F70656E646972202D3E201D
:10298C000000000066617466733A20665F726561D0
:10299C0064646972202D3E2000000000666174663C
:1029AC00733A2000444952202000000046494C450F
:1029BC00200000002073697A653D00006661746632
:1029CC00733A20665F6F70656E200000202D3E20EC
:1029DC0000000000207072656669783A20000000E3
:1029EC00207772697465202D3E2000006661746644
:1029FC00733A20665F77726974652000206279747F
:102A0C0065733D0066617466733A20665F73796E18
:102A1C006320000020766572696679202D3E2000C7
:102A2C0066617466733A20665F72656164200000AB
:102A3C00207665726966793A200000000D0A73648D
:102A4C005F66617466733A2053544D3332463130AD
:102A5C003343382053504931202F20555341525481
:102A6C00310D0A0073645F66617466733A20637596
:102A7C007272656E7420757073747265616D204628
:102A8C00617446732052302E31360D0A000000005E
:102A9C0073645F66617466733A205041343D4353EE
:102AAC00205041353D53434B205041363D4D495309
:102ABC004F205041373D4D4F53490D0A0000000047
:102ACC0073645F66617466733A20737461727469BF
:102ADC006E6720696E2031303030206D730D0A0026
:102AEC00303A000066617466733A20665F6D6F75EC
:102AFC006E74202D3E20000066617466733A206669
:102B0C00735F747970653D00206373697A653D006D
:102B1C0020666174626173653D0000002064697217
:102B2C00626173653D0000002064617461626173D1
:102B3C00653D0000303A2F434D444C494E452E54D0
:102B4C0058540000303A2F434F4E4649472E5458A4
:102B5C0054000000636F6465782073642077726999
:102B6C00746520746573740D0A000000303A2F43AD
:102B7C004F445857522E54585400000073645F66EB
:102B8C00617466733A20636F6D706C6574650D0AC1
:102B9C000000000046415433322020200000000089
:102BAC002A2B2C3A3B3C3D3E5B5D7C223F7F000058
:102BBC003031323334353637383941424344454667
:102BCC0000000000809A45418E418F804545454963
:102BDC0049498E8F9092924F994F555559999A9B7E
:102BEC009C9D9E9F41494F55A5A5A6A7A8A9AAABF8
:102BFC00ACADAEAFB0B1B2B3B4B5B6B7B8B9BABB91
:102C0C00BCBDBEBFC0C1C2C3C4C5C6C7C8C9CACB80
:102C1C00CCCDCECFD0D1D2D3D4D5D6D7D8D9DADB70
:102C2C00DCDDDEDFE0E1E2E3E4E5E6E7E8E9EAEB60
:102C3C00ECEDEEEFF0F1F2F3F4F5F6F7F8F9FAFB50
:102C4C00FCFDFEFF00000000000000000102030478
:042C5C000607080956
:082C600058FBFF7F010000009A
:082C68000100000000127A00D7
:0400000508002511B9
:00000001FF
