:020000040800F2
:1000000000500020DD0E0008D90E0008D90E0008AF
:10001000D90E0008D90E0008D90E00080000000013
:10002000000000000000000000000000D90E0008E1
:10003000D90E000800000000D90E0008E90D0008E4
:10004000D90E0008D90E0008D90E0008D90E0008F4
:10005000D90E0008D90E0008D90E0008D90E0008E4
:10006000D90E0008D90E0008D90E0008D90E0008D4
:10007000D90E0008D90E0008D90E0008D90E0008C4
:10008000D90E0008D90E0008D90E0008D90E0008B4
:10009000D90E0008D90E0008D90E0008D90E0008A4
:1000A000D90E0008D90E0008D90E0008D90E000894
:1000B000D90E0008D90E0008D90E0008D90E000884
:1000C000D90E0008D90E0008D90E0008D90E000874
:1000D000D90E0008D90E0008D90E0008D90E000864
:0C00E000D90E0008D90E0008D90E000847
:1000EC00034B1A68024B1B689B1A8342FAD3704766
:1000FC000C120020034B1B6813F0800FFAD0014B3D
:10010C00586070470038014010B5044602E00134D5
:10011C00FFF7F0FF20780028F9D110BD38B5044660
:10012C000309054DE85CFFF7E5FF04F00F04285DBB
:10013C00FFF7E0FF38BD00BFF812000810B5044609
:10014C00000AFFF7EBFFE0B2FFF7E8FF10BD10B5B8
:10015C000446000CFFF7F2FFA0B2FFF7EFFF10BD53
:10016C0010B584B010B10246002414E03020FFF723
:10017C00C1FF1DE00F4BA3FB0213DB08194603EB79
:10018C008303A2EB4303303304F110026A4402F8F8
:10019C000C3C0A460134002AECD107E0013C04F186
:1001AC0010036B4413F80C0CFFF7A4FF002CF5D1D3
:1001BC0004B010BDCDCCCCCC38B50546094CA4FB55
:1001CC000034E4082046FFF7CBFF2E20FFF792FF08
:1001DC0004EB8404A5EB44003030C0B2FFF78AFF77
:1001EC0038BD00BFCDCCCCCC124A936943F48043CC
:1001FC0043F005039361A2F58832536823F004039E
:10020C0053600D4B5A6822F47F625A605A6842F46C
:10021C0096625A60094A0023D360094B1B6803F5A8
:10022C00E1430849A1FB0313DB0B936042F20C037F
:10023C00D3607047001002400008014000380140B4
:10024C0000000020C5B3A291084A936943F0100343
:10025C009361074B5A6822F470025A605A6842F450
:10026C0000125A604FF400521A617047001002409D
:10027C000010014020B1054B4FF400525A617047F9
:10028C00024B4FF400521A61704700BF001001403E
:10029C00074B1A6822F040021A601A6822F03802E2
:1002AC0002431A601A6842F040021A60704700BF9D
:1002BC0000300140124A936943F4805343F0050324
:1002CC009361A2F58832536823F0010353600D4B00
:1002DC001A6892B21A601A6842F0344242F431023F
:1002EC001A6010221A6103F520534FF44D721A60F4
:1002FC0000225A601A6842F040021A60704700BF30
:10030C000010024000080140074B9B6813F0020FDD
:10031C00FAD0054B1873044B9B6813F0010FFAD0FD
:10032C00014B187B704700BF0030014008B5034BF0
:10033C0010221A61FF20FFF7E7FF08BD00080140FB
:10034C0038B50546002400E00134AC4206D2FF204B
:10035C00FFF7DAFFFF28F7D1012000E0002038BDBD
:10036C0008B5044B10225A614CF25030FFF7E8FFED
:10037C0008BD00BF0008014010B5FFF7D7FF0024EF
:10038C0003E0FF20FFF7C0FF0134092CF9D910BDA1
:10039C0038B50C46154640F04000FFF7B5FF200E6F
:1003AC00FFF7B2FFC4F30740FFF7AEFFC4F307201B
:1003BC00FFF7AAFFE0B2FFF7A7FF2846FFF7A4FF5D
:1003CC000024FF20092C07D8FF20FFF79DFF10F019
:1003DC00800F01D00134F5E738BD70B504460D46E9
:1003EC001646FFF7A3FFFFF7BBFF48B1324629467D
:1003FC002046FFF7CDFF0446FFF798FF204670BD5F
:10040C00FFF794FFFF24F9E738B504460D46FF22A9
:10041C0000213720FFF7E1FF012800D938BDFF226A
:10042C0029462046FFF7D9FFF8E7000070B50646CD
:10043C000D46FF2000240F4B9C4206D8FF20FFF7EF
:10044C0063FFFF2801D10134F5E7FE2810D1002409
:10045C0004E0FF20FFF758FF30550134AC42F8D3CD
:10046C00FF20FFF751FFFF20FFF74EFF012070BD6B
:10047C000020FCE79F8601002DE9F04383B0054680
:10048C00FFF754FFFFF76CFF064658B3FF2200211D
:10049C003A20FFF77DFF012827D8FF20FFF734FF14
:1004AC0081468DF80400FF20FFF72EFF04468DF8DF
:1004BC000500FF20FFF728FF80468DF80600FF207F
:1004CC00FFF722FF07468DF80700FFF72FFF2404E4
:1004DC0044EA096444EA08243C432C60304603B0E7
:1004EC00BDE8F083FFF722FFF8E7FFF71FFF0026B8
:1004FC00F4E7000070B504460D46124B1B7803B9A7
:10050C004402FFF713FFFFF72BFF064678B1FF22DB
:10051C0021461120FFF73CFF68B94FF400712846C3
:10052C00FFF784FF064650B1FFF700FF01E0FFF72D
:10053C00FDFE304670BDFFF7F9FE0026F9E7FFF728
:10054C00F5FEF6E70812002038B505460C46FF20EC
:10055C00FFF7DAFE2046FFF7D7FE002403E0285D04
:10056C00FFF7D2FE0134B4F5007FF8D3FF20FFF77C
:10057C00CBFEFF20FFF7C8FEFF20FFF7C5FE00F003
:10058C001F03052B01D0002038BD0248FFF7D8FE11
:10059C00FAE700BF801A060070B504460D46124BF0
:1005AC001B7803B94402FFF7C1FEFFF7D9FE0646DC
:1005BC0070B1FF2221461820FFF7EAFE60B9FE2138
:1005CC002846FFF7C1FF064650B1FFF7AFFE01E02A
:1005DC00FFF7ACFE304670BDFFF7A8FE0026F9E72A
:1005EC00FFF7A4FEF6E700BF08120020F8B504469A
:1005FC000E4615461D4B1B7803B94402294617209D
:10060C00FFF702FFFFF792FEFFF7AAFE074688B13D
:10061C00FF2221461920FFF7BBFE78B90024AC421B
:10062C0013D2FC2106EB4420FFF78EFF074648B19E
:10063C000134F4E7FFF77AFE3846F8BDFFF776FE93
:10064C000027F9E7FFF772FEF6E7FF20FFF75CFEE5
:10065C00FD20FFF759FE0648FFF772FE074610B162
:10066C00FFF764FEE8E7FFF761FEE5E708120020FC
:10067C00801A060000B58646002001E00139C9B297
:10068C0091420FD3CB08C3F10F03DBB201F0070C7F
:10069C001EF8033043FA0CF303F0010343EA400065
:1006AC009142EBD15DF804FB70B505467E227F21AB
:1006BC00FFF7E0FF012802D048B1002070BD3022C6
:1006CC0045212846FFF7D6FF01308002F6E750227D
:1006DC0053212846FFF7CEFF06463E2249212846E5
:1006EC00FFF7C8FF04462F2231212846FFF7C2FF2F
:1006FC0001340230844004FA06F0400ADEE70000C0
:10070C002DE9F04186B000240094A54B1C70A54B3C
:10071C001C60FFF731FEA448FFF7F6FC2546132DAD
:10072C0009D8952200210846FFF757FE04460128F8
:10073C0001D00135F3E79D48FFF7E6FC2046FFF7B3
:10074C00EDFC9B48FFF7E0FC012C04D00024204674
:10075C0006B0BDE8F081FFF7E9FDFFF701FE0446A6
:10076C00002853D087224FF4D5710820FFF710FED4
:10077C000546FF20FFF7C8FD80468DF81400FF20CA
:10078C00FFF7C2FD07468DF81500FF20FFF7BCFDF3
:10079C0006468DF81600FF20FFF7B6FD04468DF8CF
:1007AC001700FFF7C3FD8348FFF7AEFC2846FFF7A1
:1007BC00B5FC8148FFF7A8FC4046FFF7AFFC2020B2
:1007CC00FFF798FC3846FFF7A9FC2020FFF792FCB6
:1007DC003046FFF7A3FC2020FFF78CFC2046FFF7E8
:1007EC009DFC7348FFF790FC15F0040F11D000240A
:1007FC00B4F57A7F80F0A88000212920FFF704FE51
:10080C000546002800F0A0800134F1E7FFF78EFDCB
:10081C009DE70024B4F57A7F08D24FF0804129205F
:10082C00FFF7F2FD054608B10134F3E76348FFF723
:10083C006BFC601CFFF794FC6148FFF765FC2846D5
:10084C00FFF76CFC5A48FFF75FFC002D40F0A680C8
:10085C006846FFF711FE044600283FF478AF009B72
:10086C00C3F380734E4C23705648FFF74DFC009831
:10087C00FFF76DFC5448FFF747FC2378002B77D02B
:10088C005248FFF741FC4A48FFF73EFC444B1C78AA
:10089C0094B9FF224FF400711020FFF79EFD05461E
:1008AC004B48FFF731FC2846FFF738FC4048FFF770
:1008BC002BFC002D7FF44BAFFFF738FDFFF750FDFD
:1008CC000446002856D0FF2200211120FFF760FDBE
:1008DC00002852D14FF400713E48FFF7A7FD0446A3
:1008EC0000284ED0FFF722FDFFF720FDFFF738FD63
:1008FC000446002848D0FF2200210920FFF748FDBC
:10090C00012844D8102101A8FFF790FD04460028C7
:10091C0041D0FFF70BFD01A8FFF7C6FE214D286063
:10092C002D48FFF7F1FB2868FFF71AFC2B48FFF75F
:10093C00EBFB2868C00AFFF713FC1D48FFF7E4FB2C
:10094C000020FFF7A5FC02E72548FFF7DDFB601C44
:10095C00FFF706FC1A48FFF7D7FB2846FFF7DEFB2C
:10096C001348FFF7D1FB002D3FF472AF0024EEE6E5
:10097C001C4886E7FFF7DAFCE9E6FFF7D7FC002412
:10098C00E5E6FFF7D3FCE2E6FFF7D0FCDFE6FFF786
:10099C00CDFC0024DBE6FFF7C9FCD8E60024D6E644
:1009AC000812002004120020CC0F0008DC0F0008F5
:1009BC00EC0F0008F00F00080010000808100008E9
:1009CC00E40F00083810000844100008B80F0008A5
:1009DC004C100008040000205C1000086C1000088B
:1009EC0020100008C40F00084323037044234370F5
:1009FC00582383703123C3705FFA81FC80F804C0E4
:100A0C00C1F307234371C1F307438371090EC1710D
:100A1C00082303E00CEB0302C2540133B3F5007F4F
:100A2C00F8D3704770B506460D46002406E0A119B0
:100A3C00044800EB4420FFF7D7FF0134AC42F6D357
:100A4C0070BD00BF0402002010B5ADF5007D04465A
:100A5C0001466846FFF7C8FF0A492046FFF74AFDE2
:100A6C0060B10023B3F5007F08D2064AD15C1DF8B3
:100A7C000320914201D10133F4E700200DF5007DF4
:100A8C0010BD00BF040000202DE9F04F85B0834657
:100A9C009848FFF739FBBBF1000F3FD0964B019301
:100AAC000198FFF731FB9548FFF72EFB43F2FD2031
:100ABC00FFF756FB9248FFF727FB4FF48040FFF7F8
:100ACC004FFB9048FFF720FB4FF40000FFF748FB6B
:100ADC008D48FFF719FB4FF48050FFF741FB8B4813
:100AEC00FFF712FB0220FFF73BFB8948FFF70CFBDB
:100AFC00884B18684008FFF733FB8748FFF704FB67
:100B0C00864B1B6802934FF001094FF4804A43F265
:100B1C00FD264FF000084FF400073AE0804B01939C
:100B2C00BEE70024A54247D97E4901EB4421301988
:100B3C00FFF732FD08B10134F4E781463CE06D4823
:100B4C00FFF7E2FA0198FFF7DFFA7748FFF7DCFAD4
:100B5C003046FFF705FB7048FFF7D6FABBE0654857
:100B6C00FFF7D2FA0198FFF7CFFA7048FFF7CCFAEB
:100B7C004046FFF7F5FA6E48FFF7C6FA674B186860
:100B8C00029BC01AFFF7ECFA6348FFF7BDFA0AF5AF
:100B9C00804AF7B17D0AB7F5905F00D30825294646
:100BAC003046FFF73FFFBBF1000FBAD02A465D4934
:100BBC003046FFF71BFD8146B9F1000FBFD02E4424
:100BCC0008EB4528A7EB4527C245C8D9002FE0D133
:100BDC00C5E7524C256843F2FD20FFF735FF8346ED
:100BEC0047F2FC20FFF730FF03902468414E30465B
:100BFC00FFF78AFADDF804904846FFF785FA4D486E
:100C0C00FFF782FA4046FFF7ABFA434F3846FFF73F
:100C1C007BFA3046FFF778FACDF804904846FFF798
:100C2C0073FA4548FFF770FADDF808A0A5EB0A093E
:100C3C004846FFF795FA4148FFF766FA601BFFF745
:100C4C008FFA3F48FFF760FACDF808A0A4EB0A0A28
:100C5C005046FFF785FA3846FFF756FA3046FFF74D
:100C6C0053FA0198FFF750FA3648FFF74DFA029BFA
:100C7C00AB4233D00A2000FB08F0B0FBF9F0FFF7D1
:100C8C009BFA3148FFF740FA029BA3422AD00A2371
:100C9C0003FB08F0B0FBFAF0FFF78EFA1E48FFF7E3
:100CAC0033FA1448FFF730FA0198FFF72DFA27486A
:100CBC00FFF72AFABBF1000F18D02548FFF724FAEA
:100CCC002448FFF721FA039B93B12148FFF71CFA44
:100CDC001148FFF719FA05B0BDE8F08F1E48FFF771
:100CEC0013FACEE71C48FFF70FFAD7E71B48E5E7E6
:100CFC001A48EBE7981000087C100008A8100008B0
:100D0C00B4100008C8100008D0100008D810000853
:100D1C00EC10000800000020EC0F00080C12002062
:100D2C008410000804020020F810000810110008BC
:100D3C002411000834110008441100085011000857
:100D4C005C1100086811000880110008941100085B
:100D5C008C100008A41100087C11000890100008E9
:100D6C0008B51C4A136843F001031360194B1B6848
:100D7C0013F0020FFAD0184B14221A60A3F580530B
:100D8C005968A2F57D12083A0A405A605A6842F432
:100D9C00601242F480625A601A6822F080721A6003
:100DAC001A6842F080721A600A4B1B6813F0007FBD
:100DBC00FAD0084A536823F0030343F0020353604C
:100DCC00044B5B6803F00C03082BF9D100F0A4F87A
:100DDC0008BD00BF0010024000200240024A136808
:100DEC0001331360704700BF0C12002008B5FFF7E9
:100DFC00B7FF2B4B1B682B4AA2FB03239B09013B20
:100E0C00B3F1807F0AD24FF0E0225361264BF021E0
:100E1C0083F823100023936107231361FFF714FA5F
:100E2C00FFF7E2F9FFF746FA2048FFF76DF9204883
:100E3C00FFF76AF91F48FFF767F91F48FFF764F9D6
:100E4C00174B1868FFF78CF91C48FFF75DF91C4825
:100E5C00FFF75AF94FF47A70FFF742F90120FFF7C8
:100E6C0009FAFFF74DFC50B91648FFF74DF9002071
:100E7C00FFF700FA4FF47A70FFF732F9FAE7002027
:100E8C00FFF702FE0120FFF7FFFD0F48FFF73CF9CB
:100E9C000020FFF7EFF94FF47A70FFF721F9FAE72A
:100EAC0000000020D34D621000ED00E0B4110008EA
:100EBC00E81100083012000868120008EC0F000856
:100ECC0088120008B4120008D8120008FEE70000CF
:100EDC0008B500F01FF80A4B0A4A03E052F8041B4D
:100EEC0043F8041B08498B42F8D3084B02E000225C
:100EFC0043F8042B064A9342F9D3FFF777FFFEE73A
:100F0C00000000201C130008040000200400002036
:100F1C0010120020704700001F4B5B6803F00C039D
:100F2C00042B11D0082B13D0002B31D11B4B1C4A96
:100F3C001A60194B5B68C3F303131A4AD15C174A46
:100F4C001368CB4013607047144B154A1A60F0E7D6
:100F5C00114A53685268C3F38343023312F4803F3F
:100F6C0005D1114A02FB03F30C4A1360E1E70A4A6C
:100F7C00526812F4003F05D00B4A02FB03F3074AF8
:100F8C001360D6E7064A02FB03F3044A1360D0E76A
:100F9C00024B034A1A60CCE700100240000000200C
:100FAC0000127A000C13000800093D00534448431A
:100FBC002F53445843000000534453430000000097
:100FCC0073643A20434D44302E2E2E0D0A0000003F
:100FDC0073643A20434D44302052313D3078000048
:100FEC000D0A000073643A20434D44382052313DC1
:100FFC00307800002052373D0000000073643A2026
:10100C0041434D4434312876322920706F6C6C7317
:10101C003D00000073643A2041434D44343128763E
:10102C00312920706F6C6C733D00000073643A20A2
:10103C004F43523D3078000020747970653D0000BC
:10104C0073643A20434D4431362052313D307800A0
:10105C0073643A20736563746F72733D0000000013
:10106C002063617061636974795F6D69623D000032
:10107C006D756C746900000073696E676C650000B7
:10108C004F4B00004641494C0000000072617762F2
:10109C00656E63683A206D6F64653D002073746102
:1010AC0072745F6C62613D0020726567696F6E5F80
:1010BC00736563746F72733D000000002062797475
:1010CC0065733D00206368756E6B3D00207370691D
:1010DC005F7072657363616C65723D2F0000000078
:1010EC00207370695F687A3D000000002077726998
:1010FC0074655F6572726F72206174206C62613D01
:10110C00000000002070726F67726573735F627904
:10111C007465733D0000000020656C61707365643C
:10112C005F6D733D000000002062797465735F771A
:10113C0072697474656E3D002077726974655F6DB9
:10114C00733D0000207665726966795F6D733D00B2
:10115C0020746F74616C5F6D733D00002077726951
:10116C0074655F726174655F6B4270733D00000063
:10117C00302E300020746F74616C5F726174655F27
:10118C006B4270733D000000207665726966795F72
:10119C0066697273743D0000207665726966795FCA
:1011AC006C6173743D0000000D0A73645F726177AB
:1011BC005F77726974655F62656E63683A20535439
:1011CC004D33324631303343382053504931202F80
:1011DC00205553415254310D0A00000073645F7264
:1011EC0061775F77726974655F62656E63683A20D8
:1011FC007261772077726974652062656E63686DC1
:10120C0061726B20696E746F20636F6E74696775A1
:10121C006F75732066696C6520726567696F6E0DFA
:10122C000A00000073645F7261775F77726974659E
:10123C005F62656E63683A205041343D43532050E1
:10124C0041353D53434B205041363D4D49534F2082
:10125C005041373D4D4F53490D0A000073645F7286
:10126C0061775F77726974655F62656E63683A2057
:10127C00737973636C6B5F687A3D000073645F72A3
:10128C0061775F77726974655F62656E63683A2037
:10129C007374617274696E6720696E2031303030FE
:1012AC00206D730D0A00000073645F7261775F77C5
:1012BC00726974655F62656E63683A20696E697401
:1012CC00206661696C65640D0A00000073645F72CE
:1012DC0061775F77726974655F62656E63683A20E7
:1012EC00636F6D706C6574650D0A000030313233BC
:1012FC003435363738394142434445460000000006
:10130C0000000000000000000102030406070809A9
:04131C0000127A0041
:0400000508000EDD04
:00000001FF
