:10000000E01F001001030000510300005503000031
:1000100000000000000000000000000079D6FFEFA3
:100020000000000000000000000000005903000074
:1000300000000000000000005D0300000106000059
:1000400065030000690300006D03000071030000F8
:1000500075030000790300007D03000081030000A8
:1000600085030000890300008D0300009103000058
:1000700095030000990300009D030000A103000008
:10008000A5030000A9030000AD030000B1030000B8
:10009000B5030000B9030000BD030000C103000068
:1000A000C5030000C9030000CD030000D103000018
:1000B000D5030000D9030000DD030000E1030000C8
:0402FC00FFFFFFFF02
:1003000072B60B4880470B490B4A0C4B9B1A03DD16
:10031000043BC858D050FBDC09490A4A521A03DD95
:100320000020043A8850FCDC62B607488047000091
:10033000ED0700005008000000000010040000104D
:10034000040000100C0000101106000025480047B2
:1003500025480047254800472548004725480047CD
:1003600025480047254800472548004725480047BD
:1003700025480047254800472548004725480047AD
:10038000254800472548004725480047254800479D
:10039000254800472548004725480047254800478D
:1003A000254800472548004725480047254800477D
:1003B000254800472548004725480047254800476D
:1003C000254800472548004725480047254800475D
:1003D000254800472548004725480047254800474D
:1003E000254800474D03000051030000550300005D
:1003F000590300005D030000010600004D030000EA
:100400004D0300004D0300004D0300004D030000AC
:100410004D0300004D0300004D0300004D0300009C
:100420004D0300004D0300004D0300004D0300008C
:100430004D0300004D0300004D0300004D0300007C
:100440004D0300004D0300004D0300004D0300006C
:100450004D0300004D0300004D0300004D0300005C
:100460004D0300004D0300004D0300004D0300004C
:100470004D0300004D0300004D030000002243081F
:100480008B4274D303098B425FD3030A8B4244D35C
:10049000030B8B4228D3030C8B420DD3FF2209029E
:1004A00012BA030C8B4202D31212090265D0030B5D
:1004B0008B4219D300E0090AC30B8B4201D3CB0353
:1004C000C01A5241830B8B4201D38B03C01A524195
:1004D000430B8B4201D34B03C01A5241030B8B4297
:1004E00001D30B03C01A5241C30A8B4201D3CB0282
:1004F000C01A5241830A8B4201D38B02C01A524167
:10050000430A8B4201D34B02C01A5241030A8B4269
:1005100001D30B02C01A5241CDD2C3098B4201D381
:10052000CB01C01A524183098B4201D38B01C01AFF
:10053000524143098B4201D34B01C01A5241030976
:100540008B4201D30B01C01A5241C3088B4201D325
:10055000CB00C01A524183088B4201D38B00C01AD2
:10056000524143088B4201D34B00C01A5241411AF9
:1005700000D20146524110467047FFE701B5002006
:1005800000F006F802BDC0460029F7D076E77047B4
:100590007047C046013880235B0498420ED2084A57
:1005A00050600848036A1B021B0AC02109060B435E
:1005B0000362002090600723136070470120FCE76E
:1005C00010E000E000ED00E0034B1B681818024B40
:1005D0001B681B1AFBD4704704000010002807D0CA
:1005E000A02212068A239B0180214901D150704725
:1005F000A022120688239B0180214901D150F6E7F1
:10060000024A1368013313607047C04604000010AB
:1006100010B5194980228B58402003438B50A021EC
:10062000090680229201885880235B0103438B5086
:100630000020FFF7D3FF00F039F8104B1868FA21BB
:100640008900FFF71BFFFFF7A5FF002800D0FEE79A
:100650000120FFF7C3FF3220FFF7B6FF084C2368E5
:10066000013323600020FFF7B9FF3220FFF7ACFF12
:10067000236801332360EBE7008004400000001092
:1006800008000010044B1A6C03231340032B01D005
:10069000024870470020FCE700800440001BB700C0
:1006A0001F230340013359430800704710B53B4BEB
:1006B0005A6A52090F2313400F2B03D89B00384A64
:1006C000D3589F46002000E03648344C636A1F210F
:1006D000194001314900FFF7D1FE226F0323134077
:1006E000022B4CD02DD8002B39D0012B51D12B4BC4
:1006F0001A6C03231340012B35D0032B37D0002B6A
:1007000039D1294B294A1A603BE02948DDE72948BD
:10071000DBE72948D9E72948D7E72948D5E7294819
:10072000D3E72948D1E72948CFE72948CDE7294829
:10073000CBE72948C9E72948C7E72948C5E7294839
:10074000C3E7032B25D1154B9C68FFF79BFF0100E6
:100750001F202040FFF7A4FF134B186011E0124B3D
:10076000124A1A600DE0104B104A1A6009E00E4B55
:1007700000221A6005E00C4B0C4A1A6001E00A4B9B
:100780001860064B996F084C2068FFF777FE2060D1
:1007900010BD054B00221A60F3E7C04600800440FC
:1007A000100800009005100000000010001BB700AA
:1007B000C05C1500F0B31A00200B2000009F24003D
:1007C000E0322900C0C62D0050973100E0673500A7
:1007D0007038390000093D00401640008023430076
:1007E000C0304600C02709007047000010B5044B18
:1007F000044A9360044B054A1A60FFF7F5FF10BDE9
:100800000000000000ED00E000000010001BB70039
:10081000C40600003E070000C80600000A070000EA
:100820000E07000012070000160700001A0700005C
:100830001E07000022070000260700002A0700000C
:100840002E07000032070000360700003A070000BC
:04085000001BB700D2
:0400000300000301F5
:00000001FF
