:020000040800F2
:1000000000500020A9210008A5210008A521000812
:10001000A5210008A5210008A52100080000000076
:10002000000000000000000000000000A521000802
:10003000A521000800000000A52100082D0C0008E3
:10004000A5210008A5210008A5210008A521000878
:10005000A5210008A5210008A5210008A521000868
:10006000A5210008A5210008A5210008A521000858
:10007000A5210008A5210008A5210008A521000848
:10008000A5210008A5210008A5210008A521000838
:10009000A5210008A5210008A5210008A521000828
:1000A000A5210008A5210008A5210008A521000818
:1000B000A5210008A5210008A5210008A521000808
:1000C000A5210008A5210008A5210008A5210008F8
:1000D000A5210008A5210008A5210008A5210008E8
:0C00E000A5210008A5210008A5210008AA
:1000EC00034B1A68024B1B689B1A8342FAD3704766
:1000FC0010100020034B1B6813F0800FFAD0014B3B
:10010C00586070470038014010B5044602E00134D5
:10011C00FFF7F0FF20780028F9D110BD38B5044660
:10012C000309054DE85CFFF7E5FF04F00F04285DBB
:10013C00FFF7E0FF38BD00BFC028000810B504462B
:10014C00000AFFF7EBFFE0B2FFF7E8FF10BD10B5B8
:10015C000446000CFFF7F2FFA0B2FFF7EFFF10BD53
:10016C0010B584B010B10246002414E03020FFF723
:10017C00C1FF1DE00F4BA3FB0213DB08194603EB79
:10018C008303A2EB4303303304F110026A4402F8F8
:10019C000C3C0A460134002AECD107E0013C04F186
:1001AC0010036B4413F80C0CFFF7A4FF002CF5D1D3
:1001BC0004B010BDCDCCCCCC38B50546094CA4FB55
:1001CC000034E4082046FFF7CBFF2E20FFF792FF08
:1001DC0004EB8404A5EB44003030C0B2FFF78AFF77
:1001EC0038BD00BFCDCCCCCC124A936943F48043CC
:1001FC0043F005039361A2F58832536823F004039E
:10020C0053600D4B5A6822F47F625A605A6842F46C
:10021C0096625A60094A0023D360094B1B6803F5A8
:10022C00E1430849A1FB0313DB0B936042F20C037F
:10023C00D3607047001002400008014000380140B4
:10024C0004000020C5B3A291084A936943F010033F
:10025C009361074B5A6822F470025A605A6842F450
:10026C0000125A604FF400521A617047001002409D
:10027C000010014020B1054B4FF400525A617047F9
:10028C00024B4FF400521A61704700BF001001403E
:10029C00074B1A6822F040021A601A6822F03802E2
:1002AC0002431A601A6842F040021A60704700BF9D
:1002BC0000300140124A936943F4805343F0050324
:1002CC009361A2F58832536823F0010353600D4B00
:1002DC001A6892B21A601A6842F0344242F431023F
:1002EC001A6010221A6103F520534FF44D721A60F4
:1002FC0000225A601A6842F040021A60704700BF30
:10030C000010024000080140074B9B6813F0020FDD
:10031C00FAD0054B1873044B9B6813F0010FFAD0FD
:10032C00014B187B704700BF0030014008B5034BF0
:10033C0010221A61FF20FFF7E7FF08BD00080140FB
:10034C0038B50546002400E00134AC4206D2FF204B
:10035C00FFF7DAFFFF28F7D1012000E0002038BDBD
:10036C0008B5044B10225A614CF25030FFF7E8FFED
:10037C0008BD00BF0008014010B5FFF7D7FF0024EF
:10038C0003E0FF20FFF7C0FF0134092CF9D910BDA1
:10039C0038B50C46154640F04000FFF7B5FF200E6F
:1003AC00FFF7B2FFC4F30740FFF7AEFFC4F307201B
:1003BC00FFF7AAFFE0B2FFF7A7FF2846FFF7A4FF5D
:1003CC000024FF20092C07D8FF20FFF79DFF10F019
:1003DC00800F01D00134F5E738BD70B504460D46E9
:1003EC001646FFF7A3FFFFF7BBFF48B1324629467D
:1003FC002046FFF7CDFF0446FFF798FF204670BD5F
:10040C00FFF794FFFF24F9E738B504460D46FF22A9
:10041C0000213720FFF7E1FF012800D938BDFF226A
:10042C0029462046FFF7D9FFF8E7000070B50646CD
:10043C000D46FF2000240F4B9C4206D8FF20FFF7EF
:10044C0063FFFF2801D10134F5E7FE2810D1002409
:10045C0004E0FF20FFF758FF30550134AC42F8D3CD
:10046C00FF20FFF751FFFF20FFF74EFF012070BD6B
:10047C000020FCE79F86010070B504460D46FFF78F
:10048C0055FFFFF76DFF78B1FF2200212046FFF7E3
:10049C007FFF01280DD810212846FFF7C7FF06461D
:1004AC0058B1FFF743FF02E00646FFF73FFF304627
:1004BC0070BDFFF73BFF0026F9E7FFF737FFF6E7C4
:1004CC002DE9F04383B00546FFF730FFFFF748FFF7
:1004DC00064658B3FF2200213A20FFF759FF0128A6
:1004EC0027D8FF20FFF710FF81468DF80400FF206E
:1004FC00FFF70AFF04468DF80500FF20FFF704FF05
:10050C0080468DF80600FF20FFF7FEFE07468DF8AB
:10051C000700FFF70BFF240444EA096444EA0824AB
:10052C003C432C60304603B0BDE8F083FFF7FEFE81
:10053C00F8E7FFF7FBFE0026F4E7000070B5044671
:10054C000D46124B1B7803B94402FFF7EFFEFFF781
:10055C0007FF064678B1FF2221461120FFF718FF4E
:10056C0068B94FF400712846FFF760FF064650B19A
:10057C00FFF7DCFE01E0FFF7D9FE304670BDFFF758
:10058C00D5FE0026F9E7FFF7D1FEF6E70C100020A8
:10059C0038B505460C46FF20FFF7B6FE2046FFF7A0
:1005AC00B3FE002403E0285DFFF7AEFE0134B4F582
:1005BC00007FF8D3FF20FFF7A7FEFF20FFF7A4FE74
:1005CC00FF20FFF7A1FE00F01F03052B01D0002038
:1005DC0038BD0248FFF7B4FEFAE700BF400D030038
:1005EC0070B504460D46124B1B7803B94402FFF755
:1005FC009DFEFFF7B5FE064670B1FF22214618207E
:10060C00FFF7C6FE60B9FE212846FFF7C1FF06467C
:10061C0050B1FFF78BFE01E0FFF788FE304670BD4E
:10062C00FFF784FE0026F9E7FFF780FEF6E700BF30
:10063C000C10002000B58646002001E00139C9B23B
:10064C0091420FD3CB08C3F10F03DBB201F0070CBF
:10065C001EF8033043FA0CF303F0010343EA4000A5
:10066C009142EBD15DF804FB70B505467E227F21EB
:10067C00FFF7E0FF012802D048B1002070BD302206
:10068C0045212846FFF7D6FF01308002F6E75022BD
:10069C0053212846FFF7CEFF06463E224921284625
:1006AC00FFF7C8FF04462F2231212846FFF7C2FF6F
:1006BC0001340230844004FA06F0400ADEE7000000
:1006CC002DE9F0418AB0002400948A4B1C708A4BAF
:1006DC001C60FFF751FE8948FFF716FD2546132DC8
:1006EC0009D8952200210846FFF777FE0446012819
:1006FC0001D00135F3E78248FFF706FD2046FFF7EE
:10070C000DFD8048FFF700FD012C04D0002420468D
:10071C000AB0BDE8F081FFF709FEFFF721FE0446A1
:10072C00002852D087224FF4D5710820FFF730FEF5
:10073C000546FF20FFF7E8FD80468DF82400FF20DA
:10074C00FFF7E2FD07468DF82500FF20FFF7DCFDE3
:10075C0006468DF82600FF20FFF7D6FD04468DF8DF
:10076C002700FFF7E3FD6848FFF7CEFC2846FFF7AC
:10077C00D5FC6648FFF7C8FC4046FFF7CFFC2020AD
:10078C00FFF7B8FC3846FFF7C9FC2020FFF7B2FC96
:10079C003046FFF7C3FC2020FFF7ACFC2046FFF7E8
:1007AC00BDFC5848FFF7B0FC15F0040F10D0002426
:1007BC00B4F57A7F80F0878000212920FFF724FE92
:1007CC00054600287FD00134F2E7FFF7AFFD9EE726
:1007DC000024B4F57A7F08D24FF080412920FFF72E
:1007EC0013FE054608B10134F3E74948FFF78CFCCA
:1007FC00601CFFF7B5FC4748FFF786FC2846FFF75F
:10080C008DFC4048FFF780FC002D71D16846FFF746
:10081C0057FE044600283FF47AAF009BC3F3807365
:10082C00344C23703C48FFF76FFC0098FFF78FFCAB
:10083C003A48FFF769FC2378002B57D03848FFF76C
:10084C0063FC3048FFF760FC2A4B1C7894B9FF22FC
:10085C004FF400711020FFF7C0FD05463148FFF73B
:10086C0053FC2846FFF75AFC2648FFF74DFC002D99
:10087C007FF44DAF05A90A20FFF7FEFD04460028C2
:10088C003FF445AF01A90920FFF7F6FD0446002807
:10089C003FF43DAF01A8FFF7E7FE174D2860224853
:1008AC00FFF732FC2868FFF75BFC2048FFF72CFCB5
:1008BC002868C00AFFF754FC1248FFF725FC2820D3
:1008CC00FFF7E6FC23E71A48FFF71EFC601CFFF756
:1008DC0047FC1048FFF718FC2846FFF71FFC094897
:1008EC00FFF712FC002D91D0002410E71148A6E769
:1008FC0000240CE70C1000200810002050250008E4
:10090C00602500087025000874250008842500085F
:10091C008C25000868250008BC250008C82500089F
:10092C003C250008D0250008E0250008F02500082B
:10093C00A425000848250008002302E0034AD354EC
:10094C000133B3F5805FF9D3704700BF0800002076
:10095C0008B51C4A136843F001031360194B1B685C
:10096C0013F0020FFAD0184B14221A60A3F580531F
:10097C005968A2F57D12083A0A405A605A6842F446
:10098C00601242F480625A601A6822F080721A6017
:10099C001A6842F080721A600A4B1B6813F0007FD1
:1009AC00FAD0084A536823F0030343F00203536060
:1009BC00044B5B6803F00C03082BF9D101F012FC1B
:1009CC0008BD00BF00100240002002402DE9F04F8E
:1009DC008DB000230193FFF7AFFF7A48FFF794FB2C
:1009EC00794C2046FFF790FB7848FFF78DFB4FF4CE
:1009FC008020FFF7B5FB7648FFF786FB4FF480505D
:100A0C00FFF7AEFB7348FFF77FFB4020FFF7A8FB17
:100A1C007148FFF779FB714B18688009FFF7A0FB51
:100A2C006F4D2846FFF770FB0A22214602A801F001
:100A3C0097F904466B48FFF767FB2046FFF790FBDE
:100A4C002846FFF761FBB4B9674BD3F800804FF42D
:100A5C0080554FF4005700264FF480242FE0634854
:100A6C00FFF752FB4846FFF77BFB5D48FFF74CFB5B
:100A7C0002A801F081FB0DB0BDE8F08F5C48FFF7D8
:100A8C0043FB0198FFF76CFB5548FFF73DFB02A8B1
:100A9C0001F072FBEFE75748FFF736FB3046FFF7E4
:100AAC005FFB5548FFF730FB4F4B1868A0EB080075
:100ABC00FFF756FB4A48FFF727FB07F50057ACB189
:100ACC00AC4200D2254601AB2A464C4902A801F0A3
:100ADC002DFA81460028C2D1019BAB42CED11E44D7
:100AEC00E41AB742D7D9002CE9D1D4E73E4B1F68A2
:100AFC0002A801F009FB05464148FFF705FB284613
:100B0C00FFF72EFB3648FFF7FFFA002D53D102A852
:100B1C0001F032FB05463B48FFF7F6FA2846FFF793
:100B2C001FFB2F48FFF7F0FA002DA4D12E4BD3F862
:100B3C0000A03548FFF7E8FA3046FFF711FB284DC7
:100B4C002846FFF7E1FA3148FFF7DEFAA7EB080B6E
:100B5C005846FFF705FB2E48FFF7D6FAAAEB07001D
:100B6C00FFF7FEFA2B48FFF7CFFAAAEB0809484625
:100B7C00FFF7F6FA2846FFF7C7FAB8451FD00A2543
:100B8C0006FB05F5B5FBFBF5D04504D00A2303FBAA
:100B9C0006F6B6FBF9F42048FFF7B6FA2846FFF73D
:100BAC000BFB1E48FFF7B0FA2046FFF705FB0C487D
:100BBC00FFF7AAFA5FE702A801F0DEFA5BE7254629
:100BCC00E2E700BF002600081026000820260008D7
:100BDC0028260008302600084426000804000020BF
:100BEC00702500085026000810100020642600080C
:100BFC007826000894260008AC260008080000207F
:100C0C00BC260008D0260008E4260008FC260008B4
:100C1C0010270008202700082C270008442700086C
:100C2C00024A136801331360704700BF1010002094
:100C3C0098B908B50A4B187810F0010F00D108BD0F
:100C4C00FFF73EFD28B1064B00221A70044B1878B2
:100C5C00F5E7034B01221A70F8E70120704700BF3B
:100C6C000000002010B9024B187870470120704723
:100C7C00000000202DE9F041A0B90E4617461D4694
:100C8C009BB10F4B93F8008018F0010810D1002491
:100C9C00AC4212D206EB4421E019FFF74FFC50B1E5
:100CAC000134F5E74FF0040807E04FF0040804E0C6
:100CBC004FF0030801E04FF001084046BDE8F08119
:100CCC00000000202DE9F041D8B90E4617461D460C
:100CDC00E3B1134B93F8008018F0010F19D118F001
:100CEC00040819D1002400E00134AC420BD206EB0D
:100CFC004421E019FFF774FC0028F5D14FF00108EE
:100D0C0001E04FF004084046BDE8F0814FF00408C4
:100D1C00F9E74FF00308F6E74FF00208F3E700BFDE
:100D2C000000002060BB10B50C46184B187810F072
:100D3C00010027D1032927D8DFE801F002171B1F78
:100D4C00FFF7F4FAFFF70CFB38B11148FFF7F8FA8C
:100D5C0038B1FFF7EBFA204615E0FFF7E7FA03206E
:100D6C0011E0FFF7E3FA01200DE00A4B1B6813605A
:100D7C0009E04FF40073138005E00123136002E0D7
:100D8C0004207047032010BD0420FCE70000002065
:100D9C00400D03000810002030B5ADF50D7DFFF7B8
:100DAC00D7FD404B1B68404AA2FB03239B09013B28
:100DBC00B3F1807F0AD24FF0E02253613B4BF0211C
:100DCC0083F823100023936107231361FFF73CFA88
:100DDC00FFF70AFAFFF76EFA3548FFF795F9354831
:100DEC00FFF792F93448FFF78FF93448FFF78CF985
:100DFC002C4B1868FFF7B4F9314D2846FFF784F9EE
:100E0C003048FFF781F94FF47A70FFF769F9012048
:100E1C00FFF730FA01222C49684600F075FF0446B2
:100E2C002A48FFF771F92046FFF79AF92846FFF791
:100E3C006BF93CB10020FFF71DFA4FF47A70FFF705
:100E4C004FF9FAE72248FFF75FF99DF80000FFF72A
:100E5C0087F92048FFF758F9BDF80A00FFF780F929
:100E6C001D48FFF751F90998FFF77AF91B48FFF76E
:100E7C004BF90A98FFF774F91948FFF745F90B98E5
:100E8C00FFF76EF90E48FFF73FF9FFF79FFD154886
:100E9C00FFF73AF90020FFF7EDF94FF47A70FFF7FE
:100EAC001FF9FAE704000020D34D621000ED00E0BA
:100EBC005827000888270008BC270008F0270008DE
:100ECC00702500080C280008342800083828000871
:100EDC004C2800085C2800086428000870280008CA
:100EEC007C280008882800084278007840EA022014
:100EFC007047C378827842EA0322437843EA02239C
:100F0C00007840EA032070470170090A417070476D
:100F1C000170C1F307234370C1F307438370090EBB
:100F2C00C170704700207047002070470239436938
:100F3C00023B8B4204D9C36A428901FB02307047E1
:100F4C000020704770B506460D4601F11A00FFF7F8
:100F5C00CBFF3378032B00D070BD044605F1140091
:100F6C00FFF7C2FF44EA0040F6E770B506460C46B0
:100F7C00154691B204F11A00FFF7C6FF3378032B24
:100F8C0000D070BD290C04F11400FFF7BDFFF8E789
:100F9C0084460168C9B10A4613780132202B01D965
:100FAC003A2BF9D13A2B01D0002070470878A0F1E8
:100FBC003003DBB2092B0BD8023191420BD1303804
:100FCC0000280BDCCCF8002070474FF0FF30704746
:100FDC004FF0FF3070474FF0FF3070474FF0FF304D
:100FEC00704738B50D46044698B103689BB11A7822
:100FFC00A2B18188DA88914203D0092000242C60A8
:10100C0038BD5878FFF72EFE10F0010009D1246886
:10101C00F5E70920F3E71C460920F0E70920002436
:10102C00EDE709200024EAE770B505790DB92846EB
:10103C0070BD044600F130060123C2693146407888
:10104C00FFF740FE054688B900232371E169636A06
:10105C00CB1AA2699342EAD2E378022BE7D101239F
:10106C000A4431466078FFF72DFEE0E70125DEE704
:10107C0070B5C3698B4202D10026304670BD044660
:10108C000D46FFF7D1FF06460028F6D101232A466C
:10109C0004F130016078FFF7EDFD10B101264FF03F
:1010AC00FF35E561E9E7000038B50446002303711C
:1010BC004FF0FF33C361FFF7DBFF00285AD104F276
:1010CC002E20FFF711FF054694F83030EB2B09D09A
:1010DC00E92B07D0E82B05D04AF655239D4247D083
:1010EC00032038BD4AF655239D4237D004F13B000E
:1010FC00FFF7FAFE94F83D20431E1842ECD1B0F5F0
:10110C00007FE9D3E8D8002AE6D0531E1A42E3D177
:10111C0004F13E00FFF7E8FE0028DDD094F84030E3
:10112C00013B012BD8D804F14100FFF7DDFE00286C
:10113C00D2D004F14300FFF7D7FE7F2806D804F184
:10114C005000FFF7D6FEB0F5803FC5D304F1460042
:10115C00FFF7CAFE0028BFD00020C2E708220649CC
:10116C0004F1820001F040F90028BFD10020B8E75B
:10117C000220B6E70420B4E7A428000870B584B0B8
:10118C0006460D460021FFF78FFF022816D02BD8FC
:10119C0055B300240DE006F13000230103F5E37391
:1011AC001844FFF7A6FE04AB03EB840343F8100CC2
:1011BC000134032CEFD91DB16C1E0CE00024F8E7B0
:1011CC002C4608E03046FFF76FFF6DB901280BD9AC
:1011DC000134032C08D804AB03EB840353F8101C24
:1011EC000029EFD10320F0E704B070BD2DE9F84FD2
:1011FC000D46164600230B60FFF7CAFE0028C0F20E
:10120C001881A04B53F82040002C00F016812C6064
:10121C0006F0FE06237873B16078FFF723FD10F01B
:10122C00010508D1002E00F0058110F0040F00F02C
:10123C0001810A25FEE0002323706078FFF7F8FC9B
:10124C0010F0010540F0FB801EB110F0040F40F0CF
:10125C00F88000212046FFF791FF042800F0F3806E
:10126C00012800F2F280E66904F13B00FFF73CFE36
:10127C00B0F5007F40F0EB8004F14600FFF734FE40
:10128C00074620B904F15400FFF733FE0746A76167
:10129C0094F84020E270531EDBB2012B00F2D9808F
:1012AC0007FB02F894F83D90A4F80A90B9F1000FEE
:1012BC0000F0D18009F1FF3319EA030F40F0CD8023
:1012CC0004F14100FFF710FE8246208110F00F0F51
:1012DC0040F0C58004F14300FFF706FE834620B9B9
:1012EC0004F15000FFF705FE834604F13E00FFF7C2
:1012FC00FBFD0246002800F0B48000EB080303EB72
:10130C001A139B45C0F0AF80ABEB030BBBFBF9F1A1
:10131C00CB45C0F0AA805C48814206D84FF6F570E8
:10132C0081423ED84FF0020B01E04FF0000B40F62B
:10133C00F570814238D9BBF1000F00F0988001F1B3
:10134C000209C4F814902662324462623344E362A8
:10135C00BBF1030F2BD0BAF1000F00F08E8042448A
:10136C00A262BBF1020F33D009EB490309F001096A
:10137C0009EB530909F2FF13B7EB532F7FD34FF04F
:10138C00FF332361E36080236371BBF1030F22D031
:10139C0084F800B03D4A138801339BB21380E3807C
:1013AC0048E04FF0030BC6E74FF0010BC7E704F121
:1013BC005A00FFF799FD00285BD1BAF1000F5AD102
:1013CC0004F15C00FFF795FDA0624FEA8909D1E7B3
:1013DC004FEA4909CEE704F16000FFF785FD0128CB
:1013EC00D6D1711C2046FFF743FE0028D0D1002334
:1013FC00637104F13000FFF77CFD254B9842C7D197
:10140C0004F50570FFF775FD224B9842C0D104F529
:10141C000B70FFF76EFD204B9842B9D104F50670A6
:10142C00FFF767FD206104F50770FFF762FDE060D0
:10143C00AEE70B252846BDE8F88F0C25FAE7032507
:10144C00F8E70A25F6E70125F4E70D25F2E70D2567
:10145C00F0E70D25EEE70D25ECE70D25EAE70D2568
:10146C00E8E70D25E6E70D25E4E70D25E2E70D2578
:10147C00E0E70D25DEE70D25DCE70D25DAE70D2588
:10148C00D8E700BF18100020F5FFFF0F1410002044
:10149C005252614172724161000055AA2DE9F04728
:1014AC00012975D907460C46164643698B4273D9F8
:1014BC000378022B3ED0032B4FD0012B6ED101EBC6
:1014CC005108416A01EB5821FFF7D2FD054600286F
:1014DC005FD107F1300A08F10109C8F3080814F0CC
:1014EC0001041DD01AF8083003F00F0343EA061369
:1014FC00DBB20AF8083001233B71796A01EB592100
:10150C003846FFF7B5FD0546002842D1C9F3080956
:10151C0044B1C6F307130AF8093001233B7138E0D4
:10152C00F3B2E6E71AF80930C6F3032223F00F03EF
:10153C001343F0E7416A01EB1421FFF799FD0546CF
:10154C0038BB07F13000640004F4FF74B1B22044DE
:10155C00FFF7DAFC01233B711BE0416A01EBD4116C
:10156C00FFF786FD0546A0B926F0704607F130035B
:10157C00A40004F4FE741C442046FFF7BAFC00F0EF
:10158C00704131432046FFF7C3FC01233B7100E05F
:10159C0002252846BDE8F0870225FAE70225F8E780
:1015AC00F8B50568012954D90C466B698B4252D9A0
:1015BC002B78022B2BD0032B39D0012B4DD101EBE7
:1015CC005106696A01EB56212846FFF751FD10B10F
:1015DC004FF0FF303EE0771CC6F308062E4496F819
:1015EC003060696A01EB57212846FFF741FDB0BB1B
:1015FC00C7F308072F4497F8303046EA032014F05D
:10160C00010F01D0000925E0C0F30B0022E0696A4C
:10161C0001EB14212846FFF72BFD18BB05F1300018
:10162C00640004F4FF742044FFF75EFC12E0696A66
:10163C0001EBD4112846FFF71BFDB0B905F13000C2
:10164C00A40004F4FE742044FFF753FC20F0704017
:10165C0000E00120F8BD0120FCE70120FAE74FF083
:10166C00FF30F7E74FF0FF30F4E74FF0FF30F1E7D2
:10167C002DE9F041D0F80080B1F5001F3FD20746AC
:10168C000E4611F01F0F3DD101618468E4B998F842
:10169C000030022B01D9D8F82840ACB9B8F8083082
:1016AC00B3EB561F30D9D8F82830BB617C61BB69CD
:1016BC0093B303EB5623BB6108F13008C6F3080162
:1016CC004144F96100201BE0B8F80A506D02AE42AB
:1016DC000FD321463846FFF763FF0446B0F1FF3FB6
:1016EC0014D0012814D9D8F81430834212D9761B9F
:1016FC00EDE721464046FFF719FCB861D6E702201A
:10170C00BDE8F0810220FBE70220F9E70120F7E7B2
:10171C000220F5E70220F3E70220F1E72DE9F84378
:10172C0006460768884631B9FD688DB17B69AB42C6
:10173C000FD801250DE0FFF733FF0346012879D9B7
:10174C00B0F1FF3F70D07A6982426DD8454600E017
:10175C0001253B69002B67D0454506D04FF00009A9
:10176C00B9F1000F3AD12C462FE005F101097B6944
:10177C004B4501D84FF0020949463046FFF710FFA0
:10178C000346012850D0B0F1FF3F4DD00028E7D0E0
:10179C00FB68012B05D97A699A4205D84FF00009EC
:1017AC00DEE74FF00009DBE71D464FF00009D7E7F5
:1017BC0021463046FFF7F4FE034670B1012833D0C2
:1017CC00B0F1FF3F30D0AC4238D001347B69A3423A
:1017DC00EED8012D30D90224EAE7A1464FF0FF32B2
:1017EC0049463846FFF75AFE0346D0B9B8F1000F08
:1017FC0010D1B3B9C7F80C903B690BB37A69023AB4
:10180C0093421FD8013B3B617B7943F001037B7111
:10181C004B4609E04A4641463846FFF73FFE034631
:10182C00E7E7012B03D001231846BDE8F8834FF0FE
:10183C00FF33F9E70123F7E74B46F5E74B46F3E7B0
:10184C004B46F1E74B46EFE7F8B50C460568012926
:10185C002ED9064611466B69A3422BD94AB14FF0DB
:10186C00FF322846FFF71AFE074610B123E0A242CA
:10187C0021D9274621463046FFF792FE0446E0B1B7
:10188C0001281CD0B0F1FF3F1BD00022394628465E
:10189C00FFF704FE074670B92B696A69911E8B42EB
:1018AC00E5D201332B616B7943F001036B71DEE7F9
:1018BC00022700E002273846F8BD0027FBE7022785
:1018CC00F9E70127F7E7F8B505460C46FFF7ACFB3F
:1018DC0008B10120F8BD21462846FFF727FB064634
:1018EC00E86105F130074FF400720021384600F032
:1018FC00C3FC002400E001346B89A34207D9012307
:10190C00A21939466878FFF7DDF90028F3D0688909
:10191C00001B18BF0120DDE72DE9F843044688467B
:10192C00076805692035B5F5001F01D300238361D5
:10193C00A369002B46D0C5F308063EB90133A36159
:10194C00616979B93B89B3EB551F07D9256107F15B
:10195C0030033344E3610020BDE8F8830023A36126
:10196C000420F9E77B89013B13EA5523EED120468D
:10197C00FFF716FE8146012826D9B0F1FF3F25D08E
:10198C007B69834212D8B8F1000F17D061692046E9
:10199C00FFF7C4FE8146D8B101281BD0B0F1FF3F40
:1019AC001AD001463846FFF78EFFB8B9C4F8149028
:1019BC0049463846FFF7BAFAA061C7E70023A3618E
:1019CC000420C9E70420C7E70220C5E70120C3E7CC
:1019DC000720C1E70220BFE70120BDE70120BBE7DC
:1019EC0070B5044606680021FFF742FE054640B17B
:1019FC00284670BD00212046FFF78EFF05460028C3
:101A0C00F6D1A1693046FFF733FB05460028EFD12C
:101A1C00E06903787BB1C37A03F03F03A371C37A07
:101A2C0013F0080FE6D10B2204F1200100F0DCFCCE
:101A3C000028DFD1DCE70425DAE7F8B504460E46CA
:101A4C0007680021FFF714FE0246C0B9002508E024
:101A5C000135B54213D001212046FFF75DFF024648
:101A6C0068B9A1693846FFF703FB024638B9E36948
:101A7C001B78E52BECD0002BEAD00025EBE7042AF1
:101A8C0001D01046F8BD0722FBE700002DE9F04F0E
:101A9C0083B080460191D1F8009000F1200B4FF0FB
:101AAC00203303624362C0F8273000273E464FF0D4
:101ABC00080A1AE0013519F805302F2BFAD05C2BE7
:101ACC00F8D04D44019B1D60002F66D098F8202063
:101ADC00E52A4FD0202C51D92B78202B53D8042316
:101AEC004DE008274FF00B0A2E46751C19F80640DE
:101AFC00202CE6D92F2CDED05C2CDCD02E2C01D067
:101B0C00BA4508D8BAF10B0F3FD02E2CE9D00620DD
:101B1C0003B0BDE8F08F14F0800F16D12046FFF70C
:101B2C0001FAB8B1023619F805502846FFF7FCF94E
:101B3C0068B30AF1FF33BB422BD97B1C0BF807406F
:101B4C000BF8035002373546CEE704F07F04144BF4
:101B5C001C5DE3E72146134800F0DEFBD8B9A4F185
:101B6C006103DBB2192B01D8203CE4B20BF807401F
:101B7C000137B9E7052288F82020ABE7042388F861
:101B8C002B300020C4E70023F9E70620C0E706202D
:101B9C00BEE70620BCE70620BAE70620B8E700BF80
:101BAC00D4280008B028000870B582B00446019112
:101BBC00056801E001330193019B1A782F2AF9D0B3
:101BCC005C2AF7D00022A2601B781F2B1ED901A91A
:101BDC002046FFF75BFF034600BB94F82B602046C2
:101BEC00FFF7FEFE0346E0B916F0040F16D1A379F9
:101BFC0013F0100F1CD005F130012369C3F3080357
:101C0C0019442846FFF79EF9A060E0E7802384F88A
:101C1C002B3011462046FFF72BFD0346184602B029
:101C2C0070BD0428FAD116F0040FF7D10523F5E79F
:101C3C000523F3E770B5044606680121FFF7FDFEA6
:101C4C00054608B1284670BDA1693046FFF710FA69
:101C5C0005460028F6D120220021E06900F00CFB9B
:101C6C00E369216A626A19605A60218D94F82A200E
:101C7C0019819A7201233371E4E7000070B50446B0
:101C8C00FFF7D2F9054648B96379012B08D0002239
:101C9C0011466078FFF746F800B10125284670BD63
:101CAC00002363712378032BF1D104F130064FF438
:101CBC0000720021304600F0DFFA10493046FFF781
:101CCC0027F90F4904F50570FFF722F9216904F58E
:101CDC000670FFF71DF9E16804F50770FFF718F9B6
:101CEC00084904F50B70FFF713F9226A0132E2611F
:101CFC00012331466078FEF7E5FFC8E75252614197
:101D0C0072724161000055AA10B584B00190009127
:101D1C001446039103A8FFF73BF900281CDB0F4B7B
:101D2C0053F8203023B100220C4941F820201A70BE
:101D3C00019B3BB15870019B00221A70074B019A12
:101D4C0043F8202014B9204604B010BD002201A98C
:101D5C006846FFF74BFAF7E70B20F5E71810002061
:101D6C002DE9F0438FB00191002800F0DB80144680
:101D7C00064602F03F073A4602A901A8FFF736FAD9
:101D8C00054628B10023336028460FB0BDE8F08328
:101D9C00029B33600393019903A8FFF705FF0546E7
:101DAC0018B99DF93730002B45DB14F01C0F53D0BC
:101DBC00002D47D0042D40D047F00807002DE1D16D
:101DCC0017F0080F58D0584C21460A980E30FFF7E0
:101DDC009FF821460A981630FFF79AF8DDF808802C
:101DEC00DDF8289049464046FFF7ACF8044620231E
:101DFC0089F80B3000220A994046FFF7B6F800210B
:101E0C000A981C30FFF784F8029B01221A719CB3CC
:101E1C00D3F81C800022214603A8FFF715FD0546C8
:101E2C000028AFD141460298FFF722F90546013C44
:101E3C00029BDC6020E00625B7E703A8FFF7FAFE5B
:101E4C000546B9E714F0040F15D19DF8123013F0C4
:101E5C00110FB3D0072595E7002D93D19DF81230C3
:101E6C0013F0100F5AD114F0020F05D013F0010F1C
:101E7C0002D0072586E70825002D83D117F0080F1F
:101E8C0001D047F04007DDF80890D9F81C303362D8
:101E9C00DDF82880C6F8248041464846FFF752F802
:101EAC000446B06008F11C00FFF723F88046F06090
:101EBC00B9F80630B380377400237374F36173611F
:101ECC0017F0200F26D028B37061B9F80A707F0282
:101EDC0002E00225A8EB07086DB9B8450BD92146DD
:101EEC003046FFF75DFB04460128F2D9B0F1FF3F05
:101EFC00F0D10125EEE7B461002D7FF443AFC8F3B8
:101F0C0008033BB121460298FFF710F840B100EBF3
:101F1C005823F361002D3FF437AF33E7042531E745
:101F2C0002252FE709252FE70000215C2DE9F04F52
:101F3C0085B004460F46164699460023C9F8003072
:101F4C0003A9FFF74EF88246002846D194F811A059
:101F5C00BAF1000F41D1237C13F0020F00F0D180B5
:101F6C006369F342C0F09B80DE4398E0A169204690
:101F7C00FFF7D4FB002800F0BF80012831D0B0F16E
:101F8C00FF3F33D0A061A36803B9A0600398C26976
:101F9C00E3699A422FD0DDF80CB0A1695846FEF7E0
:101FAC00C5FF88B308EB00030193750AB6F5007FF3
:101FBC0045D308EB0503BBF80A20934201D9A2EBE9
:101FCC0008052B46019A39469BF80100FEF77AFE6C
:101FDC00F8B14FF0010A84F811A0504605B0BDE8E5
:101FEC00F08F4FF0020A84F811A0F6E74FF0010AC7
:101FFC0084F811A0F1E7FFF717F80028CBD04FF0C9
:10200C00010A84F811A0E8E74FF0020A84F811A045
:10201C00E3E7DDF80C80D8F81C10019BC91AA94223
:10202C0001D36D022CE04FF4007207EB412108F153
:10203C00300000F007FA002388F80430F1E76269F9
:10204C00E3689A4246D2019BE3616569C5F30805D2
:10205C00C5F50075AE4200D23546E1690398FFF72D
:10206C0007F8002843D1039830306369C3F30803A1
:10207C002A463946184400F0E5F9039B01221A71EF
:10208C00761BD9F800302B44C9F800302F44636913
:10209C002B446361E268934238BF1346E3605EB33E
:1020AC006369C3F30802002ACFD1039AB2F80A80FD
:1020BC0008F1FF3818EA53287FF468AF002B7FF43F
:1020CC0055AFA06800287FF458AF00212046FFF7D9
:1020DC0025FB4FE75846FEF7A7FF18B9039B019A5B
:1020EC00DA61B0E74FF0010A84F811A075E74FF000
:1020FC00010A84F811A070E7237C43F04003237499
:10210C006BE74FF0070A68E730B583B0044601A9C6
:10211C00FEF767FF18B9237C13F0400F01D103B011
:10212C0030BD216A0198FEF7A3FF0028F7D1656A3C
:10213C00EB7A43F02003EB72A26829462068FEF785
:10214C0014FFE16805F11C00FEF7E2FE094905F1F8
:10215C001600FEF7DDFE002105F11200FEF7D4FE9D
:10216C00019801230371FFF789FD237C23F04003C1
:10217C002374D4E70000215C10B582B00446FFF74D
:10218C00C3FF08B102B010BD01A92046FEF729FF1C
:10219C000028F7D12060F5E7FEE7000008B500F055
:1021AC001FF80A4B0A4A03E052F8041B43F8041BBD
:1021BC0008498B42F8D3084B02E0002243F8042B69
:1021CC00064A9342F9D3FEF7E7FDFEE70000002034
:1021DC006C29000808000020080000201C100020BA
:1021EC00704700001F4B5B6803F00C03042B11D0ED
:1021FC00082B13D0002B31D11B4B1C4A1A60194BE6
:10220C005B68C3F303131A4AD15C174A1368CB40BB
:10221C0013607047144B154A1A60F0E7114A536863
:10222C005268C3F38343023312F4803F05D1114A41
:10223C0002FB03F30C4A1360E1E70A4A526812F4FA
:10224C00003F05D00B4A02FB03F3074A1360D6E7A5
:10225C00064A02FB03F3044A1360D0E7024B034A1D
:10226C001A60CCE7001002400400002000127A0033
:10227C005429000800093D0070B5860747D0541E4C
:10228C00002A3ED00346CAB201E0013C39D303F820
:10229C00012B9D07F9D1032C2CD9CDB205EB0525CB
:1022AC000F2C1A4605EB054534D9A4F1100C2CF073
:1022BC000F0603F1100EB6444FEA1C1CC2E9005580
:1022CC00C2E9025510327245F8D10CF1010214F03A
:1022DC000C0F03EB021204F00F0C13D0ACF104033F
:1022EC0023F003030433134442F8045B9342FBD101
:1022FC000CF003042CB1C9B21C4403F8011BA3421B
:10230C00FBD170BD64461346002CF4D1F9E70346AB
:10231C001446C0E7A446E1E711F0FF01034600F0C4
:10232C00030239D08ABB026810B501EB012E0EEB0B
:10233C000E4E8EEA0204A2F1013323EA0203A4F149
:10234C00013222EA0402134313F0803F0FD150F8FC
:10235C00044F84EA0E0CA4F10133ACF1013223EAF0
:10236C00040322EA0C02134313F0803FEFD00378EE
:10237C0023B936E010F8013F002B32D09942F9D145
:10238C0010BD8A4228D09A0729D01A7818460133F2
:10239C00002AF6D110467047CAB90268A2F101337F
:1023AC0023EA020313F0803F08D150F8042FA2F166
:1023BC00013323EA020313F0803FF6D003785BB1BC
:1023CC0010F8013F002BFBD17047990705D0184638
:1023DC0013F8012B002AF8D170471846DDE7184690
:1023EC00A1E7184610BD00BF032A30B415D941EA45
:1023FC000004A40784460B4604D0541E0FE0043A94
:10240C00032A08D91946604653F8044B5CF8045B60
:10241C00A542F4D0F1E760461946541E7AB1431E2A
:10242C000139021901E09A4209D013F8010F11F891
:10243C0001CF6045F7D0A0EB0C0030BC70470020FA
:10244C0030BC7047844641EA000313F0030349D1C2
:10245C00403A23D30B6803604B6843608B688360FE
:10246C00CB68C3600B6903614B6943618B69836102
:10247C00CB69C3610B6A03624B6A43628B6A8362EA
:10248C00CB6AC3620B6B03634B6B43638B6B8363D2
:10249C00CB6BC36340304031403ADBD230320BD38C
:1024AC000B6803604B6843608B688360CB68C360C8
:1024BC0010301031103AF3D20C3205D351F8043BE2
:1024CC0040F8043B043AF9D2043208D0D2071CBFBE
:1024DC0011F8013B00F8013B01D30B8803806046E7
:1024EC00704700BF082A13D38B07B1D010F0030339
:1024FC00AED0C3F10403D21ADB071CBF11F8013BA9
:10250C0000F8013BA4D331F8023B20F8023B9FE7D3
:10251C00043AD9D3013A11F8013B00F8013BF9D246
:10252C000B7803704B7843708B78837060467047E0
:10253C00534448432F5344584300000053445343DF
:10254C000000000073643A20434D44302E2E2E0DB3
:10255C000A00000073643A20434D44302052313D50
:10256C00307800000D0A000073643A20434D443863
:10257C002052313D307800002052373D00000000E1
:10258C0073643A2041434D4434312876322920700B
:10259C006F6C6C733D00000073643A2041434D44F2
:1025AC0034312876312920706F6C6C733D0000003B
:1025BC0073643A204F43523D307800002074797098
:1025CC00653D000073643A20434D4431362052314E
:1025DC003D30780073643A20736563746F72733D99
:1025EC00000000002063617061636974795F6D693C
:1025FC00623D000062656E63683A2066696C653DF9
:10260C0000000000303A2F434F445842454E2E42B2
:10261C00494E00002062797465733D002063687533
:10262C006E6B3D00207370695F7072657363616CD3
:10263C0065723D2F00000000207370695F687A3D61
:10264C000000000062656E63683A20665F6F70651B
:10265C006E202D3E2000000062656E63683A206695
:10266C005F7772697465202D3E20000062656E6391
:10267C00683A2073686F727420777269746520628F
:10268C00797465733D00000062656E63683A207072
:10269C00726F67726573735F62797465733D000066
:1026AC0020656C61707365645F6D733D00000000A4
:1026BC0062656E63683A20665F73796E63202D3EA7
:1026CC002000000062656E63683A20665F636C6F81
:1026DC007365202D3E20000062656E63683A2062AF
:1026EC00797465735F7772697474656E3D00000070
:1026FC0062656E63683A2077726974655F6D733DCD
:10270C00000000002073796E635F636C6F73655F0C
:10271C006D733D0020746F74616C5F6D733D0000D0
:10272C0062656E63683A2077726974655F72617472
:10273C00655F6B4270733D0020746F74616C5F72E7
:10274C006174655F6B4270733D0000000D0A736429
:10275C005F77726974655F62656E63683A20535483
:10276C004D33324631303343382053504931202FCA
:10277C00205553415254310D0A00000073645F77A9
:10278C00726974655F62656E63683A2066696C6530
:10279C002D6C6576656C2046617446732077726982
:1027AC0074652062656E63686D61726B0D0A000062
:1027BC0073645F77726974655F62656E63683A20F3
:1027CC005041343D4353205041353D53434B2050F1
:1027DC0041363D4D49534F205041373D4D4F5349A4
:1027EC000D0A000073645F77726974655F62656ED1
:1027FC0063683A20737973636C6B5F687A3D000091
:10280C0073645F77726974655F62656E63683A20A2
:10281C007374617274696E6720696E203130303068
:10282C00206D730D0A000000303A000062656E6383
:10283C00683A20665F6D6F756E74202D3E20000027
:10284C0062656E63683A2066735F747970653D00EB
:10285C00206373697A653D002066617462617365FB
:10286C003D00000020646972626173653D000000E8
:10287C002064617461626173653D000073645F770D
:10288C00726974655F62656E63683A20636F6D7020
:10289C006C6574650D0A00004641543332202020CB
:1028AC00000000002A2B2C3A3B3C3D3E5B5D7C2219
:1028BC003F7F0000303132333435363738394142BE
:1028CC004344454600000000809A45418E418F806C
:1028DC004545454949498E8F9092924F994F555590
:1028EC0059999A9B9C9D9E9F41494F55A5A5A6A77A
:1028FC00A8A9AAABACADAEAFB0B1B2B3B4B5B6B7D4
:10290C00B8B9BABBBCBDBEBFC0C1C2C3C4C5C6C7C3
:10291C00C8C9CACBCCCDCECFD0D1D2D3D4D5D6D7B3
:10292C00D8D9DADBDCDDDEDFE0E1E2E3E4E5E6E7A3
:10293C00E8E9EAEBECEDEEEFF0F1F2F3F4F5F6F793
:10294C00F8F9FAFBFCFDFEFF00000000000000009F
:08295C0001020304060708094B
:08296400ECFAFF7F0100000006
:08296C000100000000127A00D6
:04000005080021A925
:00000001FF
